{
	"default_workspace/Employee.sol": {
		"Employee": {
			"abi": [
				{
					"inputs": [],
					"name": "getPersonDetails",
					"outputs": [
						{
							"internalType": "string",
							"name": "",
							"type": "string"
						},
						{
							"internalType": "uint256",
							"name": "",
							"type": "uint256"
						}
					],
					"stateMutability": "view",
					"type": "function"
				},
				{
					"inputs": [
						{
							"internalType": "string",
							"name": "_name",
							"type": "string"
						},
						{
							"internalType": "uint256",
							"name": "_age",
							"type": "uint256"
						},
						{
							"internalType": "uint256",
							"name": "_empID",
							"type": "uint256"
						}
					],
					"name": "setEmployeeDetails",
					"outputs": [],
					"stateMutability": "nonpayable",
					"type": "function"
				},
				{
					"inputs": [
						{
							"internalType": "string",
							"name": "_name",
							"type": "string"
						},
						{
							"internalType": "uint256",
							"name": "_age",
							"type": "uint256"
						}
					],
					"name": "setPerson",
					"outputs": [],
					"stateMutability": "nonpayable",
					"type": "function"
				}
			],
			"devdoc": {
				"kind": "dev",
				"methods": {},
				"version": 1
			},
			"evm": {
				"assembly": "    /* \"default_workspace/Employee.sol\":84:370  contract Employee is Person{... */\n  mstore(0x40, 0x80)\n  callvalue\n  dup1\n  iszero\n  tag_1\n  jumpi\n  revert(0x00, 0x00)\ntag_1:\n  pop\n  dataSize(sub_0)\n  dup1\n  dataOffset(sub_0)\n  0x00\n  codecopy\n  0x00\n  return\nstop\n\nsub_0: assembly {\n        /* \"default_workspace/Employee.sol\":84:370  contract Employee is Person{... */\n      mstore(0x40, 0x80)\n      callvalue\n      dup1\n      iszero\n      tag_1\n      jumpi\n      revert(0x00, 0x00)\n    tag_1:\n      pop\n      jumpi(tag_2, lt(calldatasize, 0x04))\n      shr(0xe0, calldataload(0x00))\n      dup1\n      0x2fda437e\n      eq\n      tag_3\n      jumpi\n      dup1\n      0xd781a3a5\n      eq\n      tag_4\n      jumpi\n      dup1\n      0xea371cf7\n      eq\n      tag_5\n      jumpi\n    tag_2:\n      revert(0x00, 0x00)\n        /* \"default_workspace/Inheritance.sol\":219:324  function setPerson(string memory _name,uint _age)public {... */\n    tag_3:\n      tag_6\n      0x04\n      dup1\n      calldatasize\n      sub\n      dup2\n      add\n      swap1\n      tag_7\n      swap2\n      swap1\n      tag_8\n      jump\t// in\n    tag_7:\n      tag_9\n      jump\t// in\n    tag_6:\n      stop\n        /* \"default_workspace/Employee.sol\":276:368  function getPersonDetails()public override view returns (string memory,uint){... */\n    tag_4:\n      tag_10\n      tag_11\n      jump\t// in\n    tag_10:\n      mload(0x40)\n      tag_12\n      swap3\n      swap2\n      swap1\n      tag_13\n      jump\t// in\n    tag_12:\n      mload(0x40)\n      dup1\n      swap2\n      sub\n      swap1\n      return\n        /* \"default_workspace/Employee.sol\":134:271  function setEmployeeDetails(string memory _name,uint _age,uint _empID)public {... */\n    tag_5:\n      tag_14\n      0x04\n      dup1\n      calldatasize\n      sub\n      dup2\n      add\n      swap1\n      tag_15\n      swap2\n      swap1\n      tag_16\n      jump\t// in\n    tag_15:\n      tag_17\n      jump\t// in\n    tag_14:\n      stop\n        /* \"default_workspace/Inheritance.sol\":219:324  function setPerson(string memory _name,uint _age)public {... */\n    tag_9:\n        /* \"default_workspace/Inheritance.sol\":292:297  _name */\n      dup2\n        /* \"default_workspace/Inheritance.sol\":285:289  name */\n      0x00\n        /* \"default_workspace/Inheritance.sol\":285:297  name = _name */\n      swap1\n      dup2\n      tag_19\n      swap2\n      swap1\n      tag_20\n      jump\t// in\n    tag_19:\n      pop\n        /* \"default_workspace/Inheritance.sol\":313:317  _age */\n      dup1\n        /* \"default_workspace/Inheritance.sol\":307:310  age */\n      0x01\n        /* \"default_workspace/Inheritance.sol\":307:317  age = _age */\n      dup2\n      swap1\n      sstore\n      pop\n        /* \"default_workspace/Inheritance.sol\":219:324  function setPerson(string memory _name,uint _age)public {... */\n      pop\n      pop\n      jump\t// out\n        /* \"default_workspace/Employee.sol\":276:368  function getPersonDetails()public override view returns (string memory,uint){... */\n    tag_11:\n        /* \"default_workspace/Employee.sol\":333:346  string memory */\n      0x60\n        /* \"default_workspace/Employee.sol\":347:351  uint */\n      0x00\n        /* \"default_workspace/Employee.sol\":276:368  function getPersonDetails()public override view returns (string memory,uint){... */\n      swap1\n      swap2\n      jump\t// out\n        /* \"default_workspace/Employee.sol\":134:271  function setEmployeeDetails(string memory _name,uint _age,uint _empID)public {... */\n    tag_17:\n        /* \"default_workspace/Employee.sol\":221:242  setPerson(_name,_age) */\n      tag_23\n        /* \"default_workspace/Employee.sol\":231:236  _name */\n      dup4\n        /* \"default_workspace/Employee.sol\":237:241  _age */\n      dup4\n        /* \"default_workspace/Employee.sol\":221:230  setPerson */\n      tag_9\n        /* \"default_workspace/Employee.sol\":221:242  setPerson(_name,_age) */\n      jump\t// in\n    tag_23:\n        /* \"default_workspace/Employee.sol\":258:264  _empID */\n      dup1\n        /* \"default_workspace/Employee.sol\":252:257  empID */\n      0x02\n        /* \"default_workspace/Employee.sol\":252:264  empID=_empID */\n      dup2\n      swap1\n      sstore\n      pop\n        /* \"default_workspace/Employee.sol\":134:271  function setEmployeeDetails(string memory _name,uint _age,uint _empID)public {... */\n      pop\n      pop\n      pop\n      jump\t// out\n        /* \"#utility.yul\":7:82   */\n    tag_24:\n        /* \"#utility.yul\":40:46   */\n      0x00\n        /* \"#utility.yul\":73:75   */\n      0x40\n        /* \"#utility.yul\":67:76   */\n      mload\n        /* \"#utility.yul\":57:76   */\n      swap1\n      pop\n        /* \"#utility.yul\":7:82   */\n      swap1\n      jump\t// out\n        /* \"#utility.yul\":88:205   */\n    tag_25:\n        /* \"#utility.yul\":197:198   */\n      0x00\n        /* \"#utility.yul\":194:195   */\n      0x00\n        /* \"#utility.yul\":187:199   */\n      revert\n        /* \"#utility.yul\":211:328   */\n    tag_26:\n        /* \"#utility.yul\":320:321   */\n      0x00\n        /* \"#utility.yul\":317:318   */\n      0x00\n        /* \"#utility.yul\":310:322   */\n      revert\n        /* \"#utility.yul\":334:451   */\n    tag_27:\n        /* \"#utility.yul\":443:444   */\n      0x00\n        /* \"#utility.yul\":440:441   */\n      0x00\n        /* \"#utility.yul\":433:445   */\n      revert\n        /* \"#utility.yul\":457:574   */\n    tag_28:\n        /* \"#utility.yul\":566:567   */\n      0x00\n        /* \"#utility.yul\":563:564   */\n      0x00\n        /* \"#utility.yul\":556:568   */\n      revert\n        /* \"#utility.yul\":580:682   */\n    tag_29:\n        /* \"#utility.yul\":621:627   */\n      0x00\n        /* \"#utility.yul\":672:674   */\n      0x1f\n        /* \"#utility.yul\":668:675   */\n      not\n        /* \"#utility.yul\":663:665   */\n      0x1f\n        /* \"#utility.yul\":656:661   */\n      dup4\n        /* \"#utility.yul\":652:666   */\n      add\n        /* \"#utility.yul\":648:676   */\n      and\n        /* \"#utility.yul\":638:676   */\n      swap1\n      pop\n        /* \"#utility.yul\":580:682   */\n      swap2\n      swap1\n      pop\n      jump\t// out\n        /* \"#utility.yul\":688:868   */\n    tag_30:\n        /* \"#utility.yul\":736:813   */\n      0x4e487b7100000000000000000000000000000000000000000000000000000000\n        /* \"#utility.yul\":733:734   */\n      0x00\n        /* \"#utility.yul\":726:814   */\n      mstore\n        /* \"#utility.yul\":833:837   */\n      0x41\n        /* \"#utility.yul\":830:831   */\n      0x04\n        /* \"#utility.yul\":823:838   */\n      mstore\n        /* \"#utility.yul\":857:861   */\n      0x24\n        /* \"#utility.yul\":854:855   */\n      0x00\n        /* \"#utility.yul\":847:862   */\n      revert\n        /* \"#utility.yul\":874:1155   */\n    tag_31:\n        /* \"#utility.yul\":957:984   */\n      tag_71\n        /* \"#utility.yul\":979:983   */\n      dup3\n        /* \"#utility.yul\":957:984   */\n      tag_29\n      jump\t// in\n    tag_71:\n        /* \"#utility.yul\":949:955   */\n      dup2\n        /* \"#utility.yul\":945:985   */\n      add\n        /* \"#utility.yul\":1087:1093   */\n      dup2\n        /* \"#utility.yul\":1075:1085   */\n      dup2\n        /* \"#utility.yul\":1072:1094   */\n      lt\n        /* \"#utility.yul\":1051:1069   */\n      0xffffffffffffffff\n        /* \"#utility.yul\":1039:1049   */\n      dup3\n        /* \"#utility.yul\":1036:1070   */\n      gt\n        /* \"#utility.yul\":1033:1095   */\n      or\n        /* \"#utility.yul\":1030:1118   */\n      iszero\n      tag_72\n      jumpi\n        /* \"#utility.yul\":1098:1116   */\n      tag_73\n      tag_30\n      jump\t// in\n    tag_73:\n        /* \"#utility.yul\":1030:1118   */\n    tag_72:\n        /* \"#utility.yul\":1138:1148   */\n      dup1\n        /* \"#utility.yul\":1134:1136   */\n      0x40\n        /* \"#utility.yul\":1127:1149   */\n      mstore\n        /* \"#utility.yul\":917:1155   */\n      pop\n        /* \"#utility.yul\":874:1155   */\n      pop\n      pop\n      jump\t// out\n        /* \"#utility.yul\":1161:1290   */\n    tag_32:\n        /* \"#utility.yul\":1195:1201   */\n      0x00\n        /* \"#utility.yul\":1222:1242   */\n      tag_75\n      tag_24\n      jump\t// in\n    tag_75:\n        /* \"#utility.yul\":1212:1242   */\n      swap1\n      pop\n        /* \"#utility.yul\":1251:1284   */\n      tag_76\n        /* \"#utility.yul\":1279:1283   */\n      dup3\n        /* \"#utility.yul\":1271:1277   */\n      dup3\n        /* \"#utility.yul\":1251:1284   */\n      tag_31\n      jump\t// in\n    tag_76:\n        /* \"#utility.yul\":1161:1290   */\n      swap2\n      swap1\n      pop\n      jump\t// out\n        /* \"#utility.yul\":1296:1604   */\n    tag_33:\n        /* \"#utility.yul\":1358:1362   */\n      0x00\n        /* \"#utility.yul\":1448:1466   */\n      0xffffffffffffffff\n        /* \"#utility.yul\":1440:1446   */\n      dup3\n        /* \"#utility.yul\":1437:1467   */\n      gt\n        /* \"#utility.yul\":1434:1490   */\n      iszero\n      tag_78\n      jumpi\n        /* \"#utility.yul\":1470:1488   */\n      tag_79\n      tag_30\n      jump\t// in\n    tag_79:\n        /* \"#utility.yul\":1434:1490   */\n    tag_78:\n        /* \"#utility.yul\":1508:1537   */\n      tag_80\n        /* \"#utility.yul\":1530:1536   */\n      dup3\n        /* \"#utility.yul\":1508:1537   */\n      tag_29\n      jump\t// in\n    tag_80:\n        /* \"#utility.yul\":1500:1537   */\n      swap1\n      pop\n        /* \"#utility.yul\":1592:1596   */\n      0x20\n        /* \"#utility.yul\":1586:1590   */\n      dup2\n        /* \"#utility.yul\":1582:1597   */\n      add\n        /* \"#utility.yul\":1574:1597   */\n      swap1\n      pop\n        /* \"#utility.yul\":1296:1604   */\n      swap2\n      swap1\n      pop\n      jump\t// out\n        /* \"#utility.yul\":1610:1758   */\n    tag_34:\n        /* \"#utility.yul\":1708:1714   */\n      dup3\n        /* \"#utility.yul\":1703:1706   */\n      dup2\n        /* \"#utility.yul\":1698:1701   */\n      dup4\n        /* \"#utility.yul\":1685:1715   */\n      calldatacopy\n        /* \"#utility.yul\":1749:1750   */\n      0x00\n        /* \"#utility.yul\":1740:1746   */\n      dup4\n        /* \"#utility.yul\":1735:1738   */\n      dup4\n        /* \"#utility.yul\":1731:1747   */\n      add\n        /* \"#utility.yul\":1724:1751   */\n      mstore\n        /* \"#utility.yul\":1610:1758   */\n      pop\n      pop\n      pop\n      jump\t// out\n        /* \"#utility.yul\":1764:2189   */\n    tag_35:\n        /* \"#utility.yul\":1842:1847   */\n      0x00\n        /* \"#utility.yul\":1867:1933   */\n      tag_83\n        /* \"#utility.yul\":1883:1932   */\n      tag_84\n        /* \"#utility.yul\":1925:1931   */\n      dup5\n        /* \"#utility.yul\":1883:1932   */\n      tag_33\n      jump\t// in\n    tag_84:\n        /* \"#utility.yul\":1867:1933   */\n      tag_32\n      jump\t// in\n    tag_83:\n        /* \"#utility.yul\":1858:1933   */\n      swap1\n      pop\n        /* \"#utility.yul\":1956:1962   */\n      dup3\n        /* \"#utility.yul\":1949:1954   */\n      dup2\n        /* \"#utility.yul\":1942:1963   */\n      mstore\n        /* \"#utility.yul\":1994:1998   */\n      0x20\n        /* \"#utility.yul\":1987:1992   */\n      dup2\n        /* \"#utility.yul\":1983:1999   */\n      add\n        /* \"#utility.yul\":2032:2035   */\n      dup5\n        /* \"#utility.yul\":2023:2029   */\n      dup5\n        /* \"#utility.yul\":2018:2021   */\n      dup5\n        /* \"#utility.yul\":2014:2030   */\n      add\n        /* \"#utility.yul\":2011:2036   */\n      gt\n        /* \"#utility.yul\":2008:2120   */\n      iszero\n      tag_85\n      jumpi\n        /* \"#utility.yul\":2039:2118   */\n      tag_86\n      tag_28\n      jump\t// in\n    tag_86:\n        /* \"#utility.yul\":2008:2120   */\n    tag_85:\n        /* \"#utility.yul\":2129:2183   */\n      tag_87\n        /* \"#utility.yul\":2176:2182   */\n      dup5\n        /* \"#utility.yul\":2171:2174   */\n      dup3\n        /* \"#utility.yul\":2166:2169   */\n      dup6\n        /* \"#utility.yul\":2129:2183   */\n      tag_34\n      jump\t// in\n    tag_87:\n        /* \"#utility.yul\":1848:2189   */\n      pop\n        /* \"#utility.yul\":1764:2189   */\n      swap4\n      swap3\n      pop\n      pop\n      pop\n      jump\t// out\n        /* \"#utility.yul\":2209:2549   */\n    tag_36:\n        /* \"#utility.yul\":2265:2270   */\n      0x00\n        /* \"#utility.yul\":2314:2317   */\n      dup3\n        /* \"#utility.yul\":2307:2311   */\n      0x1f\n        /* \"#utility.yul\":2299:2305   */\n      dup4\n        /* \"#utility.yul\":2295:2312   */\n      add\n        /* \"#utility.yul\":2291:2318   */\n      slt\n        /* \"#utility.yul\":2281:2403   */\n      tag_89\n      jumpi\n        /* \"#utility.yul\":2322:2401   */\n      tag_90\n      tag_27\n      jump\t// in\n    tag_90:\n        /* \"#utility.yul\":2281:2403   */\n    tag_89:\n        /* \"#utility.yul\":2439:2445   */\n      dup2\n        /* \"#utility.yul\":2426:2446   */\n      calldataload\n        /* \"#utility.yul\":2464:2543   */\n      tag_91\n        /* \"#utility.yul\":2539:2542   */\n      dup5\n        /* \"#utility.yul\":2531:2537   */\n      dup3\n        /* \"#utility.yul\":2524:2528   */\n      0x20\n        /* \"#utility.yul\":2516:2522   */\n      dup7\n        /* \"#utility.yul\":2512:2529   */\n      add\n        /* \"#utility.yul\":2464:2543   */\n      tag_35\n      jump\t// in\n    tag_91:\n        /* \"#utility.yul\":2455:2543   */\n      swap2\n      pop\n        /* \"#utility.yul\":2271:2549   */\n      pop\n        /* \"#utility.yul\":2209:2549   */\n      swap3\n      swap2\n      pop\n      pop\n      jump\t// out\n        /* \"#utility.yul\":2555:2632   */\n    tag_37:\n        /* \"#utility.yul\":2592:2599   */\n      0x00\n        /* \"#utility.yul\":2621:2626   */\n      dup2\n        /* \"#utility.yul\":2610:2626   */\n      swap1\n      pop\n        /* \"#utility.yul\":2555:2632   */\n      swap2\n      swap1\n      pop\n      jump\t// out\n        /* \"#utility.yul\":2638:2760   */\n    tag_38:\n        /* \"#utility.yul\":2711:2735   */\n      tag_94\n        /* \"#utility.yul\":2729:2734   */\n      dup2\n        /* \"#utility.yul\":2711:2735   */\n      tag_37\n      jump\t// in\n    tag_94:\n        /* \"#utility.yul\":2704:2709   */\n      dup2\n        /* \"#utility.yul\":2701:2736   */\n      eq\n        /* \"#utility.yul\":2691:2754   */\n      tag_95\n      jumpi\n        /* \"#utility.yul\":2750:2751   */\n      0x00\n        /* \"#utility.yul\":2747:2748   */\n      0x00\n        /* \"#utility.yul\":2740:2752   */\n      revert\n        /* \"#utility.yul\":2691:2754   */\n    tag_95:\n        /* \"#utility.yul\":2638:2760   */\n      pop\n      jump\t// out\n        /* \"#utility.yul\":2766:2905   */\n    tag_39:\n        /* \"#utility.yul\":2812:2817   */\n      0x00\n        /* \"#utility.yul\":2850:2856   */\n      dup2\n        /* \"#utility.yul\":2837:2857   */\n      calldataload\n        /* \"#utility.yul\":2828:2857   */\n      swap1\n      pop\n        /* \"#utility.yul\":2866:2899   */\n      tag_97\n        /* \"#utility.yul\":2893:2898   */\n      dup2\n        /* \"#utility.yul\":2866:2899   */\n      tag_38\n      jump\t// in\n    tag_97:\n        /* \"#utility.yul\":2766:2905   */\n      swap3\n      swap2\n      pop\n      pop\n      jump\t// out\n        /* \"#utility.yul\":2911:3565   */\n    tag_8:\n        /* \"#utility.yul\":2989:2995   */\n      0x00\n        /* \"#utility.yul\":2997:3003   */\n      0x00\n        /* \"#utility.yul\":3046:3048   */\n      0x40\n        /* \"#utility.yul\":3034:3043   */\n      dup4\n        /* \"#utility.yul\":3025:3032   */\n      dup6\n        /* \"#utility.yul\":3021:3044   */\n      sub\n        /* \"#utility.yul\":3017:3049   */\n      slt\n        /* \"#utility.yul\":3014:3133   */\n      iszero\n      tag_99\n      jumpi\n        /* \"#utility.yul\":3052:3131   */\n      tag_100\n      tag_25\n      jump\t// in\n    tag_100:\n        /* \"#utility.yul\":3014:3133   */\n    tag_99:\n        /* \"#utility.yul\":3200:3201   */\n      0x00\n        /* \"#utility.yul\":3189:3198   */\n      dup4\n        /* \"#utility.yul\":3185:3202   */\n      add\n        /* \"#utility.yul\":3172:3203   */\n      calldataload\n        /* \"#utility.yul\":3230:3248   */\n      0xffffffffffffffff\n        /* \"#utility.yul\":3222:3228   */\n      dup2\n        /* \"#utility.yul\":3219:3249   */\n      gt\n        /* \"#utility.yul\":3216:3333   */\n      iszero\n      tag_101\n      jumpi\n        /* \"#utility.yul\":3252:3331   */\n      tag_102\n      tag_26\n      jump\t// in\n    tag_102:\n        /* \"#utility.yul\":3216:3333   */\n    tag_101:\n        /* \"#utility.yul\":3357:3420   */\n      tag_103\n        /* \"#utility.yul\":3412:3419   */\n      dup6\n        /* \"#utility.yul\":3403:3409   */\n      dup3\n        /* \"#utility.yul\":3392:3401   */\n      dup7\n        /* \"#utility.yul\":3388:3410   */\n      add\n        /* \"#utility.yul\":3357:3420   */\n      tag_36\n      jump\t// in\n    tag_103:\n        /* \"#utility.yul\":3347:3420   */\n      swap3\n      pop\n        /* \"#utility.yul\":3143:3430   */\n      pop\n        /* \"#utility.yul\":3469:3471   */\n      0x20\n        /* \"#utility.yul\":3495:3548   */\n      tag_104\n        /* \"#utility.yul\":3540:3547   */\n      dup6\n        /* \"#utility.yul\":3531:3537   */\n      dup3\n        /* \"#utility.yul\":3520:3529   */\n      dup7\n        /* \"#utility.yul\":3516:3538   */\n      add\n        /* \"#utility.yul\":3495:3548   */\n      tag_39\n      jump\t// in\n    tag_104:\n        /* \"#utility.yul\":3485:3548   */\n      swap2\n      pop\n        /* \"#utility.yul\":3440:3558   */\n      pop\n        /* \"#utility.yul\":2911:3565   */\n      swap3\n      pop\n      swap3\n      swap1\n      pop\n      jump\t// out\n        /* \"#utility.yul\":3571:3670   */\n    tag_40:\n        /* \"#utility.yul\":3623:3629   */\n      0x00\n        /* \"#utility.yul\":3657:3662   */\n      dup2\n        /* \"#utility.yul\":3651:3663   */\n      mload\n        /* \"#utility.yul\":3641:3663   */\n      swap1\n      pop\n        /* \"#utility.yul\":3571:3670   */\n      swap2\n      swap1\n      pop\n      jump\t// out\n        /* \"#utility.yul\":3676:3845   */\n    tag_41:\n        /* \"#utility.yul\":3760:3771   */\n      0x00\n        /* \"#utility.yul\":3794:3800   */\n      dup3\n        /* \"#utility.yul\":3789:3792   */\n      dup3\n        /* \"#utility.yul\":3782:3801   */\n      mstore\n        /* \"#utility.yul\":3834:3838   */\n      0x20\n        /* \"#utility.yul\":3829:3832   */\n      dup3\n        /* \"#utility.yul\":3825:3839   */\n      add\n        /* \"#utility.yul\":3810:3839   */\n      swap1\n      pop\n        /* \"#utility.yul\":3676:3845   */\n      swap3\n      swap2\n      pop\n      pop\n      jump\t// out\n        /* \"#utility.yul\":3851:3990   */\n    tag_42:\n        /* \"#utility.yul\":3940:3946   */\n      dup3\n        /* \"#utility.yul\":3935:3938   */\n      dup2\n        /* \"#utility.yul\":3930:3933   */\n      dup4\n        /* \"#utility.yul\":3924:3947   */\n      mcopy\n        /* \"#utility.yul\":3981:3982   */\n      0x00\n        /* \"#utility.yul\":3972:3978   */\n      dup4\n        /* \"#utility.yul\":3967:3970   */\n      dup4\n        /* \"#utility.yul\":3963:3979   */\n      add\n        /* \"#utility.yul\":3956:3983   */\n      mstore\n        /* \"#utility.yul\":3851:3990   */\n      pop\n      pop\n      pop\n      jump\t// out\n        /* \"#utility.yul\":3996:4373   */\n    tag_43:\n        /* \"#utility.yul\":4084:4087   */\n      0x00\n        /* \"#utility.yul\":4112:4151   */\n      tag_109\n        /* \"#utility.yul\":4145:4150   */\n      dup3\n        /* \"#utility.yul\":4112:4151   */\n      tag_40\n      jump\t// in\n    tag_109:\n        /* \"#utility.yul\":4167:4238   */\n      tag_110\n        /* \"#utility.yul\":4231:4237   */\n      dup2\n        /* \"#utility.yul\":4226:4229   */\n      dup6\n        /* \"#utility.yul\":4167:4238   */\n      tag_41\n      jump\t// in\n    tag_110:\n        /* \"#utility.yul\":4160:4238   */\n      swap4\n      pop\n        /* \"#utility.yul\":4247:4312   */\n      tag_111\n        /* \"#utility.yul\":4305:4311   */\n      dup2\n        /* \"#utility.yul\":4300:4303   */\n      dup6\n        /* \"#utility.yul\":4293:4297   */\n      0x20\n        /* \"#utility.yul\":4286:4291   */\n      dup7\n        /* \"#utility.yul\":4282:4298   */\n      add\n        /* \"#utility.yul\":4247:4312   */\n      tag_42\n      jump\t// in\n    tag_111:\n        /* \"#utility.yul\":4337:4366   */\n      tag_112\n        /* \"#utility.yul\":4359:4365   */\n      dup2\n        /* \"#utility.yul\":4337:4366   */\n      tag_29\n      jump\t// in\n    tag_112:\n        /* \"#utility.yul\":4332:4335   */\n      dup5\n        /* \"#utility.yul\":4328:4367   */\n      add\n        /* \"#utility.yul\":4321:4367   */\n      swap2\n      pop\n        /* \"#utility.yul\":4088:4373   */\n      pop\n        /* \"#utility.yul\":3996:4373   */\n      swap3\n      swap2\n      pop\n      pop\n      jump\t// out\n        /* \"#utility.yul\":4379:4497   */\n    tag_44:\n        /* \"#utility.yul\":4466:4490   */\n      tag_114\n        /* \"#utility.yul\":4484:4489   */\n      dup2\n        /* \"#utility.yul\":4466:4490   */\n      tag_37\n      jump\t// in\n    tag_114:\n        /* \"#utility.yul\":4461:4464   */\n      dup3\n        /* \"#utility.yul\":4454:4491   */\n      mstore\n        /* \"#utility.yul\":4379:4497   */\n      pop\n      pop\n      jump\t// out\n        /* \"#utility.yul\":4503:4926   */\n    tag_13:\n        /* \"#utility.yul\":4644:4648   */\n      0x00\n        /* \"#utility.yul\":4682:4684   */\n      0x40\n        /* \"#utility.yul\":4671:4680   */\n      dup3\n        /* \"#utility.yul\":4667:4685   */\n      add\n        /* \"#utility.yul\":4659:4685   */\n      swap1\n      pop\n        /* \"#utility.yul\":4731:4740   */\n      dup2\n        /* \"#utility.yul\":4725:4729   */\n      dup2\n        /* \"#utility.yul\":4721:4741   */\n      sub\n        /* \"#utility.yul\":4717:4718   */\n      0x00\n        /* \"#utility.yul\":4706:4715   */\n      dup4\n        /* \"#utility.yul\":4702:4719   */\n      add\n        /* \"#utility.yul\":4695:4742   */\n      mstore\n        /* \"#utility.yul\":4759:4837   */\n      tag_116\n        /* \"#utility.yul\":4832:4836   */\n      dup2\n        /* \"#utility.yul\":4823:4829   */\n      dup6\n        /* \"#utility.yul\":4759:4837   */\n      tag_43\n      jump\t// in\n    tag_116:\n        /* \"#utility.yul\":4751:4837   */\n      swap1\n      pop\n        /* \"#utility.yul\":4847:4919   */\n      tag_117\n        /* \"#utility.yul\":4915:4917   */\n      0x20\n        /* \"#utility.yul\":4904:4913   */\n      dup4\n        /* \"#utility.yul\":4900:4918   */\n      add\n        /* \"#utility.yul\":4891:4897   */\n      dup5\n        /* \"#utility.yul\":4847:4919   */\n      tag_44\n      jump\t// in\n    tag_117:\n        /* \"#utility.yul\":4503:4926   */\n      swap4\n      swap3\n      pop\n      pop\n      pop\n      jump\t// out\n        /* \"#utility.yul\":4932:5731   */\n    tag_16:\n        /* \"#utility.yul\":5019:5025   */\n      0x00\n        /* \"#utility.yul\":5027:5033   */\n      0x00\n        /* \"#utility.yul\":5035:5041   */\n      0x00\n        /* \"#utility.yul\":5084:5086   */\n      0x60\n        /* \"#utility.yul\":5072:5081   */\n      dup5\n        /* \"#utility.yul\":5063:5070   */\n      dup7\n        /* \"#utility.yul\":5059:5082   */\n      sub\n        /* \"#utility.yul\":5055:5087   */\n      slt\n        /* \"#utility.yul\":5052:5171   */\n      iszero\n      tag_119\n      jumpi\n        /* \"#utility.yul\":5090:5169   */\n      tag_120\n      tag_25\n      jump\t// in\n    tag_120:\n        /* \"#utility.yul\":5052:5171   */\n    tag_119:\n        /* \"#utility.yul\":5238:5239   */\n      0x00\n        /* \"#utility.yul\":5227:5236   */\n      dup5\n        /* \"#utility.yul\":5223:5240   */\n      add\n        /* \"#utility.yul\":5210:5241   */\n      calldataload\n        /* \"#utility.yul\":5268:5286   */\n      0xffffffffffffffff\n        /* \"#utility.yul\":5260:5266   */\n      dup2\n        /* \"#utility.yul\":5257:5287   */\n      gt\n        /* \"#utility.yul\":5254:5371   */\n      iszero\n      tag_121\n      jumpi\n        /* \"#utility.yul\":5290:5369   */\n      tag_122\n      tag_26\n      jump\t// in\n    tag_122:\n        /* \"#utility.yul\":5254:5371   */\n    tag_121:\n        /* \"#utility.yul\":5395:5458   */\n      tag_123\n        /* \"#utility.yul\":5450:5457   */\n      dup7\n        /* \"#utility.yul\":5441:5447   */\n      dup3\n        /* \"#utility.yul\":5430:5439   */\n      dup8\n        /* \"#utility.yul\":5426:5448   */\n      add\n        /* \"#utility.yul\":5395:5458   */\n      tag_36\n      jump\t// in\n    tag_123:\n        /* \"#utility.yul\":5385:5458   */\n      swap4\n      pop\n        /* \"#utility.yul\":5181:5468   */\n      pop\n        /* \"#utility.yul\":5507:5509   */\n      0x20\n        /* \"#utility.yul\":5533:5586   */\n      tag_124\n        /* \"#utility.yul\":5578:5585   */\n      dup7\n        /* \"#utility.yul\":5569:5575   */\n      dup3\n        /* \"#utility.yul\":5558:5567   */\n      dup8\n        /* \"#utility.yul\":5554:5576   */\n      add\n        /* \"#utility.yul\":5533:5586   */\n      tag_39\n      jump\t// in\n    tag_124:\n        /* \"#utility.yul\":5523:5586   */\n      swap3\n      pop\n        /* \"#utility.yul\":5478:5596   */\n      pop\n        /* \"#utility.yul\":5635:5637   */\n      0x40\n        /* \"#utility.yul\":5661:5714   */\n      tag_125\n        /* \"#utility.yul\":5706:5713   */\n      dup7\n        /* \"#utility.yul\":5697:5703   */\n      dup3\n        /* \"#utility.yul\":5686:5695   */\n      dup8\n        /* \"#utility.yul\":5682:5704   */\n      add\n        /* \"#utility.yul\":5661:5714   */\n      tag_39\n      jump\t// in\n    tag_125:\n        /* \"#utility.yul\":5651:5714   */\n      swap2\n      pop\n        /* \"#utility.yul\":5606:5724   */\n      pop\n        /* \"#utility.yul\":4932:5731   */\n      swap3\n      pop\n      swap3\n      pop\n      swap3\n      jump\t// out\n        /* \"#utility.yul\":5737:5917   */\n    tag_45:\n        /* \"#utility.yul\":5785:5862   */\n      0x4e487b7100000000000000000000000000000000000000000000000000000000\n        /* \"#utility.yul\":5782:5783   */\n      0x00\n        /* \"#utility.yul\":5775:5863   */\n      mstore\n        /* \"#utility.yul\":5882:5886   */\n      0x22\n        /* \"#utility.yul\":5879:5880   */\n      0x04\n        /* \"#utility.yul\":5872:5887   */\n      mstore\n        /* \"#utility.yul\":5906:5910   */\n      0x24\n        /* \"#utility.yul\":5903:5904   */\n      0x00\n        /* \"#utility.yul\":5896:5911   */\n      revert\n        /* \"#utility.yul\":5923:6243   */\n    tag_46:\n        /* \"#utility.yul\":5967:5973   */\n      0x00\n        /* \"#utility.yul\":6004:6005   */\n      0x02\n        /* \"#utility.yul\":5998:6002   */\n      dup3\n        /* \"#utility.yul\":5994:6006   */\n      div\n        /* \"#utility.yul\":5984:6006   */\n      swap1\n      pop\n        /* \"#utility.yul\":6051:6052   */\n      0x01\n        /* \"#utility.yul\":6045:6049   */\n      dup3\n        /* \"#utility.yul\":6041:6053   */\n      and\n        /* \"#utility.yul\":6072:6090   */\n      dup1\n        /* \"#utility.yul\":6062:6143   */\n      tag_128\n      jumpi\n        /* \"#utility.yul\":6128:6132   */\n      0x7f\n        /* \"#utility.yul\":6120:6126   */\n      dup3\n        /* \"#utility.yul\":6116:6133   */\n      and\n        /* \"#utility.yul\":6106:6133   */\n      swap2\n      pop\n        /* \"#utility.yul\":6062:6143   */\n    tag_128:\n        /* \"#utility.yul\":6190:6192   */\n      0x20\n        /* \"#utility.yul\":6182:6188   */\n      dup3\n        /* \"#utility.yul\":6179:6193   */\n      lt\n        /* \"#utility.yul\":6159:6177   */\n      dup2\n        /* \"#utility.yul\":6156:6194   */\n      sub\n        /* \"#utility.yul\":6153:6237   */\n      tag_129\n      jumpi\n        /* \"#utility.yul\":6209:6227   */\n      tag_130\n      tag_45\n      jump\t// in\n    tag_130:\n        /* \"#utility.yul\":6153:6237   */\n    tag_129:\n        /* \"#utility.yul\":5974:6243   */\n      pop\n        /* \"#utility.yul\":5923:6243   */\n      swap2\n      swap1\n      pop\n      jump\t// out\n        /* \"#utility.yul\":6249:6390   */\n    tag_47:\n        /* \"#utility.yul\":6298:6302   */\n      0x00\n        /* \"#utility.yul\":6321:6324   */\n      dup2\n        /* \"#utility.yul\":6313:6324   */\n      swap1\n      pop\n        /* \"#utility.yul\":6344:6347   */\n      dup2\n        /* \"#utility.yul\":6341:6342   */\n      0x00\n        /* \"#utility.yul\":6334:6348   */\n      mstore\n        /* \"#utility.yul\":6378:6382   */\n      0x20\n        /* \"#utility.yul\":6375:6376   */\n      0x00\n        /* \"#utility.yul\":6365:6383   */\n      keccak256\n        /* \"#utility.yul\":6357:6383   */\n      swap1\n      pop\n        /* \"#utility.yul\":6249:6390   */\n      swap2\n      swap1\n      pop\n      jump\t// out\n        /* \"#utility.yul\":6396:6489   */\n    tag_48:\n        /* \"#utility.yul\":6433:6439   */\n      0x00\n        /* \"#utility.yul\":6480:6482   */\n      0x20\n        /* \"#utility.yul\":6475:6477   */\n      0x1f\n        /* \"#utility.yul\":6468:6473   */\n      dup4\n        /* \"#utility.yul\":6464:6478   */\n      add\n        /* \"#utility.yul\":6460:6483   */\n      div\n        /* \"#utility.yul\":6450:6483   */\n      swap1\n      pop\n        /* \"#utility.yul\":6396:6489   */\n      swap2\n      swap1\n      pop\n      jump\t// out\n        /* \"#utility.yul\":6495:6602   */\n    tag_49:\n        /* \"#utility.yul\":6539:6547   */\n      0x00\n        /* \"#utility.yul\":6589:6594   */\n      dup3\n        /* \"#utility.yul\":6583:6587   */\n      dup3\n        /* \"#utility.yul\":6579:6595   */\n      shl\n        /* \"#utility.yul\":6558:6595   */\n      swap1\n      pop\n        /* \"#utility.yul\":6495:6602   */\n      swap3\n      swap2\n      pop\n      pop\n      jump\t// out\n        /* \"#utility.yul\":6608:7001   */\n    tag_50:\n        /* \"#utility.yul\":6677:6683   */\n      0x00\n        /* \"#utility.yul\":6727:6728   */\n      0x08\n        /* \"#utility.yul\":6715:6725   */\n      dup4\n        /* \"#utility.yul\":6711:6729   */\n      mul\n        /* \"#utility.yul\":6750:6847   */\n      tag_135\n        /* \"#utility.yul\":6780:6846   */\n      0xffffffffffffffffffffffffffffffffffffffffffffffffffffffffffffffff\n        /* \"#utility.yul\":6769:6778   */\n      dup3\n        /* \"#utility.yul\":6750:6847   */\n      tag_49\n      jump\t// in\n    tag_135:\n        /* \"#utility.yul\":6868:6907   */\n      tag_136\n        /* \"#utility.yul\":6898:6906   */\n      dup7\n        /* \"#utility.yul\":6887:6896   */\n      dup4\n        /* \"#utility.yul\":6868:6907   */\n      tag_49\n      jump\t// in\n    tag_136:\n        /* \"#utility.yul\":6856:6907   */\n      swap6\n      pop\n        /* \"#utility.yul\":6940:6944   */\n      dup1\n        /* \"#utility.yul\":6936:6945   */\n      not\n        /* \"#utility.yul\":6929:6934   */\n      dup5\n        /* \"#utility.yul\":6925:6946   */\n      and\n        /* \"#utility.yul\":6916:6946   */\n      swap4\n      pop\n        /* \"#utility.yul\":6989:6993   */\n      dup1\n        /* \"#utility.yul\":6979:6987   */\n      dup7\n        /* \"#utility.yul\":6975:6994   */\n      and\n        /* \"#utility.yul\":6968:6973   */\n      dup5\n        /* \"#utility.yul\":6965:6995   */\n      or\n        /* \"#utility.yul\":6955:6995   */\n      swap3\n      pop\n        /* \"#utility.yul\":6684:7001   */\n      pop\n      pop\n        /* \"#utility.yul\":6608:7001   */\n      swap4\n      swap3\n      pop\n      pop\n      pop\n      jump\t// out\n        /* \"#utility.yul\":7007:7067   */\n    tag_51:\n        /* \"#utility.yul\":7035:7038   */\n      0x00\n        /* \"#utility.yul\":7056:7061   */\n      dup2\n        /* \"#utility.yul\":7049:7061   */\n      swap1\n      pop\n        /* \"#utility.yul\":7007:7067   */\n      swap2\n      swap1\n      pop\n      jump\t// out\n        /* \"#utility.yul\":7073:7215   */\n    tag_52:\n        /* \"#utility.yul\":7123:7132   */\n      0x00\n        /* \"#utility.yul\":7156:7209   */\n      tag_139\n        /* \"#utility.yul\":7174:7208   */\n      tag_140\n        /* \"#utility.yul\":7183:7207   */\n      tag_141\n        /* \"#utility.yul\":7201:7206   */\n      dup5\n        /* \"#utility.yul\":7183:7207   */\n      tag_37\n      jump\t// in\n    tag_141:\n        /* \"#utility.yul\":7174:7208   */\n      tag_51\n      jump\t// in\n    tag_140:\n        /* \"#utility.yul\":7156:7209   */\n      tag_37\n      jump\t// in\n    tag_139:\n        /* \"#utility.yul\":7143:7209   */\n      swap1\n      pop\n        /* \"#utility.yul\":7073:7215   */\n      swap2\n      swap1\n      pop\n      jump\t// out\n        /* \"#utility.yul\":7221:7296   */\n    tag_53:\n        /* \"#utility.yul\":7264:7267   */\n      0x00\n        /* \"#utility.yul\":7285:7290   */\n      dup2\n        /* \"#utility.yul\":7278:7290   */\n      swap1\n      pop\n        /* \"#utility.yul\":7221:7296   */\n      swap2\n      swap1\n      pop\n      jump\t// out\n        /* \"#utility.yul\":7302:7571   */\n    tag_54:\n        /* \"#utility.yul\":7412:7451   */\n      tag_144\n        /* \"#utility.yul\":7443:7450   */\n      dup4\n        /* \"#utility.yul\":7412:7451   */\n      tag_52\n      jump\t// in\n    tag_144:\n        /* \"#utility.yul\":7473:7564   */\n      tag_145\n        /* \"#utility.yul\":7522:7563   */\n      tag_146\n        /* \"#utility.yul\":7546:7562   */\n      dup3\n        /* \"#utility.yul\":7522:7563   */\n      tag_53\n      jump\t// in\n    tag_146:\n        /* \"#utility.yul\":7514:7520   */\n      dup5\n        /* \"#utility.yul\":7507:7511   */\n      dup5\n        /* \"#utility.yul\":7501:7512   */\n      sload\n        /* \"#utility.yul\":7473:7564   */\n      tag_50\n      jump\t// in\n    tag_145:\n        /* \"#utility.yul\":7467:7471   */\n      dup3\n        /* \"#utility.yul\":7460:7565   */\n      sstore\n        /* \"#utility.yul\":7378:7571   */\n      pop\n        /* \"#utility.yul\":7302:7571   */\n      pop\n      pop\n      pop\n      jump\t// out\n        /* \"#utility.yul\":7577:7650   */\n    tag_55:\n        /* \"#utility.yul\":7622:7625   */\n      0x00\n        /* \"#utility.yul\":7643:7644   */\n      0x00\n        /* \"#utility.yul\":7636:7644   */\n      swap1\n      pop\n        /* \"#utility.yul\":7577:7650   */\n      swap1\n      jump\t// out\n        /* \"#utility.yul\":7656:7845   */\n    tag_56:\n        /* \"#utility.yul\":7733:7765   */\n      tag_149\n      tag_55\n      jump\t// in\n    tag_149:\n        /* \"#utility.yul\":7774:7839   */\n      tag_150\n        /* \"#utility.yul\":7832:7838   */\n      dup2\n        /* \"#utility.yul\":7824:7830   */\n      dup5\n        /* \"#utility.yul\":7818:7822   */\n      dup5\n        /* \"#utility.yul\":7774:7839   */\n      tag_54\n      jump\t// in\n    tag_150:\n        /* \"#utility.yul\":7709:7845   */\n      pop\n        /* \"#utility.yul\":7656:7845   */\n      pop\n      pop\n      jump\t// out\n        /* \"#utility.yul\":7851:8037   */\n    tag_57:\n        /* \"#utility.yul\":7911:8031   */\n    tag_152:\n        /* \"#utility.yul\":7928:7931   */\n      dup2\n        /* \"#utility.yul\":7921:7926   */\n      dup2\n        /* \"#utility.yul\":7918:7932   */\n      lt\n        /* \"#utility.yul\":7911:8031   */\n      iszero\n      tag_154\n      jumpi\n        /* \"#utility.yul\":7982:8021   */\n      tag_155\n        /* \"#utility.yul\":8019:8020   */\n      0x00\n        /* \"#utility.yul\":8012:8017   */\n      dup3\n        /* \"#utility.yul\":7982:8021   */\n      tag_56\n      jump\t// in\n    tag_155:\n        /* \"#utility.yul\":7955:7956   */\n      0x01\n        /* \"#utility.yul\":7948:7953   */\n      dup2\n        /* \"#utility.yul\":7944:7957   */\n      add\n        /* \"#utility.yul\":7935:7957   */\n      swap1\n      pop\n        /* \"#utility.yul\":7911:8031   */\n      jump(tag_152)\n    tag_154:\n        /* \"#utility.yul\":7851:8037   */\n      pop\n      pop\n      jump\t// out\n        /* \"#utility.yul\":8043:8586   */\n    tag_58:\n        /* \"#utility.yul\":8144:8146   */\n      0x1f\n        /* \"#utility.yul\":8139:8142   */\n      dup3\n        /* \"#utility.yul\":8136:8147   */\n      gt\n        /* \"#utility.yul\":8133:8579   */\n      iszero\n      tag_157\n      jumpi\n        /* \"#utility.yul\":8178:8216   */\n      tag_158\n        /* \"#utility.yul\":8210:8215   */\n      dup2\n        /* \"#utility.yul\":8178:8216   */\n      tag_47\n      jump\t// in\n    tag_158:\n        /* \"#utility.yul\":8262:8291   */\n      tag_159\n        /* \"#utility.yul\":8280:8290   */\n      dup5\n        /* \"#utility.yul\":8262:8291   */\n      tag_48\n      jump\t// in\n    tag_159:\n        /* \"#utility.yul\":8252:8260   */\n      dup2\n        /* \"#utility.yul\":8248:8292   */\n      add\n        /* \"#utility.yul\":8445:8447   */\n      0x20\n        /* \"#utility.yul\":8433:8443   */\n      dup6\n        /* \"#utility.yul\":8430:8448   */\n      lt\n        /* \"#utility.yul\":8427:8476   */\n      iszero\n      tag_160\n      jumpi\n        /* \"#utility.yul\":8466:8474   */\n      dup2\n        /* \"#utility.yul\":8451:8474   */\n      swap1\n      pop\n        /* \"#utility.yul\":8427:8476   */\n    tag_160:\n        /* \"#utility.yul\":8489:8569   */\n      tag_161\n        /* \"#utility.yul\":8545:8567   */\n      tag_162\n        /* \"#utility.yul\":8563:8566   */\n      dup6\n        /* \"#utility.yul\":8545:8567   */\n      tag_48\n      jump\t// in\n    tag_162:\n        /* \"#utility.yul\":8535:8543   */\n      dup4\n        /* \"#utility.yul\":8531:8568   */\n      add\n        /* \"#utility.yul\":8518:8529   */\n      dup3\n        /* \"#utility.yul\":8489:8569   */\n      tag_57\n      jump\t// in\n    tag_161:\n        /* \"#utility.yul\":8148:8579   */\n      pop\n      pop\n        /* \"#utility.yul\":8133:8579   */\n    tag_157:\n        /* \"#utility.yul\":8043:8586   */\n      pop\n      pop\n      pop\n      jump\t// out\n        /* \"#utility.yul\":8592:8709   */\n    tag_59:\n        /* \"#utility.yul\":8646:8654   */\n      0x00\n        /* \"#utility.yul\":8696:8701   */\n      dup3\n        /* \"#utility.yul\":8690:8694   */\n      dup3\n        /* \"#utility.yul\":8686:8702   */\n      shr\n        /* \"#utility.yul\":8665:8702   */\n      swap1\n      pop\n        /* \"#utility.yul\":8592:8709   */\n      swap3\n      swap2\n      pop\n      pop\n      jump\t// out\n        /* \"#utility.yul\":8715:8884   */\n    tag_60:\n        /* \"#utility.yul\":8759:8765   */\n      0x00\n        /* \"#utility.yul\":8792:8843   */\n      tag_165\n        /* \"#utility.yul\":8840:8841   */\n      0x00\n        /* \"#utility.yul\":8836:8842   */\n      not\n        /* \"#utility.yul\":8828:8833   */\n      dup5\n        /* \"#utility.yul\":8825:8826   */\n      0x08\n        /* \"#utility.yul\":8821:8834   */\n      mul\n        /* \"#utility.yul\":8792:8843   */\n      tag_59\n      jump\t// in\n    tag_165:\n        /* \"#utility.yul\":8788:8844   */\n      not\n        /* \"#utility.yul\":8873:8877   */\n      dup1\n        /* \"#utility.yul\":8867:8871   */\n      dup4\n        /* \"#utility.yul\":8863:8878   */\n      and\n        /* \"#utility.yul\":8853:8878   */\n      swap2\n      pop\n        /* \"#utility.yul\":8766:8884   */\n      pop\n        /* \"#utility.yul\":8715:8884   */\n      swap3\n      swap2\n      pop\n      pop\n      jump\t// out\n        /* \"#utility.yul\":8889:9184   */\n    tag_61:\n        /* \"#utility.yul\":8965:8969   */\n      0x00\n        /* \"#utility.yul\":9111:9140   */\n      tag_167\n        /* \"#utility.yul\":9136:9139   */\n      dup4\n        /* \"#utility.yul\":9130:9134   */\n      dup4\n        /* \"#utility.yul\":9111:9140   */\n      tag_60\n      jump\t// in\n    tag_167:\n        /* \"#utility.yul\":9103:9140   */\n      swap2\n      pop\n        /* \"#utility.yul\":9173:9176   */\n      dup3\n        /* \"#utility.yul\":9170:9171   */\n      0x02\n        /* \"#utility.yul\":9166:9177   */\n      mul\n        /* \"#utility.yul\":9160:9164   */\n      dup3\n        /* \"#utility.yul\":9157:9178   */\n      or\n        /* \"#utility.yul\":9149:9178   */\n      swap1\n      pop\n        /* \"#utility.yul\":8889:9184   */\n      swap3\n      swap2\n      pop\n      pop\n      jump\t// out\n        /* \"#utility.yul\":9189:10584   */\n    tag_20:\n        /* \"#utility.yul\":9306:9343   */\n      tag_169\n        /* \"#utility.yul\":9339:9342   */\n      dup3\n        /* \"#utility.yul\":9306:9343   */\n      tag_40\n      jump\t// in\n    tag_169:\n        /* \"#utility.yul\":9408:9426   */\n      0xffffffffffffffff\n        /* \"#utility.yul\":9400:9406   */\n      dup2\n        /* \"#utility.yul\":9397:9427   */\n      gt\n        /* \"#utility.yul\":9394:9450   */\n      iszero\n      tag_170\n      jumpi\n        /* \"#utility.yul\":9430:9448   */\n      tag_171\n      tag_30\n      jump\t// in\n    tag_171:\n        /* \"#utility.yul\":9394:9450   */\n    tag_170:\n        /* \"#utility.yul\":9474:9512   */\n      tag_172\n        /* \"#utility.yul\":9506:9510   */\n      dup3\n        /* \"#utility.yul\":9500:9511   */\n      sload\n        /* \"#utility.yul\":9474:9512   */\n      tag_46\n      jump\t// in\n    tag_172:\n        /* \"#utility.yul\":9559:9626   */\n      tag_173\n        /* \"#utility.yul\":9619:9625   */\n      dup3\n        /* \"#utility.yul\":9611:9617   */\n      dup3\n        /* \"#utility.yul\":9605:9609   */\n      dup6\n        /* \"#utility.yul\":9559:9626   */\n      tag_58\n      jump\t// in\n    tag_173:\n        /* \"#utility.yul\":9653:9654   */\n      0x00\n        /* \"#utility.yul\":9677:9681   */\n      0x20\n        /* \"#utility.yul\":9664:9681   */\n      swap1\n      pop\n        /* \"#utility.yul\":9709:9711   */\n      0x1f\n        /* \"#utility.yul\":9701:9707   */\n      dup4\n        /* \"#utility.yul\":9698:9712   */\n      gt\n        /* \"#utility.yul\":9726:9727   */\n      0x01\n        /* \"#utility.yul\":9721:10339   */\n      dup2\n      eq\n      tag_175\n      jumpi\n        /* \"#utility.yul\":10383:10384   */\n      0x00\n        /* \"#utility.yul\":10400:10406   */\n      dup5\n        /* \"#utility.yul\":10397:10474   */\n      iszero\n      tag_176\n      jumpi\n        /* \"#utility.yul\":10449:10458   */\n      dup3\n        /* \"#utility.yul\":10444:10447   */\n      dup8\n        /* \"#utility.yul\":10440:10459   */\n      add\n        /* \"#utility.yul\":10434:10460   */\n      mload\n        /* \"#utility.yul\":10425:10460   */\n      swap1\n      pop\n        /* \"#utility.yul\":10397:10474   */\n    tag_176:\n        /* \"#utility.yul\":10500:10567   */\n      tag_177\n        /* \"#utility.yul\":10560:10566   */\n      dup6\n        /* \"#utility.yul\":10553:10558   */\n      dup3\n        /* \"#utility.yul\":10500:10567   */\n      tag_61\n      jump\t// in\n    tag_177:\n        /* \"#utility.yul\":10494:10498   */\n      dup7\n        /* \"#utility.yul\":10487:10568   */\n      sstore\n        /* \"#utility.yul\":10356:10578   */\n      pop\n        /* \"#utility.yul\":9691:10578   */\n      jump(tag_174)\n        /* \"#utility.yul\":9721:10339   */\n    tag_175:\n        /* \"#utility.yul\":9773:9777   */\n      0x1f\n        /* \"#utility.yul\":9769:9778   */\n      not\n        /* \"#utility.yul\":9761:9767   */\n      dup5\n        /* \"#utility.yul\":9757:9779   */\n      and\n        /* \"#utility.yul\":9807:9844   */\n      tag_178\n        /* \"#utility.yul\":9839:9843   */\n      dup7\n        /* \"#utility.yul\":9807:9844   */\n      tag_47\n      jump\t// in\n    tag_178:\n        /* \"#utility.yul\":9866:9867   */\n      0x00\n        /* \"#utility.yul\":9880:10088   */\n    tag_179:\n        /* \"#utility.yul\":9894:9901   */\n      dup3\n        /* \"#utility.yul\":9891:9892   */\n      dup2\n        /* \"#utility.yul\":9888:9902   */\n      lt\n        /* \"#utility.yul\":9880:10088   */\n      iszero\n      tag_181\n      jumpi\n        /* \"#utility.yul\":9973:9982   */\n      dup5\n        /* \"#utility.yul\":9968:9971   */\n      dup10\n        /* \"#utility.yul\":9964:9983   */\n      add\n        /* \"#utility.yul\":9958:9984   */\n      mload\n        /* \"#utility.yul\":9950:9956   */\n      dup3\n        /* \"#utility.yul\":9943:9985   */\n      sstore\n        /* \"#utility.yul\":10024:10025   */\n      0x01\n        /* \"#utility.yul\":10016:10022   */\n      dup3\n        /* \"#utility.yul\":10012:10026   */\n      add\n        /* \"#utility.yul\":10002:10026   */\n      swap2\n      pop\n        /* \"#utility.yul\":10071:10073   */\n      0x20\n        /* \"#utility.yul\":10060:10069   */\n      dup6\n        /* \"#utility.yul\":10056:10074   */\n      add\n        /* \"#utility.yul\":10043:10074   */\n      swap5\n      pop\n        /* \"#utility.yul\":9917:9921   */\n      0x20\n        /* \"#utility.yul\":9914:9915   */\n      dup2\n        /* \"#utility.yul\":9910:9922   */\n      add\n        /* \"#utility.yul\":9905:9922   */\n      swap1\n      pop\n        /* \"#utility.yul\":9880:10088   */\n      jump(tag_179)\n    tag_181:\n        /* \"#utility.yul\":10116:10122   */\n      dup7\n        /* \"#utility.yul\":10107:10114   */\n      dup4\n        /* \"#utility.yul\":10104:10123   */\n      lt\n        /* \"#utility.yul\":10101:10280   */\n      iszero\n      tag_182\n      jumpi\n        /* \"#utility.yul\":10174:10183   */\n      dup5\n        /* \"#utility.yul\":10169:10172   */\n      dup10\n        /* \"#utility.yul\":10165:10184   */\n      add\n        /* \"#utility.yul\":10159:10185   */\n      mload\n        /* \"#utility.yul\":10217:10265   */\n      tag_183\n        /* \"#utility.yul\":10259:10263   */\n      0x1f\n        /* \"#utility.yul\":10251:10257   */\n      dup10\n        /* \"#utility.yul\":10247:10264   */\n      and\n        /* \"#utility.yul\":10236:10245   */\n      dup3\n        /* \"#utility.yul\":10217:10265   */\n      tag_60\n      jump\t// in\n    tag_183:\n        /* \"#utility.yul\":10209:10215   */\n      dup4\n        /* \"#utility.yul\":10202:10266   */\n      sstore\n        /* \"#utility.yul\":10124:10280   */\n      pop\n        /* \"#utility.yul\":10101:10280   */\n    tag_182:\n        /* \"#utility.yul\":10326:10327   */\n      0x01\n        /* \"#utility.yul\":10322:10323   */\n      0x02\n        /* \"#utility.yul\":10314:10320   */\n      dup9\n        /* \"#utility.yul\":10310:10324   */\n      mul\n        /* \"#utility.yul\":10306:10328   */\n      add\n        /* \"#utility.yul\":10300:10304   */\n      dup9\n        /* \"#utility.yul\":10293:10329   */\n      sstore\n        /* \"#utility.yul\":9728:10339   */\n      pop\n      pop\n      pop\n        /* \"#utility.yul\":9691:10578   */\n    tag_174:\n      pop\n        /* \"#utility.yul\":9281:10584   */\n      pop\n      pop\n      pop\n        /* \"#utility.yul\":9189:10584   */\n      pop\n      pop\n      jump\t// out\n\n    auxdata: 0xa2646970667358221220b6f3dea66dc3edcb85d09c65822ed52d59fcffba27146ccacb0b34adacc7ebad64736f6c634300081c0033\n}\n",
				"bytecode": {
					"linkReferences": {},
					"object": "6080604052348015600e575f5ffd5b506106b68061001c5f395ff3fe608060405234801561000f575f5ffd5b506004361061003f575f3560e01c80632fda437e14610043578063d781a3a51461005f578063ea371cf71461007e575b5f5ffd5b61005d60048036038101906100589190610251565b61009a565b005b6100676100b4565b60405161007592919061031a565b60405180910390f35b61009860048036038101906100939190610348565b6100bb565b005b815f90816100a891906105b1565b50806001819055505050565b60605f9091565b6100c5838361009a565b80600281905550505050565b5f604051905090565b5f5ffd5b5f5ffd5b5f5ffd5b5f5ffd5b5f601f19601f8301169050919050565b7f4e487b71000000000000000000000000000000000000000000000000000000005f52604160045260245ffd5b610130826100ea565b810181811067ffffffffffffffff8211171561014f5761014e6100fa565b5b80604052505050565b5f6101616100d1565b905061016d8282610127565b919050565b5f67ffffffffffffffff82111561018c5761018b6100fa565b5b610195826100ea565b9050602081019050919050565b828183375f83830152505050565b5f6101c26101bd84610172565b610158565b9050828152602081018484840111156101de576101dd6100e6565b5b6101e98482856101a2565b509392505050565b5f82601f830112610205576102046100e2565b5b81356102158482602086016101b0565b91505092915050565b5f819050919050565b6102308161021e565b811461023a575f5ffd5b50565b5f8135905061024b81610227565b92915050565b5f5f60408385031215610267576102666100da565b5b5f83013567ffffffffffffffff811115610284576102836100de565b5b610290858286016101f1565b92505060206102a18582860161023d565b9150509250929050565b5f81519050919050565b5f82825260208201905092915050565b8281835e5f83830152505050565b5f6102dd826102ab565b6102e781856102b5565b93506102f78185602086016102c5565b610300816100ea565b840191505092915050565b6103148161021e565b82525050565b5f6040820190508181035f83015261033281856102d3565b9050610341602083018461030b565b9392505050565b5f5f5f6060848603121561035f5761035e6100da565b5b5f84013567ffffffffffffffff81111561037c5761037b6100de565b5b610388868287016101f1565b93505060206103998682870161023d565b92505060406103aa8682870161023d565b9150509250925092565b7f4e487b71000000000000000000000000000000000000000000000000000000005f52602260045260245ffd5b5f60028204905060018216806103f857607f821691505b60208210810361040b5761040a6103b4565b5b50919050565b5f819050815f5260205f209050919050565b5f6020601f8301049050919050565b5f82821b905092915050565b5f6008830261046d7fffffffffffffffffffffffffffffffffffffffffffffffffffffffffffffffff82610432565b6104778683610432565b95508019841693508086168417925050509392505050565b5f819050919050565b5f6104b26104ad6104a88461021e565b61048f565b61021e565b9050919050565b5f819050919050565b6104cb83610498565b6104df6104d7826104b9565b84845461043e565b825550505050565b5f5f905090565b6104f66104e7565b6105018184846104c2565b505050565b5b81811015610524576105195f826104ee565b600181019050610507565b5050565b601f8211156105695761053a81610411565b61054384610423565b81016020851015610552578190505b61056661055e85610423565b830182610506565b50505b505050565b5f82821c905092915050565b5f6105895f198460080261056e565b1980831691505092915050565b5f6105a1838361057a565b9150826002028217905092915050565b6105ba826102ab565b67ffffffffffffffff8111156105d3576105d26100fa565b5b6105dd82546103e1565b6105e8828285610528565b5f60209050601f831160018114610619575f8415610607578287015190505b6106118582610596565b865550610678565b601f19841661062786610411565b5f5b8281101561064e57848901518255600182019150602085019450602081019050610629565b8683101561066b5784890151610667601f89168261057a565b8355505b6001600288020188555050505b50505050505056fea2646970667358221220b6f3dea66dc3edcb85d09c65822ed52d59fcffba27146ccacb0b34adacc7ebad64736f6c634300081c0033",
					"opcodes": "PUSH1 0x80 PUSH1 0x40 MSTORE CALLVALUE DUP1 ISZERO PUSH1 0xE JUMPI PUSH0 PUSH0 REVERT JUMPDEST POP PUSH2 0x6B6 DUP1 PUSH2 0x1C PUSH0 CODECOPY PUSH0 RETURN INVALID PUSH1 0x80 PUSH1 0x40 MSTORE CALLVALUE DUP1 ISZERO PUSH2 0xF JUMPI PUSH0 PUSH0 REVERT JUMPDEST POP PUSH1 0x4 CALLDATASIZE LT PUSH2 0x3F JUMPI PUSH0 CALLDATALOAD PUSH1 0xE0 SHR DUP1 PUSH4 0x2FDA437E EQ PUSH2 0x43 JUMPI DUP1 PUSH4 0xD781A3A5 EQ PUSH2 0x5F JUMPI DUP1 PUSH4 0xEA371CF7 EQ PUSH2 0x7E JUMPI JUMPDEST PUSH0 PUSH0 REVERT JUMPDEST PUSH2 0x5D PUSH1 0x4 DUP1 CALLDATASIZE SUB DUP2 ADD SWAP1 PUSH2 0x58 SWAP2 SWAP1 PUSH2 0x251 JUMP JUMPDEST PUSH2 0x9A JUMP JUMPDEST STOP JUMPDEST PUSH2 0x67 PUSH2 0xB4 JUMP JUMPDEST PUSH1 0x40 MLOAD PUSH2 0x75 SWAP3 SWAP2 SWAP1 PUSH2 0x31A JUMP JUMPDEST PUSH1 0x40 MLOAD DUP1 SWAP2 SUB SWAP1 RETURN JUMPDEST PUSH2 0x98 PUSH1 0x4 DUP1 CALLDATASIZE SUB DUP2 ADD SWAP1 PUSH2 0x93 SWAP2 SWAP1 PUSH2 0x348 JUMP JUMPDEST PUSH2 0xBB JUMP JUMPDEST STOP JUMPDEST DUP2 PUSH0 SWAP1 DUP2 PUSH2 0xA8 SWAP2 SWAP1 PUSH2 0x5B1 JUMP JUMPDEST POP DUP1 PUSH1 0x1 DUP2 SWAP1 SSTORE POP POP POP JUMP JUMPDEST PUSH1 0x60 PUSH0 SWAP1 SWAP2 JUMP JUMPDEST PUSH2 0xC5 DUP4 DUP4 PUSH2 0x9A JUMP JUMPDEST DUP1 PUSH1 0x2 DUP2 SWAP1 SSTORE POP POP POP POP JUMP JUMPDEST PUSH0 PUSH1 0x40 MLOAD SWAP1 POP SWAP1 JUMP JUMPDEST PUSH0 PUSH0 REVERT JUMPDEST PUSH0 PUSH0 REVERT JUMPDEST PUSH0 PUSH0 REVERT JUMPDEST PUSH0 PUSH0 REVERT JUMPDEST PUSH0 PUSH1 0x1F NOT PUSH1 0x1F DUP4 ADD AND SWAP1 POP SWAP2 SWAP1 POP JUMP JUMPDEST PUSH32 0x4E487B7100000000000000000000000000000000000000000000000000000000 PUSH0 MSTORE PUSH1 0x41 PUSH1 0x4 MSTORE PUSH1 0x24 PUSH0 REVERT JUMPDEST PUSH2 0x130 DUP3 PUSH2 0xEA JUMP JUMPDEST DUP2 ADD DUP2 DUP2 LT PUSH8 0xFFFFFFFFFFFFFFFF DUP3 GT OR ISZERO PUSH2 0x14F JUMPI PUSH2 0x14E PUSH2 0xFA JUMP JUMPDEST JUMPDEST DUP1 PUSH1 0x40 MSTORE POP POP POP JUMP JUMPDEST PUSH0 PUSH2 0x161 PUSH2 0xD1 JUMP JUMPDEST SWAP1 POP PUSH2 0x16D DUP3 DUP3 PUSH2 0x127 JUMP JUMPDEST SWAP2 SWAP1 POP JUMP JUMPDEST PUSH0 PUSH8 0xFFFFFFFFFFFFFFFF DUP3 GT ISZERO PUSH2 0x18C JUMPI PUSH2 0x18B PUSH2 0xFA JUMP JUMPDEST JUMPDEST PUSH2 0x195 DUP3 PUSH2 0xEA JUMP JUMPDEST SWAP1 POP PUSH1 0x20 DUP2 ADD SWAP1 POP SWAP2 SWAP1 POP JUMP JUMPDEST DUP3 DUP2 DUP4 CALLDATACOPY PUSH0 DUP4 DUP4 ADD MSTORE POP POP POP JUMP JUMPDEST PUSH0 PUSH2 0x1C2 PUSH2 0x1BD DUP5 PUSH2 0x172 JUMP JUMPDEST PUSH2 0x158 JUMP JUMPDEST SWAP1 POP DUP3 DUP2 MSTORE PUSH1 0x20 DUP2 ADD DUP5 DUP5 DUP5 ADD GT ISZERO PUSH2 0x1DE JUMPI PUSH2 0x1DD PUSH2 0xE6 JUMP JUMPDEST JUMPDEST PUSH2 0x1E9 DUP5 DUP3 DUP6 PUSH2 0x1A2 JUMP JUMPDEST POP SWAP4 SWAP3 POP POP POP JUMP JUMPDEST PUSH0 DUP3 PUSH1 0x1F DUP4 ADD SLT PUSH2 0x205 JUMPI PUSH2 0x204 PUSH2 0xE2 JUMP JUMPDEST JUMPDEST DUP2 CALLDATALOAD PUSH2 0x215 DUP5 DUP3 PUSH1 0x20 DUP7 ADD PUSH2 0x1B0 JUMP JUMPDEST SWAP2 POP POP SWAP3 SWAP2 POP POP JUMP JUMPDEST PUSH0 DUP2 SWAP1 POP SWAP2 SWAP1 POP JUMP JUMPDEST PUSH2 0x230 DUP2 PUSH2 0x21E JUMP JUMPDEST DUP2 EQ PUSH2 0x23A JUMPI PUSH0 PUSH0 REVERT JUMPDEST POP JUMP JUMPDEST PUSH0 DUP2 CALLDATALOAD SWAP1 POP PUSH2 0x24B DUP2 PUSH2 0x227 JUMP JUMPDEST SWAP3 SWAP2 POP POP JUMP JUMPDEST PUSH0 PUSH0 PUSH1 0x40 DUP4 DUP6 SUB SLT ISZERO PUSH2 0x267 JUMPI PUSH2 0x266 PUSH2 0xDA JUMP JUMPDEST JUMPDEST PUSH0 DUP4 ADD CALLDATALOAD PUSH8 0xFFFFFFFFFFFFFFFF DUP2 GT ISZERO PUSH2 0x284 JUMPI PUSH2 0x283 PUSH2 0xDE JUMP JUMPDEST JUMPDEST PUSH2 0x290 DUP6 DUP3 DUP7 ADD PUSH2 0x1F1 JUMP JUMPDEST SWAP3 POP POP PUSH1 0x20 PUSH2 0x2A1 DUP6 DUP3 DUP7 ADD PUSH2 0x23D JUMP JUMPDEST SWAP2 POP POP SWAP3 POP SWAP3 SWAP1 POP JUMP JUMPDEST PUSH0 DUP2 MLOAD SWAP1 POP SWAP2 SWAP1 POP JUMP JUMPDEST PUSH0 DUP3 DUP3 MSTORE PUSH1 0x20 DUP3 ADD SWAP1 POP SWAP3 SWAP2 POP POP JUMP JUMPDEST DUP3 DUP2 DUP4 MCOPY PUSH0 DUP4 DUP4 ADD MSTORE POP POP POP JUMP JUMPDEST PUSH0 PUSH2 0x2DD DUP3 PUSH2 0x2AB JUMP JUMPDEST PUSH2 0x2E7 DUP2 DUP6 PUSH2 0x2B5 JUMP JUMPDEST SWAP4 POP PUSH2 0x2F7 DUP2 DUP6 PUSH1 0x20 DUP7 ADD PUSH2 0x2C5 JUMP JUMPDEST PUSH2 0x300 DUP2 PUSH2 0xEA JUMP JUMPDEST DUP5 ADD SWAP2 POP POP SWAP3 SWAP2 POP POP JUMP JUMPDEST PUSH2 0x314 DUP2 PUSH2 0x21E JUMP JUMPDEST DUP3 MSTORE POP POP JUMP JUMPDEST PUSH0 PUSH1 0x40 DUP3 ADD SWAP1 POP DUP2 DUP2 SUB PUSH0 DUP4 ADD MSTORE PUSH2 0x332 DUP2 DUP6 PUSH2 0x2D3 JUMP JUMPDEST SWAP1 POP PUSH2 0x341 PUSH1 0x20 DUP4 ADD DUP5 PUSH2 0x30B JUMP JUMPDEST SWAP4 SWAP3 POP POP POP JUMP JUMPDEST PUSH0 PUSH0 PUSH0 PUSH1 0x60 DUP5 DUP7 SUB SLT ISZERO PUSH2 0x35F JUMPI PUSH2 0x35E PUSH2 0xDA JUMP JUMPDEST JUMPDEST PUSH0 DUP5 ADD CALLDATALOAD PUSH8 0xFFFFFFFFFFFFFFFF DUP2 GT ISZERO PUSH2 0x37C JUMPI PUSH2 0x37B PUSH2 0xDE JUMP JUMPDEST JUMPDEST PUSH2 0x388 DUP7 DUP3 DUP8 ADD PUSH2 0x1F1 JUMP JUMPDEST SWAP4 POP POP PUSH1 0x20 PUSH2 0x399 DUP7 DUP3 DUP8 ADD PUSH2 0x23D JUMP JUMPDEST SWAP3 POP POP PUSH1 0x40 PUSH2 0x3AA DUP7 DUP3 DUP8 ADD PUSH2 0x23D JUMP JUMPDEST SWAP2 POP POP SWAP3 POP SWAP3 POP SWAP3 JUMP JUMPDEST PUSH32 0x4E487B7100000000000000000000000000000000000000000000000000000000 PUSH0 MSTORE PUSH1 0x22 PUSH1 0x4 MSTORE PUSH1 0x24 PUSH0 REVERT JUMPDEST PUSH0 PUSH1 0x2 DUP3 DIV SWAP1 POP PUSH1 0x1 DUP3 AND DUP1 PUSH2 0x3F8 JUMPI PUSH1 0x7F DUP3 AND SWAP2 POP JUMPDEST PUSH1 0x20 DUP3 LT DUP2 SUB PUSH2 0x40B JUMPI PUSH2 0x40A PUSH2 0x3B4 JUMP JUMPDEST JUMPDEST POP SWAP2 SWAP1 POP JUMP JUMPDEST PUSH0 DUP2 SWAP1 POP DUP2 PUSH0 MSTORE PUSH1 0x20 PUSH0 KECCAK256 SWAP1 POP SWAP2 SWAP1 POP JUMP JUMPDEST PUSH0 PUSH1 0x20 PUSH1 0x1F DUP4 ADD DIV SWAP1 POP SWAP2 SWAP1 POP JUMP JUMPDEST PUSH0 DUP3 DUP3 SHL SWAP1 POP SWAP3 SWAP2 POP POP JUMP JUMPDEST PUSH0 PUSH1 0x8 DUP4 MUL PUSH2 0x46D PUSH32 0xFFFFFFFFFFFFFFFFFFFFFFFFFFFFFFFFFFFFFFFFFFFFFFFFFFFFFFFFFFFFFFFF DUP3 PUSH2 0x432 JUMP JUMPDEST PUSH2 0x477 DUP7 DUP4 PUSH2 0x432 JUMP JUMPDEST SWAP6 POP DUP1 NOT DUP5 AND SWAP4 POP DUP1 DUP7 AND DUP5 OR SWAP3 POP POP POP SWAP4 SWAP3 POP POP POP JUMP JUMPDEST PUSH0 DUP2 SWAP1 POP SWAP2 SWAP1 POP JUMP JUMPDEST PUSH0 PUSH2 0x4B2 PUSH2 0x4AD PUSH2 0x4A8 DUP5 PUSH2 0x21E JUMP JUMPDEST PUSH2 0x48F JUMP JUMPDEST PUSH2 0x21E JUMP JUMPDEST SWAP1 POP SWAP2 SWAP1 POP JUMP JUMPDEST PUSH0 DUP2 SWAP1 POP SWAP2 SWAP1 POP JUMP JUMPDEST PUSH2 0x4CB DUP4 PUSH2 0x498 JUMP JUMPDEST PUSH2 0x4DF PUSH2 0x4D7 DUP3 PUSH2 0x4B9 JUMP JUMPDEST DUP5 DUP5 SLOAD PUSH2 0x43E JUMP JUMPDEST DUP3 SSTORE POP POP POP POP JUMP JUMPDEST PUSH0 PUSH0 SWAP1 POP SWAP1 JUMP JUMPDEST PUSH2 0x4F6 PUSH2 0x4E7 JUMP JUMPDEST PUSH2 0x501 DUP2 DUP5 DUP5 PUSH2 0x4C2 JUMP JUMPDEST POP POP POP JUMP JUMPDEST JUMPDEST DUP2 DUP2 LT ISZERO PUSH2 0x524 JUMPI PUSH2 0x519 PUSH0 DUP3 PUSH2 0x4EE JUMP JUMPDEST PUSH1 0x1 DUP2 ADD SWAP1 POP PUSH2 0x507 JUMP JUMPDEST POP POP JUMP JUMPDEST PUSH1 0x1F DUP3 GT ISZERO PUSH2 0x569 JUMPI PUSH2 0x53A DUP2 PUSH2 0x411 JUMP JUMPDEST PUSH2 0x543 DUP5 PUSH2 0x423 JUMP JUMPDEST DUP2 ADD PUSH1 0x20 DUP6 LT ISZERO PUSH2 0x552 JUMPI DUP2 SWAP1 POP JUMPDEST PUSH2 0x566 PUSH2 0x55E DUP6 PUSH2 0x423 JUMP JUMPDEST DUP4 ADD DUP3 PUSH2 0x506 JUMP JUMPDEST POP POP JUMPDEST POP POP POP JUMP JUMPDEST PUSH0 DUP3 DUP3 SHR SWAP1 POP SWAP3 SWAP2 POP POP JUMP JUMPDEST PUSH0 PUSH2 0x589 PUSH0 NOT DUP5 PUSH1 0x8 MUL PUSH2 0x56E JUMP JUMPDEST NOT DUP1 DUP4 AND SWAP2 POP POP SWAP3 SWAP2 POP POP JUMP JUMPDEST PUSH0 PUSH2 0x5A1 DUP4 DUP4 PUSH2 0x57A JUMP JUMPDEST SWAP2 POP DUP3 PUSH1 0x2 MUL DUP3 OR SWAP1 POP SWAP3 SWAP2 POP POP JUMP JUMPDEST PUSH2 0x5BA DUP3 PUSH2 0x2AB JUMP JUMPDEST PUSH8 0xFFFFFFFFFFFFFFFF DUP2 GT ISZERO PUSH2 0x5D3 JUMPI PUSH2 0x5D2 PUSH2 0xFA JUMP JUMPDEST JUMPDEST PUSH2 0x5DD DUP3 SLOAD PUSH2 0x3E1 JUMP JUMPDEST PUSH2 0x5E8 DUP3 DUP3 DUP6 PUSH2 0x528 JUMP JUMPDEST PUSH0 PUSH1 0x20 SWAP1 POP PUSH1 0x1F DUP4 GT PUSH1 0x1 DUP2 EQ PUSH2 0x619 JUMPI PUSH0 DUP5 ISZERO PUSH2 0x607 JUMPI DUP3 DUP8 ADD MLOAD SWAP1 POP JUMPDEST PUSH2 0x611 DUP6 DUP3 PUSH2 0x596 JUMP JUMPDEST DUP7 SSTORE POP PUSH2 0x678 JUMP JUMPDEST PUSH1 0x1F NOT DUP5 AND PUSH2 0x627 DUP7 PUSH2 0x411 JUMP JUMPDEST PUSH0 JUMPDEST DUP3 DUP2 LT ISZERO PUSH2 0x64E JUMPI DUP5 DUP10 ADD MLOAD DUP3 SSTORE PUSH1 0x1 DUP3 ADD SWAP2 POP PUSH1 0x20 DUP6 ADD SWAP5 POP PUSH1 0x20 DUP2 ADD SWAP1 POP PUSH2 0x629 JUMP JUMPDEST DUP7 DUP4 LT ISZERO PUSH2 0x66B JUMPI DUP5 DUP10 ADD MLOAD PUSH2 0x667 PUSH1 0x1F DUP10 AND DUP3 PUSH2 0x57A JUMP JUMPDEST DUP4 SSTORE POP JUMPDEST PUSH1 0x1 PUSH1 0x2 DUP9 MUL ADD DUP9 SSTORE POP POP POP JUMPDEST POP POP POP POP POP POP JUMP INVALID LOG2 PUSH5 0x6970667358 0x22 SLT KECCAK256 0xB6 RETURN 0xDE 0xA6 PUSH14 0xC3EDCB85D09C65822ED52D59FCFF 0xBA 0x27 EQ PUSH13 0xCACB0B34ADACC7EBAD64736F6C PUSH4 0x4300081C STOP CALLER "
				},
				"gasEstimates": {
					"creation": {
						"codeDepositCost": "343600",
						"executionCost": "378",
						"totalCost": "343978"
					},
					"external": {
						"getPersonDetails()": "infinite",
						"setEmployeeDetails(string,uint256,uint256)": "infinite",
						"setPerson(string,uint256)": "infinite"
					}
				},
				"methodIdentifiers": {
					"getPersonDetails()": "d781a3a5",
					"setEmployeeDetails(string,uint256,uint256)": "ea371cf7",
					"setPerson(string,uint256)": "2fda437e"
				}
			},
			"storageLayout": {
				"storage": [
					{
						"astId": 39,
						"contract": "default_workspace/Employee.sol:Employee",
						"label": "name",
						"offset": 0,
						"slot": "0",
						"type": "t_string_storage"
					},
					{
						"astId": 41,
						"contract": "default_workspace/Employee.sol:Employee",
						"label": "age",
						"offset": 0,
						"slot": "1",
						"type": "t_uint256"
					},
					{
						"astId": 6,
						"contract": "default_workspace/Employee.sol:Employee",
						"label": "empID",
						"offset": 0,
						"slot": "2",
						"type": "t_uint256"
					}
				],
				"types": {
					"t_string_storage": {
						"encoding": "bytes",
						"label": "string",
						"numberOfBytes": "32"
					},
					"t_uint256": {
						"encoding": "inplace",
						"label": "uint256",
						"numberOfBytes": "32"
					}
				}
			},
			"userdoc": {
				"kind": "user",
				"methods": {},
				"version": 1
			}
		}
	}
}