{
	"data": {
		"bytecode": {
			"linkReferences": {},
			"object": "6080604052348015600e575f5ffd5b506104e88061001c5f395ff3fe608060405234801561000f575f5ffd5b5060043610610034575f3560e01c8063d2ea30e214610038578063e6f921aa14610054575b5f5ffd5b610052600480360381019061004d91906102e2565b610074565b005b61005c610092565b60405161006b9392919061038c565b60405180910390f35b805f5f6101000a81548161ffff021916908361ffff16021790555050565b60605f60605f5f5f5f9054906101000a900461ffff1690505b5f8161ffff1611156100d95781806100c2906103fc565b925050600a816100d29190610452565b90506100ab565b60048261ffff160361022b575f60045f5f9054906101000a900461ffff166101019190610482565b61ffff1614801561013057505f60645f5f9054906101000a900461ffff166101299190610482565b61ffff1614155b156101b057816040518060400160405280601281526020017f697420636f6e7461696e20342064696769740000000000000000000000000000815250906040518060400160405280601181526020017f69742069732061206c656170207965617200000000000000000000000000000081525094509450945050506102a2565b816040518060400160405280601281526020017f697420636f6e7461696e20342064696769740000000000000000000000000000815250906040518060400160405280601681526020017f6974206973206e6f74206120206c65617020796561720000000000000000000081525094509450945050506102a2565b816040518060400160405280601c81526020017f497420646f6573206e6f7420636f6e7461696e20342064696769747300000000815250906040518060400160405280601081526020017f6974206973206e6f74206120796561720000000000000000000000000000000081525094509450945050505b909192565b5f5ffd5b5f61ffff82169050919050565b6102c1816102ab565b81146102cb575f5ffd5b50565b5f813590506102dc816102b8565b92915050565b5f602082840312156102f7576102f66102a7565b5b5f610304848285016102ce565b91505092915050565b5f81519050919050565b5f82825260208201905092915050565b8281835e5f83830152505050565b5f601f19601f8301169050919050565b5f61034f8261030d565b6103598185610317565b9350610369818560208601610327565b61037281610335565b840191505092915050565b610386816102ab565b82525050565b5f6060820190508181035f8301526103a48186610345565b90506103b3602083018561037d565b81810360408301526103c58184610345565b9050949350505050565b7f4e487b71000000000000000000000000000000000000000000000000000000005f52601160045260245ffd5b5f610406826102ab565b915061ffff820361041a576104196103cf565b5b600182019050919050565b7f4e487b71000000000000000000000000000000000000000000000000000000005f52601260045260245ffd5b5f61045c826102ab565b9150610467836102ab565b92508261047757610476610425565b5b828204905092915050565b5f61048c826102ab565b9150610497836102ab565b9250826104a7576104a6610425565b5b82820690509291505056fea264697066735822122007ce469f9222d1bead0521b8ed5b67e890cf8a2847445ea6fd788a1c4d5e792f64736f6c634300081c0033",
			"opcodes": "PUSH1 0x80 PUSH1 0x40 MSTORE CALLVALUE DUP1 ISZERO PUSH1 0xE JUMPI PUSH0 PUSH0 REVERT JUMPDEST POP PUSH2 0x4E8 DUP1 PUSH2 0x1C PUSH0 CODECOPY PUSH0 RETURN INVALID PUSH1 0x80 PUSH1 0x40 MSTORE CALLVALUE DUP1 ISZERO PUSH2 0xF JUMPI PUSH0 PUSH0 REVERT JUMPDEST POP PUSH1 0x4 CALLDATASIZE LT PUSH2 0x34 JUMPI PUSH0 CALLDATALOAD PUSH1 0xE0 SHR DUP1 PUSH4 0xD2EA30E2 EQ PUSH2 0x38 JUMPI DUP1 PUSH4 0xE6F921AA EQ PUSH2 0x54 JUMPI JUMPDEST PUSH0 PUSH0 REVERT JUMPDEST PUSH2 0x52 PUSH1 0x4 DUP1 CALLDATASIZE SUB DUP2 ADD SWAP1 PUSH2 0x4D SWAP2 SWAP1 PUSH2 0x2E2 JUMP JUMPDEST PUSH2 0x74 JUMP JUMPDEST STOP JUMPDEST PUSH2 0x5C PUSH2 0x92 JUMP JUMPDEST PUSH1 0x40 MLOAD PUSH2 0x6B SWAP4 SWAP3 SWAP2 SWAP1 PUSH2 0x38C JUMP JUMPDEST PUSH1 0x40 MLOAD DUP1 SWAP2 SUB SWAP1 RETURN JUMPDEST DUP1 PUSH0 PUSH0 PUSH2 0x100 EXP DUP2 SLOAD DUP2 PUSH2 0xFFFF MUL NOT AND SWAP1 DUP4 PUSH2 0xFFFF AND MUL OR SWAP1 SSTORE POP POP JUMP JUMPDEST PUSH1 0x60 PUSH0 PUSH1 0x60 PUSH0 PUSH0 PUSH0 PUSH0 SWAP1 SLOAD SWAP1 PUSH2 0x100 EXP SWAP1 DIV PUSH2 0xFFFF AND SWAP1 POP JUMPDEST PUSH0 DUP2 PUSH2 0xFFFF AND GT ISZERO PUSH2 0xD9 JUMPI DUP2 DUP1 PUSH2 0xC2 SWAP1 PUSH2 0x3FC JUMP JUMPDEST SWAP3 POP POP PUSH1 0xA DUP2 PUSH2 0xD2 SWAP2 SWAP1 PUSH2 0x452 JUMP JUMPDEST SWAP1 POP PUSH2 0xAB JUMP JUMPDEST PUSH1 0x4 DUP3 PUSH2 0xFFFF AND SUB PUSH2 0x22B JUMPI PUSH0 PUSH1 0x4 PUSH0 PUSH0 SWAP1 SLOAD SWAP1 PUSH2 0x100 EXP SWAP1 DIV PUSH2 0xFFFF AND PUSH2 0x101 SWAP2 SWAP1 PUSH2 0x482 JUMP JUMPDEST PUSH2 0xFFFF AND EQ DUP1 ISZERO PUSH2 0x130 JUMPI POP PUSH0 PUSH1 0x64 PUSH0 PUSH0 SWAP1 SLOAD SWAP1 PUSH2 0x100 EXP SWAP1 DIV PUSH2 0xFFFF AND PUSH2 0x129 SWAP2 SWAP1 PUSH2 0x482 JUMP JUMPDEST PUSH2 0xFFFF AND EQ ISZERO JUMPDEST ISZERO PUSH2 0x1B0 JUMPI DUP2 PUSH1 0x40 MLOAD DUP1 PUSH1 0x40 ADD PUSH1 0x40 MSTORE DUP1 PUSH1 0x12 DUP2 MSTORE PUSH1 0x20 ADD PUSH32 0x697420636F6E7461696E20342064696769740000000000000000000000000000 DUP2 MSTORE POP SWAP1 PUSH1 0x40 MLOAD DUP1 PUSH1 0x40 ADD PUSH1 0x40 MSTORE DUP1 PUSH1 0x11 DUP2 MSTORE PUSH1 0x20 ADD PUSH32 0x69742069732061206C6561702079656172000000000000000000000000000000 DUP2 MSTORE POP SWAP5 POP SWAP5 POP SWAP5 POP POP POP PUSH2 0x2A2 JUMP JUMPDEST DUP2 PUSH1 0x40 MLOAD DUP1 PUSH1 0x40 ADD PUSH1 0x40 MSTORE DUP1 PUSH1 0x12 DUP2 MSTORE PUSH1 0x20 ADD PUSH32 0x697420636F6E7461696E20342064696769740000000000000000000000000000 DUP2 MSTORE POP SWAP1 PUSH1 0x40 MLOAD DUP1 PUSH1 0x40 ADD PUSH1 0x40 MSTORE DUP1 PUSH1 0x16 DUP2 MSTORE PUSH1 0x20 ADD PUSH32 0x6974206973206E6F74206120206C656170207965617200000000000000000000 DUP2 MSTORE POP SWAP5 POP SWAP5 POP SWAP5 POP POP POP PUSH2 0x2A2 JUMP JUMPDEST DUP2 PUSH1 0x40 MLOAD DUP1 PUSH1 0x40 ADD PUSH1 0x40 MSTORE DUP1 PUSH1 0x1C DUP2 MSTORE PUSH1 0x20 ADD PUSH32 0x497420646F6573206E6F7420636F6E7461696E20342064696769747300000000 DUP2 MSTORE POP SWAP1 PUSH1 0x40 MLOAD DUP1 PUSH1 0x40 ADD PUSH1 0x40 MSTORE DUP1 PUSH1 0x10 DUP2 MSTORE PUSH1 0x20 ADD PUSH32 0x6974206973206E6F742061207965617200000000000000000000000000000000 DUP2 MSTORE POP SWAP5 POP SWAP5 POP SWAP5 POP POP POP JUMPDEST SWAP1 SWAP2 SWAP3 JUMP JUMPDEST PUSH0 PUSH0 REVERT JUMPDEST PUSH0 PUSH2 0xFFFF DUP3 AND SWAP1 POP SWAP2 SWAP1 POP JUMP JUMPDEST PUSH2 0x2C1 DUP2 PUSH2 0x2AB JUMP JUMPDEST DUP2 EQ PUSH2 0x2CB JUMPI PUSH0 PUSH0 REVERT JUMPDEST POP JUMP JUMPDEST PUSH0 DUP2 CALLDATALOAD SWAP1 POP PUSH2 0x2DC DUP2 PUSH2 0x2B8 JUMP JUMPDEST SWAP3 SWAP2 POP POP JUMP JUMPDEST PUSH0 PUSH1 0x20 DUP3 DUP5 SUB SLT ISZERO PUSH2 0x2F7 JUMPI PUSH2 0x2F6 PUSH2 0x2A7 JUMP JUMPDEST JUMPDEST PUSH0 PUSH2 0x304 DUP5 DUP3 DUP6 ADD PUSH2 0x2CE JUMP JUMPDEST SWAP2 POP POP SWAP3 SWAP2 POP POP JUMP JUMPDEST PUSH0 DUP2 MLOAD SWAP1 POP SWAP2 SWAP1 POP JUMP JUMPDEST PUSH0 DUP3 DUP3 MSTORE PUSH1 0x20 DUP3 ADD SWAP1 POP SWAP3 SWAP2 POP POP JUMP JUMPDEST DUP3 DUP2 DUP4 MCOPY PUSH0 DUP4 DUP4 ADD MSTORE POP POP POP JUMP JUMPDEST PUSH0 PUSH1 0x1F NOT PUSH1 0x1F DUP4 ADD AND SWAP1 POP SWAP2 SWAP1 POP JUMP JUMPDEST PUSH0 PUSH2 0x34F DUP3 PUSH2 0x30D JUMP JUMPDEST PUSH2 0x359 DUP2 DUP6 PUSH2 0x317 JUMP JUMPDEST SWAP4 POP PUSH2 0x369 DUP2 DUP6 PUSH1 0x20 DUP7 ADD PUSH2 0x327 JUMP JUMPDEST PUSH2 0x372 DUP2 PUSH2 0x335 JUMP JUMPDEST DUP5 ADD SWAP2 POP POP SWAP3 SWAP2 POP POP JUMP JUMPDEST PUSH2 0x386 DUP2 PUSH2 0x2AB JUMP JUMPDEST DUP3 MSTORE POP POP JUMP JUMPDEST PUSH0 PUSH1 0x60 DUP3 ADD SWAP1 POP DUP2 DUP2 SUB PUSH0 DUP4 ADD MSTORE PUSH2 0x3A4 DUP2 DUP7 PUSH2 0x345 JUMP JUMPDEST SWAP1 POP PUSH2 0x3B3 PUSH1 0x20 DUP4 ADD DUP6 PUSH2 0x37D JUMP JUMPDEST DUP2 DUP2 SUB PUSH1 0x40 DUP4 ADD MSTORE PUSH2 0x3C5 DUP2 DUP5 PUSH2 0x345 JUMP JUMPDEST SWAP1 POP SWAP5 SWAP4 POP POP POP POP JUMP JUMPDEST PUSH32 0x4E487B7100000000000000000000000000000000000000000000000000000000 PUSH0 MSTORE PUSH1 0x11 PUSH1 0x4 MSTORE PUSH1 0x24 PUSH0 REVERT JUMPDEST PUSH0 PUSH2 0x406 DUP3 PUSH2 0x2AB JUMP JUMPDEST SWAP2 POP PUSH2 0xFFFF DUP3 SUB PUSH2 0x41A JUMPI PUSH2 0x419 PUSH2 0x3CF JUMP JUMPDEST JUMPDEST PUSH1 0x1 DUP3 ADD SWAP1 POP SWAP2 SWAP1 POP JUMP JUMPDEST PUSH32 0x4E487B7100000000000000000000000000000000000000000000000000000000 PUSH0 MSTORE PUSH1 0x12 PUSH1 0x4 MSTORE PUSH1 0x24 PUSH0 REVERT JUMPDEST PUSH0 PUSH2 0x45C DUP3 PUSH2 0x2AB JUMP JUMPDEST SWAP2 POP PUSH2 0x467 DUP4 PUSH2 0x2AB JUMP JUMPDEST SWAP3 POP DUP3 PUSH2 0x477 JUMPI PUSH2 0x476 PUSH2 0x425 JUMP JUMPDEST JUMPDEST DUP3 DUP3 DIV SWAP1 POP SWAP3 SWAP2 POP POP JUMP JUMPDEST PUSH0 PUSH2 0x48C DUP3 PUSH2 0x2AB JUMP JUMPDEST SWAP2 POP PUSH2 0x497 DUP4 PUSH2 0x2AB JUMP JUMPDEST SWAP3 POP DUP3 PUSH2 0x4A7 JUMPI PUSH2 0x4A6 PUSH2 0x425 JUMP JUMPDEST JUMPDEST DUP3 DUP3 MOD SWAP1 POP SWAP3 SWAP2 POP POP JUMP INVALID LOG2 PUSH5 0x6970667358 0x22 SLT KECCAK256 SMOD 0xCE CHAINID SWAP16 SWAP3 0x22 0xD1 0xBE 0xAD SDIV 0x21 0xB8 0xED JUMPDEST PUSH8 0xE890CF8A2847445E 0xA6 REVERT PUSH25 0x8A1C4D5E792F64736F6C634300081C00330000000000000000 "
		},
		"gasEstimates": {
			"creation": {
				"codeDepositCost": "251200",
				"executionCost": "292",
				"totalCost": "251492"
			},
			"external": {
				"Leapyear()": "infinite",
				"setYear(uint16)": "24650"
			}
		},
		"methodIdentifiers": {
			"Leapyear()": "e6f921aa",
			"setYear(uint16)": "d2ea30e2"
		}
	},
	"abi": [
		{
			"inputs": [],
			"name": "Leapyear",
			"outputs": [
				{
					"internalType": "string",
					"name": "",
					"type": "string"
				},
				{
					"internalType": "uint16",
					"name": "",
					"type": "uint16"
				},
				{
					"internalType": "string",
					"name": "",
					"type": "string"
				}
			],
			"stateMutability": "view",
			"type": "function"
		},
		{
			"inputs": [
				{
					"internalType": "uint16",
					"name": "Year",
					"type": "uint16"
				}
			],
			"name": "setYear",
			"outputs": [],
			"stateMutability": "nonpayable",
			"type": "function"
		}
	]
}