{
	"Activities-D1/Activity3.sol": {
		"Activity3": {
			"abi": [
				{
					"inputs": [],
					"name": "employee",
					"outputs": [
						{
							"internalType": "string",
							"name": "name",
							"type": "string"
						},
						{
							"internalType": "string",
							"name": "department",
							"type": "string"
						},
						{
							"internalType": "string",
							"name": "designation",
							"type": "string"
						},
						{
							"internalType": "uint16",
							"name": "salary",
							"type": "uint16"
						},
						{
							"internalType": "address payable",
							"name": "paymentadd",
							"type": "address"
						}
					],
					"stateMutability": "view",
					"type": "function"
				},
				{
					"inputs": [
						{
							"internalType": "uint256",
							"name": "eval",
							"type": "uint256"
						}
					],
					"name": "ethTowei",
					"outputs": [
						{
							"internalType": "uint256",
							"name": "",
							"type": "uint256"
						}
					],
					"stateMutability": "pure",
					"type": "function"
				},
				{
					"inputs": [],
					"name": "getEmployee",
					"outputs": [
						{
							"internalType": "string",
							"name": "",
							"type": "string"
						},
						{
							"internalType": "string",
							"name": "",
							"type": "string"
						},
						{
							"internalType": "string",
							"name": "",
							"type": "string"
						},
						{
							"internalType": "uint16",
							"name": "",
							"type": "uint16"
						},
						{
							"internalType": "address payable",
							"name": "",
							"type": "address"
						}
					],
					"stateMutability": "view",
					"type": "function"
				},
				{
					"inputs": [],
					"name": "payemp",
					"outputs": [],
					"stateMutability": "payable",
					"type": "function"
				},
				{
					"inputs": [
						{
							"internalType": "string",
							"name": "_name",
							"type": "string"
						},
						{
							"internalType": "string",
							"name": "_depart",
							"type": "string"
						},
						{
							"internalType": "string",
							"name": "_design",
							"type": "string"
						},
						{
							"internalType": "uint16",
							"name": "_salary",
							"type": "uint16"
						},
						{
							"internalType": "address payable",
							"name": "_paymentad",
							"type": "address"
						}
					],
					"name": "setEmployee",
					"outputs": [],
					"stateMutability": "nonpayable",
					"type": "function"
				}
			],
			"devdoc": {
				"kind": "dev",
				"methods": {},
				"version": 1
			},
			"evm": {
				"assembly": "    /* \"Activities-D1/Activity3.sol\":55:1272  contract Activity3 {... */\n  mstore(0x40, 0x80)\n  callvalue\n  dup1\n  iszero\n  tag_1\n  jumpi\n  revert(0x00, 0x00)\ntag_1:\n  pop\n  dataSize(sub_0)\n  dup1\n  dataOffset(sub_0)\n  0x00\n  codecopy\n  0x00\n  return\nstop\n\nsub_0: assembly {\n        /* \"Activities-D1/Activity3.sol\":55:1272  contract Activity3 {... */\n      mstore(0x40, 0x80)\n      jumpi(tag_1, lt(calldatasize, 0x04))\n      shr(0xe0, calldataload(0x00))\n      dup1\n      0x4132db8f\n      eq\n      tag_2\n      jumpi\n      dup1\n      0x6e10a8bb\n      eq\n      tag_3\n      jumpi\n      dup1\n      0xa0a1a7d7\n      eq\n      tag_4\n      jumpi\n      dup1\n      0xbb425001\n      eq\n      tag_5\n      jumpi\n      dup1\n      0xd1f3bf1d\n      eq\n      tag_6\n      jumpi\n    tag_1:\n      revert(0x00, 0x00)\n        /* \"Activities-D1/Activity3.sol\":247:474  function getEmployee()public view returns(string memory,string memory,string memory ,uint16,address payable ) {... */\n    tag_2:\n      callvalue\n      dup1\n      iszero\n      tag_7\n      jumpi\n      revert(0x00, 0x00)\n    tag_7:\n      pop\n      tag_8\n      tag_9\n      jump\t// in\n    tag_8:\n      mload(0x40)\n      tag_10\n      swap6\n      swap5\n      swap4\n      swap3\n      swap2\n      swap1\n      tag_11\n      jump\t// in\n    tag_10:\n      mload(0x40)\n      dup1\n      swap2\n      sub\n      swap1\n      return\n        /* \"Activities-D1/Activity3.sol\":929:1262  function payemp() public payable {... */\n    tag_3:\n      tag_12\n      tag_13\n      jump\t// in\n    tag_12:\n      stop\n        /* \"Activities-D1/Activity3.sol\":222:241  emp public employee */\n    tag_4:\n      callvalue\n      dup1\n      iszero\n      tag_14\n      jumpi\n      revert(0x00, 0x00)\n    tag_14:\n      pop\n      tag_15\n      tag_16\n      jump\t// in\n    tag_15:\n      mload(0x40)\n      tag_17\n      swap6\n      swap5\n      swap4\n      swap3\n      swap2\n      swap1\n      tag_11\n      jump\t// in\n    tag_17:\n      mload(0x40)\n      dup1\n      swap2\n      sub\n      swap1\n      return\n        /* \"Activities-D1/Activity3.sol\":479:798  function setEmployee(string memory _name,string memory _depart,string memory _design,uint16 _salary,address payable _paymentad) public {... */\n    tag_5:\n      callvalue\n      dup1\n      iszero\n      tag_18\n      jumpi\n      revert(0x00, 0x00)\n    tag_18:\n      pop\n      tag_19\n      0x04\n      dup1\n      calldatasize\n      sub\n      dup2\n      add\n      swap1\n      tag_20\n      swap2\n      swap1\n      tag_21\n      jump\t// in\n    tag_20:\n      tag_22\n      jump\t// in\n    tag_19:\n      stop\n        /* \"Activities-D1/Activity3.sol\":804:908  function ethTowei(uint eval) public pure returns(uint){... */\n    tag_6:\n      callvalue\n      dup1\n      iszero\n      tag_23\n      jumpi\n      revert(0x00, 0x00)\n    tag_23:\n      pop\n      tag_24\n      0x04\n      dup1\n      calldatasize\n      sub\n      dup2\n      add\n      swap1\n      tag_25\n      swap2\n      swap1\n      tag_26\n      jump\t// in\n    tag_25:\n      tag_27\n      jump\t// in\n    tag_24:\n      mload(0x40)\n      tag_28\n      swap2\n      swap1\n      tag_29\n      jump\t// in\n    tag_28:\n      mload(0x40)\n      dup1\n      swap2\n      sub\n      swap1\n      return\n        /* \"Activities-D1/Activity3.sol\":247:474  function getEmployee()public view returns(string memory,string memory,string memory ,uint16,address payable ) {... */\n    tag_9:\n        /* \"Activities-D1/Activity3.sol\":289:302  string memory */\n      0x60\n        /* \"Activities-D1/Activity3.sol\":303:316  string memory */\n      dup1\n        /* \"Activities-D1/Activity3.sol\":317:330  string memory */\n      0x60\n        /* \"Activities-D1/Activity3.sol\":332:338  uint16 */\n      0x00\n        /* \"Activities-D1/Activity3.sol\":339:354  address payable */\n      0x00\n        /* \"Activities-D1/Activity3.sol\":375:383  employee */\n      0x00\n        /* \"Activities-D1/Activity3.sol\":375:388  employee.name */\n      0x00\n      add\n        /* \"Activities-D1/Activity3.sol\":389:397  employee */\n      0x00\n        /* \"Activities-D1/Activity3.sol\":389:408  employee.department */\n      0x01\n      add\n        /* \"Activities-D1/Activity3.sol\":409:417  employee */\n      0x00\n        /* \"Activities-D1/Activity3.sol\":409:429  employee.designation */\n      0x02\n      add\n        /* \"Activities-D1/Activity3.sol\":430:438  employee */\n      0x00\n        /* \"Activities-D1/Activity3.sol\":430:445  employee.salary */\n      0x03\n      add\n      0x00\n      swap1\n      sload\n      swap1\n      0x0100\n      exp\n      swap1\n      div\n      0xffff\n      and\n        /* \"Activities-D1/Activity3.sol\":447:455  employee */\n      0x00\n        /* \"Activities-D1/Activity3.sol\":447:466  employee.paymentadd */\n      0x03\n      add\n      0x02\n      swap1\n      sload\n      swap1\n      0x0100\n      exp\n      swap1\n      div\n      0xffffffffffffffffffffffffffffffffffffffff\n      and\n        /* \"Activities-D1/Activity3.sol\":367:467  return (employee.name,employee.department,employee.designation,employee.salary, employee.paymentadd) */\n      dup5\n      dup1\n      sload\n      tag_31\n      swap1\n      tag_32\n      jump\t// in\n    tag_31:\n      dup1\n      0x1f\n      add\n      0x20\n      dup1\n      swap2\n      div\n      mul\n      0x20\n      add\n      mload(0x40)\n      swap1\n      dup2\n      add\n      0x40\n      mstore\n      dup1\n      swap3\n      swap2\n      swap1\n      dup2\n      dup2\n      mstore\n      0x20\n      add\n      dup3\n      dup1\n      sload\n      tag_33\n      swap1\n      tag_32\n      jump\t// in\n    tag_33:\n      dup1\n      iszero\n      tag_34\n      jumpi\n      dup1\n      0x1f\n      lt\n      tag_35\n      jumpi\n      0x0100\n      dup1\n      dup4\n      sload\n      div\n      mul\n      dup4\n      mstore\n      swap2\n      0x20\n      add\n      swap2\n      jump(tag_34)\n    tag_35:\n      dup3\n      add\n      swap2\n      swap1\n      0x00\n      mstore\n      keccak256(0x00, 0x20)\n      swap1\n    tag_36:\n      dup2\n      sload\n      dup2\n      mstore\n      swap1\n      0x01\n      add\n      swap1\n      0x20\n      add\n      dup1\n      dup4\n      gt\n      tag_36\n      jumpi\n      dup3\n      swap1\n      sub\n      0x1f\n      and\n      dup3\n      add\n      swap2\n    tag_34:\n      pop\n      pop\n      pop\n      pop\n      pop\n      swap5\n      pop\n      dup4\n      dup1\n      sload\n      tag_37\n      swap1\n      tag_32\n      jump\t// in\n    tag_37:\n      dup1\n      0x1f\n      add\n      0x20\n      dup1\n      swap2\n      div\n      mul\n      0x20\n      add\n      mload(0x40)\n      swap1\n      dup2\n      add\n      0x40\n      mstore\n      dup1\n      swap3\n      swap2\n      swap1\n      dup2\n      dup2\n      mstore\n      0x20\n      add\n      dup3\n      dup1\n      sload\n      tag_38\n      swap1\n      tag_32\n      jump\t// in\n    tag_38:\n      dup1\n      iszero\n      tag_39\n      jumpi\n      dup1\n      0x1f\n      lt\n      tag_40\n      jumpi\n      0x0100\n      dup1\n      dup4\n      sload\n      div\n      mul\n      dup4\n      mstore\n      swap2\n      0x20\n      add\n      swap2\n      jump(tag_39)\n    tag_40:\n      dup3\n      add\n      swap2\n      swap1\n      0x00\n      mstore\n      keccak256(0x00, 0x20)\n      swap1\n    tag_41:\n      dup2\n      sload\n      dup2\n      mstore\n      swap1\n      0x01\n      add\n      swap1\n      0x20\n      add\n      dup1\n      dup4\n      gt\n      tag_41\n      jumpi\n      dup3\n      swap1\n      sub\n      0x1f\n      and\n      dup3\n      add\n      swap2\n    tag_39:\n      pop\n      pop\n      pop\n      pop\n      pop\n      swap4\n      pop\n      dup3\n      dup1\n      sload\n      tag_42\n      swap1\n      tag_32\n      jump\t// in\n    tag_42:\n      dup1\n      0x1f\n      add\n      0x20\n      dup1\n      swap2\n      div\n      mul\n      0x20\n      add\n      mload(0x40)\n      swap1\n      dup2\n      add\n      0x40\n      mstore\n      dup1\n      swap3\n      swap2\n      swap1\n      dup2\n      dup2\n      mstore\n      0x20\n      add\n      dup3\n      dup1\n      sload\n      tag_43\n      swap1\n      tag_32\n      jump\t// in\n    tag_43:\n      dup1\n      iszero\n      tag_44\n      jumpi\n      dup1\n      0x1f\n      lt\n      tag_45\n      jumpi\n      0x0100\n      dup1\n      dup4\n      sload\n      div\n      mul\n      dup4\n      mstore\n      swap2\n      0x20\n      add\n      swap2\n      jump(tag_44)\n    tag_45:\n      dup3\n      add\n      swap2\n      swap1\n      0x00\n      mstore\n      keccak256(0x00, 0x20)\n      swap1\n    tag_46:\n      dup2\n      sload\n      dup2\n      mstore\n      swap1\n      0x01\n      add\n      swap1\n      0x20\n      add\n      dup1\n      dup4\n      gt\n      tag_46\n      jumpi\n      dup3\n      swap1\n      sub\n      0x1f\n      and\n      dup3\n      add\n      swap2\n    tag_44:\n      pop\n      pop\n      pop\n      pop\n      pop\n      swap3\n      pop\n      swap5\n      pop\n      swap5\n      pop\n      swap5\n      pop\n      swap5\n      pop\n      swap5\n      pop\n        /* \"Activities-D1/Activity3.sol\":247:474  function getEmployee()public view returns(string memory,string memory,string memory ,uint16,address payable ) {... */\n      swap1\n      swap2\n      swap3\n      swap4\n      swap5\n      jump\t// out\n        /* \"Activities-D1/Activity3.sol\":929:1262  function payemp() public payable {... */\n    tag_13:\n        /* \"Activities-D1/Activity3.sol\":976:984  uint sal */\n      0x00\n        /* \"Activities-D1/Activity3.sol\":986:1011  ethTowei(employee.salary) */\n      tag_48\n        /* \"Activities-D1/Activity3.sol\":995:1003  employee */\n      0x00\n        /* \"Activities-D1/Activity3.sol\":995:1010  employee.salary */\n      0x03\n      add\n      0x00\n      swap1\n      sload\n      swap1\n      0x0100\n      exp\n      swap1\n      div\n      0xffff\n      and\n        /* \"Activities-D1/Activity3.sol\":986:1011  ethTowei(employee.salary) */\n      0xffff\n      and\n        /* \"Activities-D1/Activity3.sol\":986:994  ethTowei */\n      tag_27\n        /* \"Activities-D1/Activity3.sol\":986:1011  ethTowei(employee.salary) */\n      jump\t// in\n    tag_48:\n        /* \"Activities-D1/Activity3.sol\":976:1011  uint sal =ethTowei(employee.salary) */\n      swap1\n      pop\n        /* \"Activities-D1/Activity3.sol\":1058:1061  sal */\n      dup1\n        /* \"Activities-D1/Activity3.sol\":1045:1054  msg.value */\n      callvalue\n        /* \"Activities-D1/Activity3.sol\":1045:1061  msg.value >= sal */\n      lt\n      iszero\n        /* \"Activities-D1/Activity3.sol\":1037:1093  require(msg.value >= sal, \"Insufficient payment amount\") */\n      tag_49\n      jumpi\n      mload(0x40)\n      0x08c379a000000000000000000000000000000000000000000000000000000000\n      dup2\n      mstore\n      0x04\n      add\n      tag_50\n      swap1\n      tag_51\n      jump\t// in\n    tag_50:\n      mload(0x40)\n      dup1\n      swap2\n      sub\n      swap1\n      revert\n    tag_49:\n        /* \"Activities-D1/Activity3.sol\":1158:1159  0 */\n      0x00\n        /* \"Activities-D1/Activity3.sol\":1127:1160  employee.paymentadd != address(0) */\n      0xffffffffffffffffffffffffffffffffffffffff\n      and\n        /* \"Activities-D1/Activity3.sol\":1127:1135  employee */\n      0x00\n        /* \"Activities-D1/Activity3.sol\":1127:1146  employee.paymentadd */\n      0x03\n      add\n      0x02\n      swap1\n      sload\n      swap1\n      0x0100\n      exp\n      swap1\n      div\n      0xffffffffffffffffffffffffffffffffffffffff\n      and\n        /* \"Activities-D1/Activity3.sol\":1127:1160  employee.paymentadd != address(0) */\n      0xffffffffffffffffffffffffffffffffffffffff\n      and\n      sub\n        /* \"Activities-D1/Activity3.sol\":1119:1188  require(employee.paymentadd != address(0), \"Employee wallet not set\") */\n      tag_52\n      jumpi\n      mload(0x40)\n      0x08c379a000000000000000000000000000000000000000000000000000000000\n      dup2\n      mstore\n      0x04\n      add\n      tag_53\n      swap1\n      tag_54\n      jump\t// in\n    tag_53:\n      mload(0x40)\n      dup1\n      swap2\n      sub\n      swap1\n      revert\n    tag_52:\n        /* \"Activities-D1/Activity3.sol\":1214:1222  employee */\n      0x00\n        /* \"Activities-D1/Activity3.sol\":1214:1233  employee.paymentadd */\n      0x03\n      add\n      0x02\n      swap1\n      sload\n      swap1\n      0x0100\n      exp\n      swap1\n      div\n      0xffffffffffffffffffffffffffffffffffffffff\n      and\n        /* \"Activities-D1/Activity3.sol\":1214:1242  employee.paymentadd.transfer */\n      0xffffffffffffffffffffffffffffffffffffffff\n      and\n        /* \"Activities-D1/Activity3.sol\":1214:1247  employee.paymentadd.transfer(sal) */\n      0x08fc\n        /* \"Activities-D1/Activity3.sol\":1243:1246  sal */\n      dup3\n        /* \"Activities-D1/Activity3.sol\":1214:1247  employee.paymentadd.transfer(sal) */\n      swap1\n      dup2\n      iszero\n      mul\n      swap1\n      mload(0x40)\n      0x00\n      mload(0x40)\n      dup1\n      dup4\n      sub\n      dup2\n      dup6\n      dup9\n      dup9\n      call\n      swap4\n      pop\n      pop\n      pop\n      pop\n      iszero\n      dup1\n      iszero\n      tag_56\n      jumpi\n      returndatacopy(0x00, 0x00, returndatasize)\n      revert(0x00, returndatasize)\n    tag_56:\n      pop\n        /* \"Activities-D1/Activity3.sol\":962:1262  {... */\n      pop\n        /* \"Activities-D1/Activity3.sol\":929:1262  function payemp() public payable {... */\n      jump\t// out\n        /* \"Activities-D1/Activity3.sol\":222:241  emp public employee */\n    tag_16:\n      0x00\n      dup1\n      0x00\n      add\n      dup1\n      sload\n      tag_57\n      swap1\n      tag_32\n      jump\t// in\n    tag_57:\n      dup1\n      0x1f\n      add\n      0x20\n      dup1\n      swap2\n      div\n      mul\n      0x20\n      add\n      mload(0x40)\n      swap1\n      dup2\n      add\n      0x40\n      mstore\n      dup1\n      swap3\n      swap2\n      swap1\n      dup2\n      dup2\n      mstore\n      0x20\n      add\n      dup3\n      dup1\n      sload\n      tag_58\n      swap1\n      tag_32\n      jump\t// in\n    tag_58:\n      dup1\n      iszero\n      tag_59\n      jumpi\n      dup1\n      0x1f\n      lt\n      tag_60\n      jumpi\n      0x0100\n      dup1\n      dup4\n      sload\n      div\n      mul\n      dup4\n      mstore\n      swap2\n      0x20\n      add\n      swap2\n      jump(tag_59)\n    tag_60:\n      dup3\n      add\n      swap2\n      swap1\n      0x00\n      mstore\n      keccak256(0x00, 0x20)\n      swap1\n    tag_61:\n      dup2\n      sload\n      dup2\n      mstore\n      swap1\n      0x01\n      add\n      swap1\n      0x20\n      add\n      dup1\n      dup4\n      gt\n      tag_61\n      jumpi\n      dup3\n      swap1\n      sub\n      0x1f\n      and\n      dup3\n      add\n      swap2\n    tag_59:\n      pop\n      pop\n      pop\n      pop\n      pop\n      swap1\n      dup1\n      0x01\n      add\n      dup1\n      sload\n      tag_62\n      swap1\n      tag_32\n      jump\t// in\n    tag_62:\n      dup1\n      0x1f\n      add\n      0x20\n      dup1\n      swap2\n      div\n      mul\n      0x20\n      add\n      mload(0x40)\n      swap1\n      dup2\n      add\n      0x40\n      mstore\n      dup1\n      swap3\n      swap2\n      swap1\n      dup2\n      dup2\n      mstore\n      0x20\n      add\n      dup3\n      dup1\n      sload\n      tag_63\n      swap1\n      tag_32\n      jump\t// in\n    tag_63:\n      dup1\n      iszero\n      tag_64\n      jumpi\n      dup1\n      0x1f\n      lt\n      tag_65\n      jumpi\n      0x0100\n      dup1\n      dup4\n      sload\n      div\n      mul\n      dup4\n      mstore\n      swap2\n      0x20\n      add\n      swap2\n      jump(tag_64)\n    tag_65:\n      dup3\n      add\n      swap2\n      swap1\n      0x00\n      mstore\n      keccak256(0x00, 0x20)\n      swap1\n    tag_66:\n      dup2\n      sload\n      dup2\n      mstore\n      swap1\n      0x01\n      add\n      swap1\n      0x20\n      add\n      dup1\n      dup4\n      gt\n      tag_66\n      jumpi\n      dup3\n      swap1\n      sub\n      0x1f\n      and\n      dup3\n      add\n      swap2\n    tag_64:\n      pop\n      pop\n      pop\n      pop\n      pop\n      swap1\n      dup1\n      0x02\n      add\n      dup1\n      sload\n      tag_67\n      swap1\n      tag_32\n      jump\t// in\n    tag_67:\n      dup1\n      0x1f\n      add\n      0x20\n      dup1\n      swap2\n      div\n      mul\n      0x20\n      add\n      mload(0x40)\n      swap1\n      dup2\n      add\n      0x40\n      mstore\n      dup1\n      swap3\n      swap2\n      swap1\n      dup2\n      dup2\n      mstore\n      0x20\n      add\n      dup3\n      dup1\n      sload\n      tag_68\n      swap1\n      tag_32\n      jump\t// in\n    tag_68:\n      dup1\n      iszero\n      tag_69\n      jumpi\n      dup1\n      0x1f\n      lt\n      tag_70\n      jumpi\n      0x0100\n      dup1\n      dup4\n      sload\n      div\n      mul\n      dup4\n      mstore\n      swap2\n      0x20\n      add\n      swap2\n      jump(tag_69)\n    tag_70:\n      dup3\n      add\n      swap2\n      swap1\n      0x00\n      mstore\n      keccak256(0x00, 0x20)\n      swap1\n    tag_71:\n      dup2\n      sload\n      dup2\n      mstore\n      swap1\n      0x01\n      add\n      swap1\n      0x20\n      add\n      dup1\n      dup4\n      gt\n      tag_71\n      jumpi\n      dup3\n      swap1\n      sub\n      0x1f\n      and\n      dup3\n      add\n      swap2\n    tag_69:\n      pop\n      pop\n      pop\n      pop\n      pop\n      swap1\n      dup1\n      0x03\n      add\n      0x00\n      swap1\n      sload\n      swap1\n      0x0100\n      exp\n      swap1\n      div\n      0xffff\n      and\n      swap1\n      dup1\n      0x03\n      add\n      0x02\n      swap1\n      sload\n      swap1\n      0x0100\n      exp\n      swap1\n      div\n      0xffffffffffffffffffffffffffffffffffffffff\n      and\n      swap1\n      pop\n      dup6\n      jump\t// out\n        /* \"Activities-D1/Activity3.sol\":479:798  function setEmployee(string memory _name,string memory _depart,string memory _design,uint16 _salary,address payable _paymentad) public {... */\n    tag_22:\n        /* \"Activities-D1/Activity3.sol\":638:643  _name */\n      dup5\n        /* \"Activities-D1/Activity3.sol\":624:632  employee */\n      0x00\n        /* \"Activities-D1/Activity3.sol\":624:637  employee.name */\n      0x00\n      add\n        /* \"Activities-D1/Activity3.sol\":624:643  employee.name=_name */\n      swap1\n      dup2\n      tag_73\n      swap2\n      swap1\n      tag_74\n      jump\t// in\n    tag_73:\n      pop\n        /* \"Activities-D1/Activity3.sol\":673:680  _depart */\n      dup4\n        /* \"Activities-D1/Activity3.sol\":653:661  employee */\n      0x00\n        /* \"Activities-D1/Activity3.sol\":653:672  employee.department */\n      0x01\n      add\n        /* \"Activities-D1/Activity3.sol\":653:680  employee.department=_depart */\n      swap1\n      dup2\n      tag_75\n      swap2\n      swap1\n      tag_74\n      jump\t// in\n    tag_75:\n      pop\n        /* \"Activities-D1/Activity3.sol\":711:718  _design */\n      dup3\n        /* \"Activities-D1/Activity3.sol\":690:698  employee */\n      0x00\n        /* \"Activities-D1/Activity3.sol\":690:710  employee.designation */\n      0x02\n      add\n        /* \"Activities-D1/Activity3.sol\":690:718  employee.designation=_design */\n      swap1\n      dup2\n      tag_76\n      swap2\n      swap1\n      tag_74\n      jump\t// in\n    tag_76:\n      pop\n        /* \"Activities-D1/Activity3.sol\":744:751  _salary */\n      dup2\n        /* \"Activities-D1/Activity3.sol\":728:736  employee */\n      0x00\n        /* \"Activities-D1/Activity3.sol\":728:743  employee.salary */\n      0x03\n      add\n      0x00\n        /* \"Activities-D1/Activity3.sol\":728:751  employee.salary=_salary */\n      0x0100\n      exp\n      dup2\n      sload\n      dup2\n      0xffff\n      mul\n      not\n      and\n      swap1\n      dup4\n      0xffff\n      and\n      mul\n      or\n      swap1\n      sstore\n      pop\n        /* \"Activities-D1/Activity3.sol\":781:791  _paymentad */\n      dup1\n        /* \"Activities-D1/Activity3.sol\":761:769  employee */\n      0x00\n        /* \"Activities-D1/Activity3.sol\":761:780  employee.paymentadd */\n      0x03\n      add\n      0x02\n        /* \"Activities-D1/Activity3.sol\":761:791  employee.paymentadd=_paymentad */\n      0x0100\n      exp\n      dup2\n      sload\n      dup2\n      0xffffffffffffffffffffffffffffffffffffffff\n      mul\n      not\n      and\n      swap1\n      dup4\n      0xffffffffffffffffffffffffffffffffffffffff\n      and\n      mul\n      or\n      swap1\n      sstore\n      pop\n        /* \"Activities-D1/Activity3.sol\":479:798  function setEmployee(string memory _name,string memory _depart,string memory _design,uint16 _salary,address payable _paymentad) public {... */\n      pop\n      pop\n      pop\n      pop\n      pop\n      jump\t// out\n        /* \"Activities-D1/Activity3.sol\":804:908  function ethTowei(uint eval) public pure returns(uint){... */\n    tag_27:\n        /* \"Activities-D1/Activity3.sol\":853:857  uint */\n      0x00\n        /* \"Activities-D1/Activity3.sol\":880:899  1000000000000000000 */\n      0x0de0b6b3a7640000\n        /* \"Activities-D1/Activity3.sol\":875:879  eval */\n      dup3\n        /* \"Activities-D1/Activity3.sol\":875:899  eval*1000000000000000000 */\n      tag_78\n      swap2\n      swap1\n      tag_79\n      jump\t// in\n    tag_78:\n        /* \"Activities-D1/Activity3.sol\":868:900  return(eval*1000000000000000000) */\n      swap1\n      pop\n        /* \"Activities-D1/Activity3.sol\":804:908  function ethTowei(uint eval) public pure returns(uint){... */\n      swap2\n      swap1\n      pop\n      jump\t// out\n        /* \"#utility.yul\":7:106   */\n    tag_80:\n        /* \"#utility.yul\":59:65   */\n      0x00\n        /* \"#utility.yul\":93:98   */\n      dup2\n        /* \"#utility.yul\":87:99   */\n      mload\n        /* \"#utility.yul\":77:99   */\n      swap1\n      pop\n        /* \"#utility.yul\":7:106   */\n      swap2\n      swap1\n      pop\n      jump\t// out\n        /* \"#utility.yul\":112:281   */\n    tag_81:\n        /* \"#utility.yul\":196:207   */\n      0x00\n        /* \"#utility.yul\":230:236   */\n      dup3\n        /* \"#utility.yul\":225:228   */\n      dup3\n        /* \"#utility.yul\":218:237   */\n      mstore\n        /* \"#utility.yul\":270:274   */\n      0x20\n        /* \"#utility.yul\":265:268   */\n      dup3\n        /* \"#utility.yul\":261:275   */\n      add\n        /* \"#utility.yul\":246:275   */\n      swap1\n      pop\n        /* \"#utility.yul\":112:281   */\n      swap3\n      swap2\n      pop\n      pop\n      jump\t// out\n        /* \"#utility.yul\":287:426   */\n    tag_82:\n        /* \"#utility.yul\":376:382   */\n      dup3\n        /* \"#utility.yul\":371:374   */\n      dup2\n        /* \"#utility.yul\":366:369   */\n      dup4\n        /* \"#utility.yul\":360:383   */\n      mcopy\n        /* \"#utility.yul\":417:418   */\n      0x00\n        /* \"#utility.yul\":408:414   */\n      dup4\n        /* \"#utility.yul\":403:406   */\n      dup4\n        /* \"#utility.yul\":399:415   */\n      add\n        /* \"#utility.yul\":392:419   */\n      mstore\n        /* \"#utility.yul\":287:426   */\n      pop\n      pop\n      pop\n      jump\t// out\n        /* \"#utility.yul\":432:534   */\n    tag_83:\n        /* \"#utility.yul\":473:479   */\n      0x00\n        /* \"#utility.yul\":524:526   */\n      0x1f\n        /* \"#utility.yul\":520:527   */\n      not\n        /* \"#utility.yul\":515:517   */\n      0x1f\n        /* \"#utility.yul\":508:513   */\n      dup4\n        /* \"#utility.yul\":504:518   */\n      add\n        /* \"#utility.yul\":500:528   */\n      and\n        /* \"#utility.yul\":490:528   */\n      swap1\n      pop\n        /* \"#utility.yul\":432:534   */\n      swap2\n      swap1\n      pop\n      jump\t// out\n        /* \"#utility.yul\":540:917   */\n    tag_84:\n        /* \"#utility.yul\":628:631   */\n      0x00\n        /* \"#utility.yul\":656:695   */\n      tag_137\n        /* \"#utility.yul\":689:694   */\n      dup3\n        /* \"#utility.yul\":656:695   */\n      tag_80\n      jump\t// in\n    tag_137:\n        /* \"#utility.yul\":711:782   */\n      tag_138\n        /* \"#utility.yul\":775:781   */\n      dup2\n        /* \"#utility.yul\":770:773   */\n      dup6\n        /* \"#utility.yul\":711:782   */\n      tag_81\n      jump\t// in\n    tag_138:\n        /* \"#utility.yul\":704:782   */\n      swap4\n      pop\n        /* \"#utility.yul\":791:856   */\n      tag_139\n        /* \"#utility.yul\":849:855   */\n      dup2\n        /* \"#utility.yul\":844:847   */\n      dup6\n        /* \"#utility.yul\":837:841   */\n      0x20\n        /* \"#utility.yul\":830:835   */\n      dup7\n        /* \"#utility.yul\":826:842   */\n      add\n        /* \"#utility.yul\":791:856   */\n      tag_82\n      jump\t// in\n    tag_139:\n        /* \"#utility.yul\":881:910   */\n      tag_140\n        /* \"#utility.yul\":903:909   */\n      dup2\n        /* \"#utility.yul\":881:910   */\n      tag_83\n      jump\t// in\n    tag_140:\n        /* \"#utility.yul\":876:879   */\n      dup5\n        /* \"#utility.yul\":872:911   */\n      add\n        /* \"#utility.yul\":865:911   */\n      swap2\n      pop\n        /* \"#utility.yul\":632:917   */\n      pop\n        /* \"#utility.yul\":540:917   */\n      swap3\n      swap2\n      pop\n      pop\n      jump\t// out\n        /* \"#utility.yul\":923:1012   */\n    tag_85:\n        /* \"#utility.yul\":959:966   */\n      0x00\n        /* \"#utility.yul\":999:1005   */\n      0xffff\n        /* \"#utility.yul\":992:997   */\n      dup3\n        /* \"#utility.yul\":988:1006   */\n      and\n        /* \"#utility.yul\":977:1006   */\n      swap1\n      pop\n        /* \"#utility.yul\":923:1012   */\n      swap2\n      swap1\n      pop\n      jump\t// out\n        /* \"#utility.yul\":1018:1133   */\n    tag_86:\n        /* \"#utility.yul\":1103:1126   */\n      tag_143\n        /* \"#utility.yul\":1120:1125   */\n      dup2\n        /* \"#utility.yul\":1103:1126   */\n      tag_85\n      jump\t// in\n    tag_143:\n        /* \"#utility.yul\":1098:1101   */\n      dup3\n        /* \"#utility.yul\":1091:1127   */\n      mstore\n        /* \"#utility.yul\":1018:1133   */\n      pop\n      pop\n      jump\t// out\n        /* \"#utility.yul\":1139:1265   */\n    tag_87:\n        /* \"#utility.yul\":1176:1183   */\n      0x00\n        /* \"#utility.yul\":1216:1258   */\n      0xffffffffffffffffffffffffffffffffffffffff\n        /* \"#utility.yul\":1209:1214   */\n      dup3\n        /* \"#utility.yul\":1205:1259   */\n      and\n        /* \"#utility.yul\":1194:1259   */\n      swap1\n      pop\n        /* \"#utility.yul\":1139:1265   */\n      swap2\n      swap1\n      pop\n      jump\t// out\n        /* \"#utility.yul\":1271:1375   */\n    tag_88:\n        /* \"#utility.yul\":1316:1323   */\n      0x00\n        /* \"#utility.yul\":1345:1369   */\n      tag_146\n        /* \"#utility.yul\":1363:1368   */\n      dup3\n        /* \"#utility.yul\":1345:1369   */\n      tag_87\n      jump\t// in\n    tag_146:\n        /* \"#utility.yul\":1334:1369   */\n      swap1\n      pop\n        /* \"#utility.yul\":1271:1375   */\n      swap2\n      swap1\n      pop\n      jump\t// out\n        /* \"#utility.yul\":1381:1523   */\n    tag_89:\n        /* \"#utility.yul\":1484:1516   */\n      tag_148\n        /* \"#utility.yul\":1510:1515   */\n      dup2\n        /* \"#utility.yul\":1484:1516   */\n      tag_88\n      jump\t// in\n    tag_148:\n        /* \"#utility.yul\":1479:1482   */\n      dup3\n        /* \"#utility.yul\":1472:1517   */\n      mstore\n        /* \"#utility.yul\":1381:1523   */\n      pop\n      pop\n      jump\t// out\n        /* \"#utility.yul\":1529:2494   */\n    tag_11:\n        /* \"#utility.yul\":1808:1812   */\n      0x00\n        /* \"#utility.yul\":1846:1849   */\n      0xa0\n        /* \"#utility.yul\":1835:1844   */\n      dup3\n        /* \"#utility.yul\":1831:1850   */\n      add\n        /* \"#utility.yul\":1823:1850   */\n      swap1\n      pop\n        /* \"#utility.yul\":1896:1905   */\n      dup2\n        /* \"#utility.yul\":1890:1894   */\n      dup2\n        /* \"#utility.yul\":1886:1906   */\n      sub\n        /* \"#utility.yul\":1882:1883   */\n      0x00\n        /* \"#utility.yul\":1871:1880   */\n      dup4\n        /* \"#utility.yul\":1867:1884   */\n      add\n        /* \"#utility.yul\":1860:1907   */\n      mstore\n        /* \"#utility.yul\":1924:2002   */\n      tag_150\n        /* \"#utility.yul\":1997:2001   */\n      dup2\n        /* \"#utility.yul\":1988:1994   */\n      dup9\n        /* \"#utility.yul\":1924:2002   */\n      tag_84\n      jump\t// in\n    tag_150:\n        /* \"#utility.yul\":1916:2002   */\n      swap1\n      pop\n        /* \"#utility.yul\":2049:2058   */\n      dup2\n        /* \"#utility.yul\":2043:2047   */\n      dup2\n        /* \"#utility.yul\":2039:2059   */\n      sub\n        /* \"#utility.yul\":2034:2036   */\n      0x20\n        /* \"#utility.yul\":2023:2032   */\n      dup4\n        /* \"#utility.yul\":2019:2037   */\n      add\n        /* \"#utility.yul\":2012:2060   */\n      mstore\n        /* \"#utility.yul\":2077:2155   */\n      tag_151\n        /* \"#utility.yul\":2150:2154   */\n      dup2\n        /* \"#utility.yul\":2141:2147   */\n      dup8\n        /* \"#utility.yul\":2077:2155   */\n      tag_84\n      jump\t// in\n    tag_151:\n        /* \"#utility.yul\":2069:2155   */\n      swap1\n      pop\n        /* \"#utility.yul\":2202:2211   */\n      dup2\n        /* \"#utility.yul\":2196:2200   */\n      dup2\n        /* \"#utility.yul\":2192:2212   */\n      sub\n        /* \"#utility.yul\":2187:2189   */\n      0x40\n        /* \"#utility.yul\":2176:2185   */\n      dup4\n        /* \"#utility.yul\":2172:2190   */\n      add\n        /* \"#utility.yul\":2165:2213   */\n      mstore\n        /* \"#utility.yul\":2230:2308   */\n      tag_152\n        /* \"#utility.yul\":2303:2307   */\n      dup2\n        /* \"#utility.yul\":2294:2300   */\n      dup7\n        /* \"#utility.yul\":2230:2308   */\n      tag_84\n      jump\t// in\n    tag_152:\n        /* \"#utility.yul\":2222:2308   */\n      swap1\n      pop\n        /* \"#utility.yul\":2318:2388   */\n      tag_153\n        /* \"#utility.yul\":2384:2386   */\n      0x60\n        /* \"#utility.yul\":2373:2382   */\n      dup4\n        /* \"#utility.yul\":2369:2387   */\n      add\n        /* \"#utility.yul\":2360:2366   */\n      dup6\n        /* \"#utility.yul\":2318:2388   */\n      tag_86\n      jump\t// in\n    tag_153:\n        /* \"#utility.yul\":2398:2487   */\n      tag_154\n        /* \"#utility.yul\":2482:2485   */\n      0x80\n        /* \"#utility.yul\":2471:2480   */\n      dup4\n        /* \"#utility.yul\":2467:2486   */\n      add\n        /* \"#utility.yul\":2458:2464   */\n      dup5\n        /* \"#utility.yul\":2398:2487   */\n      tag_89\n      jump\t// in\n    tag_154:\n        /* \"#utility.yul\":1529:2494   */\n      swap7\n      swap6\n      pop\n      pop\n      pop\n      pop\n      pop\n      pop\n      jump\t// out\n        /* \"#utility.yul\":2500:2575   */\n    tag_90:\n        /* \"#utility.yul\":2533:2539   */\n      0x00\n        /* \"#utility.yul\":2566:2568   */\n      0x40\n        /* \"#utility.yul\":2560:2569   */\n      mload\n        /* \"#utility.yul\":2550:2569   */\n      swap1\n      pop\n        /* \"#utility.yul\":2500:2575   */\n      swap1\n      jump\t// out\n        /* \"#utility.yul\":2581:2698   */\n    tag_91:\n        /* \"#utility.yul\":2690:2691   */\n      0x00\n        /* \"#utility.yul\":2687:2688   */\n      0x00\n        /* \"#utility.yul\":2680:2692   */\n      revert\n        /* \"#utility.yul\":2704:2821   */\n    tag_92:\n        /* \"#utility.yul\":2813:2814   */\n      0x00\n        /* \"#utility.yul\":2810:2811   */\n      0x00\n        /* \"#utility.yul\":2803:2815   */\n      revert\n        /* \"#utility.yul\":2827:2944   */\n    tag_93:\n        /* \"#utility.yul\":2936:2937   */\n      0x00\n        /* \"#utility.yul\":2933:2934   */\n      0x00\n        /* \"#utility.yul\":2926:2938   */\n      revert\n        /* \"#utility.yul\":2950:3067   */\n    tag_94:\n        /* \"#utility.yul\":3059:3060   */\n      0x00\n        /* \"#utility.yul\":3056:3057   */\n      0x00\n        /* \"#utility.yul\":3049:3061   */\n      revert\n        /* \"#utility.yul\":3073:3253   */\n    tag_95:\n        /* \"#utility.yul\":3121:3198   */\n      0x4e487b7100000000000000000000000000000000000000000000000000000000\n        /* \"#utility.yul\":3118:3119   */\n      0x00\n        /* \"#utility.yul\":3111:3199   */\n      mstore\n        /* \"#utility.yul\":3218:3222   */\n      0x41\n        /* \"#utility.yul\":3215:3216   */\n      0x04\n        /* \"#utility.yul\":3208:3223   */\n      mstore\n        /* \"#utility.yul\":3242:3246   */\n      0x24\n        /* \"#utility.yul\":3239:3240   */\n      0x00\n        /* \"#utility.yul\":3232:3247   */\n      revert\n        /* \"#utility.yul\":3259:3540   */\n    tag_96:\n        /* \"#utility.yul\":3342:3369   */\n      tag_162\n        /* \"#utility.yul\":3364:3368   */\n      dup3\n        /* \"#utility.yul\":3342:3369   */\n      tag_83\n      jump\t// in\n    tag_162:\n        /* \"#utility.yul\":3334:3340   */\n      dup2\n        /* \"#utility.yul\":3330:3370   */\n      add\n        /* \"#utility.yul\":3472:3478   */\n      dup2\n        /* \"#utility.yul\":3460:3470   */\n      dup2\n        /* \"#utility.yul\":3457:3479   */\n      lt\n        /* \"#utility.yul\":3436:3454   */\n      0xffffffffffffffff\n        /* \"#utility.yul\":3424:3434   */\n      dup3\n        /* \"#utility.yul\":3421:3455   */\n      gt\n        /* \"#utility.yul\":3418:3480   */\n      or\n        /* \"#utility.yul\":3415:3503   */\n      iszero\n      tag_163\n      jumpi\n        /* \"#utility.yul\":3483:3501   */\n      tag_164\n      tag_95\n      jump\t// in\n    tag_164:\n        /* \"#utility.yul\":3415:3503   */\n    tag_163:\n        /* \"#utility.yul\":3523:3533   */\n      dup1\n        /* \"#utility.yul\":3519:3521   */\n      0x40\n        /* \"#utility.yul\":3512:3534   */\n      mstore\n        /* \"#utility.yul\":3302:3540   */\n      pop\n        /* \"#utility.yul\":3259:3540   */\n      pop\n      pop\n      jump\t// out\n        /* \"#utility.yul\":3546:3675   */\n    tag_97:\n        /* \"#utility.yul\":3580:3586   */\n      0x00\n        /* \"#utility.yul\":3607:3627   */\n      tag_166\n      tag_90\n      jump\t// in\n    tag_166:\n        /* \"#utility.yul\":3597:3627   */\n      swap1\n      pop\n        /* \"#utility.yul\":3636:3669   */\n      tag_167\n        /* \"#utility.yul\":3664:3668   */\n      dup3\n        /* \"#utility.yul\":3656:3662   */\n      dup3\n        /* \"#utility.yul\":3636:3669   */\n      tag_96\n      jump\t// in\n    tag_167:\n        /* \"#utility.yul\":3546:3675   */\n      swap2\n      swap1\n      pop\n      jump\t// out\n        /* \"#utility.yul\":3681:3989   */\n    tag_98:\n        /* \"#utility.yul\":3743:3747   */\n      0x00\n        /* \"#utility.yul\":3833:3851   */\n      0xffffffffffffffff\n        /* \"#utility.yul\":3825:3831   */\n      dup3\n        /* \"#utility.yul\":3822:3852   */\n      gt\n        /* \"#utility.yul\":3819:3875   */\n      iszero\n      tag_169\n      jumpi\n        /* \"#utility.yul\":3855:3873   */\n      tag_170\n      tag_95\n      jump\t// in\n    tag_170:\n        /* \"#utility.yul\":3819:3875   */\n    tag_169:\n        /* \"#utility.yul\":3893:3922   */\n      tag_171\n        /* \"#utility.yul\":3915:3921   */\n      dup3\n        /* \"#utility.yul\":3893:3922   */\n      tag_83\n      jump\t// in\n    tag_171:\n        /* \"#utility.yul\":3885:3922   */\n      swap1\n      pop\n        /* \"#utility.yul\":3977:3981   */\n      0x20\n        /* \"#utility.yul\":3971:3975   */\n      dup2\n        /* \"#utility.yul\":3967:3982   */\n      add\n        /* \"#utility.yul\":3959:3982   */\n      swap1\n      pop\n        /* \"#utility.yul\":3681:3989   */\n      swap2\n      swap1\n      pop\n      jump\t// out\n        /* \"#utility.yul\":3995:4143   */\n    tag_99:\n        /* \"#utility.yul\":4093:4099   */\n      dup3\n        /* \"#utility.yul\":4088:4091   */\n      dup2\n        /* \"#utility.yul\":4083:4086   */\n      dup4\n        /* \"#utility.yul\":4070:4100   */\n      calldatacopy\n        /* \"#utility.yul\":4134:4135   */\n      0x00\n        /* \"#utility.yul\":4125:4131   */\n      dup4\n        /* \"#utility.yul\":4120:4123   */\n      dup4\n        /* \"#utility.yul\":4116:4132   */\n      add\n        /* \"#utility.yul\":4109:4136   */\n      mstore\n        /* \"#utility.yul\":3995:4143   */\n      pop\n      pop\n      pop\n      jump\t// out\n        /* \"#utility.yul\":4149:4574   */\n    tag_100:\n        /* \"#utility.yul\":4227:4232   */\n      0x00\n        /* \"#utility.yul\":4252:4318   */\n      tag_174\n        /* \"#utility.yul\":4268:4317   */\n      tag_175\n        /* \"#utility.yul\":4310:4316   */\n      dup5\n        /* \"#utility.yul\":4268:4317   */\n      tag_98\n      jump\t// in\n    tag_175:\n        /* \"#utility.yul\":4252:4318   */\n      tag_97\n      jump\t// in\n    tag_174:\n        /* \"#utility.yul\":4243:4318   */\n      swap1\n      pop\n        /* \"#utility.yul\":4341:4347   */\n      dup3\n        /* \"#utility.yul\":4334:4339   */\n      dup2\n        /* \"#utility.yul\":4327:4348   */\n      mstore\n        /* \"#utility.yul\":4379:4383   */\n      0x20\n        /* \"#utility.yul\":4372:4377   */\n      dup2\n        /* \"#utility.yul\":4368:4384   */\n      add\n        /* \"#utility.yul\":4417:4420   */\n      dup5\n        /* \"#utility.yul\":4408:4414   */\n      dup5\n        /* \"#utility.yul\":4403:4406   */\n      dup5\n        /* \"#utility.yul\":4399:4415   */\n      add\n        /* \"#utility.yul\":4396:4421   */\n      gt\n        /* \"#utility.yul\":4393:4505   */\n      iszero\n      tag_176\n      jumpi\n        /* \"#utility.yul\":4424:4503   */\n      tag_177\n      tag_94\n      jump\t// in\n    tag_177:\n        /* \"#utility.yul\":4393:4505   */\n    tag_176:\n        /* \"#utility.yul\":4514:4568   */\n      tag_178\n        /* \"#utility.yul\":4561:4567   */\n      dup5\n        /* \"#utility.yul\":4556:4559   */\n      dup3\n        /* \"#utility.yul\":4551:4554   */\n      dup6\n        /* \"#utility.yul\":4514:4568   */\n      tag_99\n      jump\t// in\n    tag_178:\n        /* \"#utility.yul\":4233:4574   */\n      pop\n        /* \"#utility.yul\":4149:4574   */\n      swap4\n      swap3\n      pop\n      pop\n      pop\n      jump\t// out\n        /* \"#utility.yul\":4594:4934   */\n    tag_101:\n        /* \"#utility.yul\":4650:4655   */\n      0x00\n        /* \"#utility.yul\":4699:4702   */\n      dup3\n        /* \"#utility.yul\":4692:4696   */\n      0x1f\n        /* \"#utility.yul\":4684:4690   */\n      dup4\n        /* \"#utility.yul\":4680:4697   */\n      add\n        /* \"#utility.yul\":4676:4703   */\n      slt\n        /* \"#utility.yul\":4666:4788   */\n      tag_180\n      jumpi\n        /* \"#utility.yul\":4707:4786   */\n      tag_181\n      tag_93\n      jump\t// in\n    tag_181:\n        /* \"#utility.yul\":4666:4788   */\n    tag_180:\n        /* \"#utility.yul\":4824:4830   */\n      dup2\n        /* \"#utility.yul\":4811:4831   */\n      calldataload\n        /* \"#utility.yul\":4849:4928   */\n      tag_182\n        /* \"#utility.yul\":4924:4927   */\n      dup5\n        /* \"#utility.yul\":4916:4922   */\n      dup3\n        /* \"#utility.yul\":4909:4913   */\n      0x20\n        /* \"#utility.yul\":4901:4907   */\n      dup7\n        /* \"#utility.yul\":4897:4914   */\n      add\n        /* \"#utility.yul\":4849:4928   */\n      tag_100\n      jump\t// in\n    tag_182:\n        /* \"#utility.yul\":4840:4928   */\n      swap2\n      pop\n        /* \"#utility.yul\":4656:4934   */\n      pop\n        /* \"#utility.yul\":4594:4934   */\n      swap3\n      swap2\n      pop\n      pop\n      jump\t// out\n        /* \"#utility.yul\":4940:5060   */\n    tag_102:\n        /* \"#utility.yul\":5012:5035   */\n      tag_184\n        /* \"#utility.yul\":5029:5034   */\n      dup2\n        /* \"#utility.yul\":5012:5035   */\n      tag_85\n      jump\t// in\n    tag_184:\n        /* \"#utility.yul\":5005:5010   */\n      dup2\n        /* \"#utility.yul\":5002:5036   */\n      eq\n        /* \"#utility.yul\":4992:5054   */\n      tag_185\n      jumpi\n        /* \"#utility.yul\":5050:5051   */\n      0x00\n        /* \"#utility.yul\":5047:5048   */\n      0x00\n        /* \"#utility.yul\":5040:5052   */\n      revert\n        /* \"#utility.yul\":4992:5054   */\n    tag_185:\n        /* \"#utility.yul\":4940:5060   */\n      pop\n      jump\t// out\n        /* \"#utility.yul\":5066:5203   */\n    tag_103:\n        /* \"#utility.yul\":5111:5116   */\n      0x00\n        /* \"#utility.yul\":5149:5155   */\n      dup2\n        /* \"#utility.yul\":5136:5156   */\n      calldataload\n        /* \"#utility.yul\":5127:5156   */\n      swap1\n      pop\n        /* \"#utility.yul\":5165:5197   */\n      tag_187\n        /* \"#utility.yul\":5191:5196   */\n      dup2\n        /* \"#utility.yul\":5165:5197   */\n      tag_102\n      jump\t// in\n    tag_187:\n        /* \"#utility.yul\":5066:5203   */\n      swap3\n      swap2\n      pop\n      pop\n      jump\t// out\n        /* \"#utility.yul\":5209:5347   */\n    tag_104:\n        /* \"#utility.yul\":5290:5322   */\n      tag_189\n        /* \"#utility.yul\":5316:5321   */\n      dup2\n        /* \"#utility.yul\":5290:5322   */\n      tag_88\n      jump\t// in\n    tag_189:\n        /* \"#utility.yul\":5283:5288   */\n      dup2\n        /* \"#utility.yul\":5280:5323   */\n      eq\n        /* \"#utility.yul\":5270:5341   */\n      tag_190\n      jumpi\n        /* \"#utility.yul\":5337:5338   */\n      0x00\n        /* \"#utility.yul\":5334:5335   */\n      0x00\n        /* \"#utility.yul\":5327:5339   */\n      revert\n        /* \"#utility.yul\":5270:5341   */\n    tag_190:\n        /* \"#utility.yul\":5209:5347   */\n      pop\n      jump\t// out\n        /* \"#utility.yul\":5353:5508   */\n    tag_105:\n        /* \"#utility.yul\":5407:5412   */\n      0x00\n        /* \"#utility.yul\":5445:5451   */\n      dup2\n        /* \"#utility.yul\":5432:5452   */\n      calldataload\n        /* \"#utility.yul\":5423:5452   */\n      swap1\n      pop\n        /* \"#utility.yul\":5461:5502   */\n      tag_192\n        /* \"#utility.yul\":5496:5501   */\n      dup2\n        /* \"#utility.yul\":5461:5502   */\n      tag_104\n      jump\t// in\n    tag_192:\n        /* \"#utility.yul\":5353:5508   */\n      swap3\n      swap2\n      pop\n      pop\n      jump\t// out\n        /* \"#utility.yul\":5514:6979   */\n    tag_21:\n        /* \"#utility.yul\":5646:5652   */\n      0x00\n        /* \"#utility.yul\":5654:5660   */\n      0x00\n        /* \"#utility.yul\":5662:5668   */\n      0x00\n        /* \"#utility.yul\":5670:5676   */\n      0x00\n        /* \"#utility.yul\":5678:5684   */\n      0x00\n        /* \"#utility.yul\":5727:5730   */\n      0xa0\n        /* \"#utility.yul\":5715:5724   */\n      dup7\n        /* \"#utility.yul\":5706:5713   */\n      dup9\n        /* \"#utility.yul\":5702:5725   */\n      sub\n        /* \"#utility.yul\":5698:5731   */\n      slt\n        /* \"#utility.yul\":5695:5815   */\n      iszero\n      tag_194\n      jumpi\n        /* \"#utility.yul\":5734:5813   */\n      tag_195\n      tag_91\n      jump\t// in\n    tag_195:\n        /* \"#utility.yul\":5695:5815   */\n    tag_194:\n        /* \"#utility.yul\":5882:5883   */\n      0x00\n        /* \"#utility.yul\":5871:5880   */\n      dup7\n        /* \"#utility.yul\":5867:5884   */\n      add\n        /* \"#utility.yul\":5854:5885   */\n      calldataload\n        /* \"#utility.yul\":5912:5930   */\n      0xffffffffffffffff\n        /* \"#utility.yul\":5904:5910   */\n      dup2\n        /* \"#utility.yul\":5901:5931   */\n      gt\n        /* \"#utility.yul\":5898:6015   */\n      iszero\n      tag_196\n      jumpi\n        /* \"#utility.yul\":5934:6013   */\n      tag_197\n      tag_92\n      jump\t// in\n    tag_197:\n        /* \"#utility.yul\":5898:6015   */\n    tag_196:\n        /* \"#utility.yul\":6039:6102   */\n      tag_198\n        /* \"#utility.yul\":6094:6101   */\n      dup9\n        /* \"#utility.yul\":6085:6091   */\n      dup3\n        /* \"#utility.yul\":6074:6083   */\n      dup10\n        /* \"#utility.yul\":6070:6092   */\n      add\n        /* \"#utility.yul\":6039:6102   */\n      tag_101\n      jump\t// in\n    tag_198:\n        /* \"#utility.yul\":6029:6102   */\n      swap6\n      pop\n        /* \"#utility.yul\":5825:6112   */\n      pop\n        /* \"#utility.yul\":6179:6181   */\n      0x20\n        /* \"#utility.yul\":6168:6177   */\n      dup7\n        /* \"#utility.yul\":6164:6182   */\n      add\n        /* \"#utility.yul\":6151:6183   */\n      calldataload\n        /* \"#utility.yul\":6210:6228   */\n      0xffffffffffffffff\n        /* \"#utility.yul\":6202:6208   */\n      dup2\n        /* \"#utility.yul\":6199:6229   */\n      gt\n        /* \"#utility.yul\":6196:6313   */\n      iszero\n      tag_199\n      jumpi\n        /* \"#utility.yul\":6232:6311   */\n      tag_200\n      tag_92\n      jump\t// in\n    tag_200:\n        /* \"#utility.yul\":6196:6313   */\n    tag_199:\n        /* \"#utility.yul\":6337:6400   */\n      tag_201\n        /* \"#utility.yul\":6392:6399   */\n      dup9\n        /* \"#utility.yul\":6383:6389   */\n      dup3\n        /* \"#utility.yul\":6372:6381   */\n      dup10\n        /* \"#utility.yul\":6368:6390   */\n      add\n        /* \"#utility.yul\":6337:6400   */\n      tag_101\n      jump\t// in\n    tag_201:\n        /* \"#utility.yul\":6327:6400   */\n      swap5\n      pop\n        /* \"#utility.yul\":6122:6410   */\n      pop\n        /* \"#utility.yul\":6477:6479   */\n      0x40\n        /* \"#utility.yul\":6466:6475   */\n      dup7\n        /* \"#utility.yul\":6462:6480   */\n      add\n        /* \"#utility.yul\":6449:6481   */\n      calldataload\n        /* \"#utility.yul\":6508:6526   */\n      0xffffffffffffffff\n        /* \"#utility.yul\":6500:6506   */\n      dup2\n        /* \"#utility.yul\":6497:6527   */\n      gt\n        /* \"#utility.yul\":6494:6611   */\n      iszero\n      tag_202\n      jumpi\n        /* \"#utility.yul\":6530:6609   */\n      tag_203\n      tag_92\n      jump\t// in\n    tag_203:\n        /* \"#utility.yul\":6494:6611   */\n    tag_202:\n        /* \"#utility.yul\":6635:6698   */\n      tag_204\n        /* \"#utility.yul\":6690:6697   */\n      dup9\n        /* \"#utility.yul\":6681:6687   */\n      dup3\n        /* \"#utility.yul\":6670:6679   */\n      dup10\n        /* \"#utility.yul\":6666:6688   */\n      add\n        /* \"#utility.yul\":6635:6698   */\n      tag_101\n      jump\t// in\n    tag_204:\n        /* \"#utility.yul\":6625:6698   */\n      swap4\n      pop\n        /* \"#utility.yul\":6420:6708   */\n      pop\n        /* \"#utility.yul\":6747:6749   */\n      0x60\n        /* \"#utility.yul\":6773:6825   */\n      tag_205\n        /* \"#utility.yul\":6817:6824   */\n      dup9\n        /* \"#utility.yul\":6808:6814   */\n      dup3\n        /* \"#utility.yul\":6797:6806   */\n      dup10\n        /* \"#utility.yul\":6793:6815   */\n      add\n        /* \"#utility.yul\":6773:6825   */\n      tag_103\n      jump\t// in\n    tag_205:\n        /* \"#utility.yul\":6763:6825   */\n      swap3\n      pop\n        /* \"#utility.yul\":6718:6835   */\n      pop\n        /* \"#utility.yul\":6874:6877   */\n      0x80\n        /* \"#utility.yul\":6901:6962   */\n      tag_206\n        /* \"#utility.yul\":6954:6961   */\n      dup9\n        /* \"#utility.yul\":6945:6951   */\n      dup3\n        /* \"#utility.yul\":6934:6943   */\n      dup10\n        /* \"#utility.yul\":6930:6952   */\n      add\n        /* \"#utility.yul\":6901:6962   */\n      tag_105\n      jump\t// in\n    tag_206:\n        /* \"#utility.yul\":6891:6962   */\n      swap2\n      pop\n        /* \"#utility.yul\":6845:6972   */\n      pop\n        /* \"#utility.yul\":5514:6979   */\n      swap3\n      swap6\n      pop\n      swap3\n      swap6\n      swap1\n      swap4\n      pop\n      jump\t// out\n        /* \"#utility.yul\":6985:7062   */\n    tag_106:\n        /* \"#utility.yul\":7022:7029   */\n      0x00\n        /* \"#utility.yul\":7051:7056   */\n      dup2\n        /* \"#utility.yul\":7040:7056   */\n      swap1\n      pop\n        /* \"#utility.yul\":6985:7062   */\n      swap2\n      swap1\n      pop\n      jump\t// out\n        /* \"#utility.yul\":7068:7190   */\n    tag_107:\n        /* \"#utility.yul\":7141:7165   */\n      tag_209\n        /* \"#utility.yul\":7159:7164   */\n      dup2\n        /* \"#utility.yul\":7141:7165   */\n      tag_106\n      jump\t// in\n    tag_209:\n        /* \"#utility.yul\":7134:7139   */\n      dup2\n        /* \"#utility.yul\":7131:7166   */\n      eq\n        /* \"#utility.yul\":7121:7184   */\n      tag_210\n      jumpi\n        /* \"#utility.yul\":7180:7181   */\n      0x00\n        /* \"#utility.yul\":7177:7178   */\n      0x00\n        /* \"#utility.yul\":7170:7182   */\n      revert\n        /* \"#utility.yul\":7121:7184   */\n    tag_210:\n        /* \"#utility.yul\":7068:7190   */\n      pop\n      jump\t// out\n        /* \"#utility.yul\":7196:7335   */\n    tag_108:\n        /* \"#utility.yul\":7242:7247   */\n      0x00\n        /* \"#utility.yul\":7280:7286   */\n      dup2\n        /* \"#utility.yul\":7267:7287   */\n      calldataload\n        /* \"#utility.yul\":7258:7287   */\n      swap1\n      pop\n        /* \"#utility.yul\":7296:7329   */\n      tag_212\n        /* \"#utility.yul\":7323:7328   */\n      dup2\n        /* \"#utility.yul\":7296:7329   */\n      tag_107\n      jump\t// in\n    tag_212:\n        /* \"#utility.yul\":7196:7335   */\n      swap3\n      swap2\n      pop\n      pop\n      jump\t// out\n        /* \"#utility.yul\":7341:7670   */\n    tag_26:\n        /* \"#utility.yul\":7400:7406   */\n      0x00\n        /* \"#utility.yul\":7449:7451   */\n      0x20\n        /* \"#utility.yul\":7437:7446   */\n      dup3\n        /* \"#utility.yul\":7428:7435   */\n      dup5\n        /* \"#utility.yul\":7424:7447   */\n      sub\n        /* \"#utility.yul\":7420:7452   */\n      slt\n        /* \"#utility.yul\":7417:7536   */\n      iszero\n      tag_214\n      jumpi\n        /* \"#utility.yul\":7455:7534   */\n      tag_215\n      tag_91\n      jump\t// in\n    tag_215:\n        /* \"#utility.yul\":7417:7536   */\n    tag_214:\n        /* \"#utility.yul\":7575:7576   */\n      0x00\n        /* \"#utility.yul\":7600:7653   */\n      tag_216\n        /* \"#utility.yul\":7645:7652   */\n      dup5\n        /* \"#utility.yul\":7636:7642   */\n      dup3\n        /* \"#utility.yul\":7625:7634   */\n      dup6\n        /* \"#utility.yul\":7621:7643   */\n      add\n        /* \"#utility.yul\":7600:7653   */\n      tag_108\n      jump\t// in\n    tag_216:\n        /* \"#utility.yul\":7590:7653   */\n      swap2\n      pop\n        /* \"#utility.yul\":7546:7663   */\n      pop\n        /* \"#utility.yul\":7341:7670   */\n      swap3\n      swap2\n      pop\n      pop\n      jump\t// out\n        /* \"#utility.yul\":7676:7794   */\n    tag_109:\n        /* \"#utility.yul\":7763:7787   */\n      tag_218\n        /* \"#utility.yul\":7781:7786   */\n      dup2\n        /* \"#utility.yul\":7763:7787   */\n      tag_106\n      jump\t// in\n    tag_218:\n        /* \"#utility.yul\":7758:7761   */\n      dup3\n        /* \"#utility.yul\":7751:7788   */\n      mstore\n        /* \"#utility.yul\":7676:7794   */\n      pop\n      pop\n      jump\t// out\n        /* \"#utility.yul\":7800:8022   */\n    tag_29:\n        /* \"#utility.yul\":7893:7897   */\n      0x00\n        /* \"#utility.yul\":7931:7933   */\n      0x20\n        /* \"#utility.yul\":7920:7929   */\n      dup3\n        /* \"#utility.yul\":7916:7934   */\n      add\n        /* \"#utility.yul\":7908:7934   */\n      swap1\n      pop\n        /* \"#utility.yul\":7944:8015   */\n      tag_220\n        /* \"#utility.yul\":8012:8013   */\n      0x00\n        /* \"#utility.yul\":8001:8010   */\n      dup4\n        /* \"#utility.yul\":7997:8014   */\n      add\n        /* \"#utility.yul\":7988:7994   */\n      dup5\n        /* \"#utility.yul\":7944:8015   */\n      tag_109\n      jump\t// in\n    tag_220:\n        /* \"#utility.yul\":7800:8022   */\n      swap3\n      swap2\n      pop\n      pop\n      jump\t// out\n        /* \"#utility.yul\":8028:8208   */\n    tag_110:\n        /* \"#utility.yul\":8076:8153   */\n      0x4e487b7100000000000000000000000000000000000000000000000000000000\n        /* \"#utility.yul\":8073:8074   */\n      0x00\n        /* \"#utility.yul\":8066:8154   */\n      mstore\n        /* \"#utility.yul\":8173:8177   */\n      0x22\n        /* \"#utility.yul\":8170:8171   */\n      0x04\n        /* \"#utility.yul\":8163:8178   */\n      mstore\n        /* \"#utility.yul\":8197:8201   */\n      0x24\n        /* \"#utility.yul\":8194:8195   */\n      0x00\n        /* \"#utility.yul\":8187:8202   */\n      revert\n        /* \"#utility.yul\":8214:8534   */\n    tag_32:\n        /* \"#utility.yul\":8258:8264   */\n      0x00\n        /* \"#utility.yul\":8295:8296   */\n      0x02\n        /* \"#utility.yul\":8289:8293   */\n      dup3\n        /* \"#utility.yul\":8285:8297   */\n      div\n        /* \"#utility.yul\":8275:8297   */\n      swap1\n      pop\n        /* \"#utility.yul\":8342:8343   */\n      0x01\n        /* \"#utility.yul\":8336:8340   */\n      dup3\n        /* \"#utility.yul\":8332:8344   */\n      and\n        /* \"#utility.yul\":8363:8381   */\n      dup1\n        /* \"#utility.yul\":8353:8434   */\n      tag_223\n      jumpi\n        /* \"#utility.yul\":8419:8423   */\n      0x7f\n        /* \"#utility.yul\":8411:8417   */\n      dup3\n        /* \"#utility.yul\":8407:8424   */\n      and\n        /* \"#utility.yul\":8397:8424   */\n      swap2\n      pop\n        /* \"#utility.yul\":8353:8434   */\n    tag_223:\n        /* \"#utility.yul\":8481:8483   */\n      0x20\n        /* \"#utility.yul\":8473:8479   */\n      dup3\n        /* \"#utility.yul\":8470:8484   */\n      lt\n        /* \"#utility.yul\":8450:8468   */\n      dup2\n        /* \"#utility.yul\":8447:8485   */\n      sub\n        /* \"#utility.yul\":8444:8528   */\n      tag_224\n      jumpi\n        /* \"#utility.yul\":8500:8518   */\n      tag_225\n      tag_110\n      jump\t// in\n    tag_225:\n        /* \"#utility.yul\":8444:8528   */\n    tag_224:\n        /* \"#utility.yul\":8265:8534   */\n      pop\n        /* \"#utility.yul\":8214:8534   */\n      swap2\n      swap1\n      pop\n      jump\t// out\n        /* \"#utility.yul\":8540:8717   */\n    tag_111:\n        /* \"#utility.yul\":8680:8709   */\n      0x496e73756666696369656e74207061796d656e7420616d6f756e740000000000\n        /* \"#utility.yul\":8676:8677   */\n      0x00\n        /* \"#utility.yul\":8668:8674   */\n      dup3\n        /* \"#utility.yul\":8664:8678   */\n      add\n        /* \"#utility.yul\":8657:8710   */\n      mstore\n        /* \"#utility.yul\":8540:8717   */\n      pop\n      jump\t// out\n        /* \"#utility.yul\":8723:9089   */\n    tag_112:\n        /* \"#utility.yul\":8865:8868   */\n      0x00\n        /* \"#utility.yul\":8886:8953   */\n      tag_228\n        /* \"#utility.yul\":8950:8952   */\n      0x1b\n        /* \"#utility.yul\":8945:8948   */\n      dup4\n        /* \"#utility.yul\":8886:8953   */\n      tag_81\n      jump\t// in\n    tag_228:\n        /* \"#utility.yul\":8879:8953   */\n      swap2\n      pop\n        /* \"#utility.yul\":8962:9055   */\n      tag_229\n        /* \"#utility.yul\":9051:9054   */\n      dup3\n        /* \"#utility.yul\":8962:9055   */\n      tag_111\n      jump\t// in\n    tag_229:\n        /* \"#utility.yul\":9080:9082   */\n      0x20\n        /* \"#utility.yul\":9075:9078   */\n      dup3\n        /* \"#utility.yul\":9071:9083   */\n      add\n        /* \"#utility.yul\":9064:9083   */\n      swap1\n      pop\n        /* \"#utility.yul\":8723:9089   */\n      swap2\n      swap1\n      pop\n      jump\t// out\n        /* \"#utility.yul\":9095:9514   */\n    tag_51:\n        /* \"#utility.yul\":9261:9265   */\n      0x00\n        /* \"#utility.yul\":9299:9301   */\n      0x20\n        /* \"#utility.yul\":9288:9297   */\n      dup3\n        /* \"#utility.yul\":9284:9302   */\n      add\n        /* \"#utility.yul\":9276:9302   */\n      swap1\n      pop\n        /* \"#utility.yul\":9348:9357   */\n      dup2\n        /* \"#utility.yul\":9342:9346   */\n      dup2\n        /* \"#utility.yul\":9338:9358   */\n      sub\n        /* \"#utility.yul\":9334:9335   */\n      0x00\n        /* \"#utility.yul\":9323:9332   */\n      dup4\n        /* \"#utility.yul\":9319:9336   */\n      add\n        /* \"#utility.yul\":9312:9359   */\n      mstore\n        /* \"#utility.yul\":9376:9507   */\n      tag_231\n        /* \"#utility.yul\":9502:9506   */\n      dup2\n        /* \"#utility.yul\":9376:9507   */\n      tag_112\n      jump\t// in\n    tag_231:\n        /* \"#utility.yul\":9368:9507   */\n      swap1\n      pop\n        /* \"#utility.yul\":9095:9514   */\n      swap2\n      swap1\n      pop\n      jump\t// out\n        /* \"#utility.yul\":9520:9693   */\n    tag_113:\n        /* \"#utility.yul\":9660:9685   */\n      0x456d706c6f7965652077616c6c6574206e6f7420736574000000000000000000\n        /* \"#utility.yul\":9656:9657   */\n      0x00\n        /* \"#utility.yul\":9648:9654   */\n      dup3\n        /* \"#utility.yul\":9644:9658   */\n      add\n        /* \"#utility.yul\":9637:9686   */\n      mstore\n        /* \"#utility.yul\":9520:9693   */\n      pop\n      jump\t// out\n        /* \"#utility.yul\":9699:10065   */\n    tag_114:\n        /* \"#utility.yul\":9841:9844   */\n      0x00\n        /* \"#utility.yul\":9862:9929   */\n      tag_234\n        /* \"#utility.yul\":9926:9928   */\n      0x17\n        /* \"#utility.yul\":9921:9924   */\n      dup4\n        /* \"#utility.yul\":9862:9929   */\n      tag_81\n      jump\t// in\n    tag_234:\n        /* \"#utility.yul\":9855:9929   */\n      swap2\n      pop\n        /* \"#utility.yul\":9938:10031   */\n      tag_235\n        /* \"#utility.yul\":10027:10030   */\n      dup3\n        /* \"#utility.yul\":9938:10031   */\n      tag_113\n      jump\t// in\n    tag_235:\n        /* \"#utility.yul\":10056:10058   */\n      0x20\n        /* \"#utility.yul\":10051:10054   */\n      dup3\n        /* \"#utility.yul\":10047:10059   */\n      add\n        /* \"#utility.yul\":10040:10059   */\n      swap1\n      pop\n        /* \"#utility.yul\":9699:10065   */\n      swap2\n      swap1\n      pop\n      jump\t// out\n        /* \"#utility.yul\":10071:10490   */\n    tag_54:\n        /* \"#utility.yul\":10237:10241   */\n      0x00\n        /* \"#utility.yul\":10275:10277   */\n      0x20\n        /* \"#utility.yul\":10264:10273   */\n      dup3\n        /* \"#utility.yul\":10260:10278   */\n      add\n        /* \"#utility.yul\":10252:10278   */\n      swap1\n      pop\n        /* \"#utility.yul\":10324:10333   */\n      dup2\n        /* \"#utility.yul\":10318:10322   */\n      dup2\n        /* \"#utility.yul\":10314:10334   */\n      sub\n        /* \"#utility.yul\":10310:10311   */\n      0x00\n        /* \"#utility.yul\":10299:10308   */\n      dup4\n        /* \"#utility.yul\":10295:10312   */\n      add\n        /* \"#utility.yul\":10288:10335   */\n      mstore\n        /* \"#utility.yul\":10352:10483   */\n      tag_237\n        /* \"#utility.yul\":10478:10482   */\n      dup2\n        /* \"#utility.yul\":10352:10483   */\n      tag_114\n      jump\t// in\n    tag_237:\n        /* \"#utility.yul\":10344:10483   */\n      swap1\n      pop\n        /* \"#utility.yul\":10071:10490   */\n      swap2\n      swap1\n      pop\n      jump\t// out\n        /* \"#utility.yul\":10496:10637   */\n    tag_115:\n        /* \"#utility.yul\":10545:10549   */\n      0x00\n        /* \"#utility.yul\":10568:10571   */\n      dup2\n        /* \"#utility.yul\":10560:10571   */\n      swap1\n      pop\n        /* \"#utility.yul\":10591:10594   */\n      dup2\n        /* \"#utility.yul\":10588:10589   */\n      0x00\n        /* \"#utility.yul\":10581:10595   */\n      mstore\n        /* \"#utility.yul\":10625:10629   */\n      0x20\n        /* \"#utility.yul\":10622:10623   */\n      0x00\n        /* \"#utility.yul\":10612:10630   */\n      keccak256\n        /* \"#utility.yul\":10604:10630   */\n      swap1\n      pop\n        /* \"#utility.yul\":10496:10637   */\n      swap2\n      swap1\n      pop\n      jump\t// out\n        /* \"#utility.yul\":10643:10736   */\n    tag_116:\n        /* \"#utility.yul\":10680:10686   */\n      0x00\n        /* \"#utility.yul\":10727:10729   */\n      0x20\n        /* \"#utility.yul\":10722:10724   */\n      0x1f\n        /* \"#utility.yul\":10715:10720   */\n      dup4\n        /* \"#utility.yul\":10711:10725   */\n      add\n        /* \"#utility.yul\":10707:10730   */\n      div\n        /* \"#utility.yul\":10697:10730   */\n      swap1\n      pop\n        /* \"#utility.yul\":10643:10736   */\n      swap2\n      swap1\n      pop\n      jump\t// out\n        /* \"#utility.yul\":10742:10849   */\n    tag_117:\n        /* \"#utility.yul\":10786:10794   */\n      0x00\n        /* \"#utility.yul\":10836:10841   */\n      dup3\n        /* \"#utility.yul\":10830:10834   */\n      dup3\n        /* \"#utility.yul\":10826:10842   */\n      shl\n        /* \"#utility.yul\":10805:10842   */\n      swap1\n      pop\n        /* \"#utility.yul\":10742:10849   */\n      swap3\n      swap2\n      pop\n      pop\n      jump\t// out\n        /* \"#utility.yul\":10855:11248   */\n    tag_118:\n        /* \"#utility.yul\":10924:10930   */\n      0x00\n        /* \"#utility.yul\":10974:10975   */\n      0x08\n        /* \"#utility.yul\":10962:10972   */\n      dup4\n        /* \"#utility.yul\":10958:10976   */\n      mul\n        /* \"#utility.yul\":10997:11094   */\n      tag_242\n        /* \"#utility.yul\":11027:11093   */\n      0xffffffffffffffffffffffffffffffffffffffffffffffffffffffffffffffff\n        /* \"#utility.yul\":11016:11025   */\n      dup3\n        /* \"#utility.yul\":10997:11094   */\n      tag_117\n      jump\t// in\n    tag_242:\n        /* \"#utility.yul\":11115:11154   */\n      tag_243\n        /* \"#utility.yul\":11145:11153   */\n      dup7\n        /* \"#utility.yul\":11134:11143   */\n      dup4\n        /* \"#utility.yul\":11115:11154   */\n      tag_117\n      jump\t// in\n    tag_243:\n        /* \"#utility.yul\":11103:11154   */\n      swap6\n      pop\n        /* \"#utility.yul\":11187:11191   */\n      dup1\n        /* \"#utility.yul\":11183:11192   */\n      not\n        /* \"#utility.yul\":11176:11181   */\n      dup5\n        /* \"#utility.yul\":11172:11193   */\n      and\n        /* \"#utility.yul\":11163:11193   */\n      swap4\n      pop\n        /* \"#utility.yul\":11236:11240   */\n      dup1\n        /* \"#utility.yul\":11226:11234   */\n      dup7\n        /* \"#utility.yul\":11222:11241   */\n      and\n        /* \"#utility.yul\":11215:11220   */\n      dup5\n        /* \"#utility.yul\":11212:11242   */\n      or\n        /* \"#utility.yul\":11202:11242   */\n      swap3\n      pop\n        /* \"#utility.yul\":10931:11248   */\n      pop\n      pop\n        /* \"#utility.yul\":10855:11248   */\n      swap4\n      swap3\n      pop\n      pop\n      pop\n      jump\t// out\n        /* \"#utility.yul\":11254:11314   */\n    tag_119:\n        /* \"#utility.yul\":11282:11285   */\n      0x00\n        /* \"#utility.yul\":11303:11308   */\n      dup2\n        /* \"#utility.yul\":11296:11308   */\n      swap1\n      pop\n        /* \"#utility.yul\":11254:11314   */\n      swap2\n      swap1\n      pop\n      jump\t// out\n        /* \"#utility.yul\":11320:11462   */\n    tag_120:\n        /* \"#utility.yul\":11370:11379   */\n      0x00\n        /* \"#utility.yul\":11403:11456   */\n      tag_246\n        /* \"#utility.yul\":11421:11455   */\n      tag_247\n        /* \"#utility.yul\":11430:11454   */\n      tag_248\n        /* \"#utility.yul\":11448:11453   */\n      dup5\n        /* \"#utility.yul\":11430:11454   */\n      tag_106\n      jump\t// in\n    tag_248:\n        /* \"#utility.yul\":11421:11455   */\n      tag_119\n      jump\t// in\n    tag_247:\n        /* \"#utility.yul\":11403:11456   */\n      tag_106\n      jump\t// in\n    tag_246:\n        /* \"#utility.yul\":11390:11456   */\n      swap1\n      pop\n        /* \"#utility.yul\":11320:11462   */\n      swap2\n      swap1\n      pop\n      jump\t// out\n        /* \"#utility.yul\":11468:11543   */\n    tag_121:\n        /* \"#utility.yul\":11511:11514   */\n      0x00\n        /* \"#utility.yul\":11532:11537   */\n      dup2\n        /* \"#utility.yul\":11525:11537   */\n      swap1\n      pop\n        /* \"#utility.yul\":11468:11543   */\n      swap2\n      swap1\n      pop\n      jump\t// out\n        /* \"#utility.yul\":11549:11818   */\n    tag_122:\n        /* \"#utility.yul\":11659:11698   */\n      tag_251\n        /* \"#utility.yul\":11690:11697   */\n      dup4\n        /* \"#utility.yul\":11659:11698   */\n      tag_120\n      jump\t// in\n    tag_251:\n        /* \"#utility.yul\":11720:11811   */\n      tag_252\n        /* \"#utility.yul\":11769:11810   */\n      tag_253\n        /* \"#utility.yul\":11793:11809   */\n      dup3\n        /* \"#utility.yul\":11769:11810   */\n      tag_121\n      jump\t// in\n    tag_253:\n        /* \"#utility.yul\":11761:11767   */\n      dup5\n        /* \"#utility.yul\":11754:11758   */\n      dup5\n        /* \"#utility.yul\":11748:11759   */\n      sload\n        /* \"#utility.yul\":11720:11811   */\n      tag_118\n      jump\t// in\n    tag_252:\n        /* \"#utility.yul\":11714:11718   */\n      dup3\n        /* \"#utility.yul\":11707:11812   */\n      sstore\n        /* \"#utility.yul\":11625:11818   */\n      pop\n        /* \"#utility.yul\":11549:11818   */\n      pop\n      pop\n      pop\n      jump\t// out\n        /* \"#utility.yul\":11824:11897   */\n    tag_123:\n        /* \"#utility.yul\":11869:11872   */\n      0x00\n        /* \"#utility.yul\":11890:11891   */\n      0x00\n        /* \"#utility.yul\":11883:11891   */\n      swap1\n      pop\n        /* \"#utility.yul\":11824:11897   */\n      swap1\n      jump\t// out\n        /* \"#utility.yul\":11903:12092   */\n    tag_124:\n        /* \"#utility.yul\":11980:12012   */\n      tag_256\n      tag_123\n      jump\t// in\n    tag_256:\n        /* \"#utility.yul\":12021:12086   */\n      tag_257\n        /* \"#utility.yul\":12079:12085   */\n      dup2\n        /* \"#utility.yul\":12071:12077   */\n      dup5\n        /* \"#utility.yul\":12065:12069   */\n      dup5\n        /* \"#utility.yul\":12021:12086   */\n      tag_122\n      jump\t// in\n    tag_257:\n        /* \"#utility.yul\":11956:12092   */\n      pop\n        /* \"#utility.yul\":11903:12092   */\n      pop\n      pop\n      jump\t// out\n        /* \"#utility.yul\":12098:12284   */\n    tag_125:\n        /* \"#utility.yul\":12158:12278   */\n    tag_259:\n        /* \"#utility.yul\":12175:12178   */\n      dup2\n        /* \"#utility.yul\":12168:12173   */\n      dup2\n        /* \"#utility.yul\":12165:12179   */\n      lt\n        /* \"#utility.yul\":12158:12278   */\n      iszero\n      tag_261\n      jumpi\n        /* \"#utility.yul\":12229:12268   */\n      tag_262\n        /* \"#utility.yul\":12266:12267   */\n      0x00\n        /* \"#utility.yul\":12259:12264   */\n      dup3\n        /* \"#utility.yul\":12229:12268   */\n      tag_124\n      jump\t// in\n    tag_262:\n        /* \"#utility.yul\":12202:12203   */\n      0x01\n        /* \"#utility.yul\":12195:12200   */\n      dup2\n        /* \"#utility.yul\":12191:12204   */\n      add\n        /* \"#utility.yul\":12182:12204   */\n      swap1\n      pop\n        /* \"#utility.yul\":12158:12278   */\n      jump(tag_259)\n    tag_261:\n        /* \"#utility.yul\":12098:12284   */\n      pop\n      pop\n      jump\t// out\n        /* \"#utility.yul\":12290:12833   */\n    tag_126:\n        /* \"#utility.yul\":12391:12393   */\n      0x1f\n        /* \"#utility.yul\":12386:12389   */\n      dup3\n        /* \"#utility.yul\":12383:12394   */\n      gt\n        /* \"#utility.yul\":12380:12826   */\n      iszero\n      tag_264\n      jumpi\n        /* \"#utility.yul\":12425:12463   */\n      tag_265\n        /* \"#utility.yul\":12457:12462   */\n      dup2\n        /* \"#utility.yul\":12425:12463   */\n      tag_115\n      jump\t// in\n    tag_265:\n        /* \"#utility.yul\":12509:12538   */\n      tag_266\n        /* \"#utility.yul\":12527:12537   */\n      dup5\n        /* \"#utility.yul\":12509:12538   */\n      tag_116\n      jump\t// in\n    tag_266:\n        /* \"#utility.yul\":12499:12507   */\n      dup2\n        /* \"#utility.yul\":12495:12539   */\n      add\n        /* \"#utility.yul\":12692:12694   */\n      0x20\n        /* \"#utility.yul\":12680:12690   */\n      dup6\n        /* \"#utility.yul\":12677:12695   */\n      lt\n        /* \"#utility.yul\":12674:12723   */\n      iszero\n      tag_267\n      jumpi\n        /* \"#utility.yul\":12713:12721   */\n      dup2\n        /* \"#utility.yul\":12698:12721   */\n      swap1\n      pop\n        /* \"#utility.yul\":12674:12723   */\n    tag_267:\n        /* \"#utility.yul\":12736:12816   */\n      tag_268\n        /* \"#utility.yul\":12792:12814   */\n      tag_269\n        /* \"#utility.yul\":12810:12813   */\n      dup6\n        /* \"#utility.yul\":12792:12814   */\n      tag_116\n      jump\t// in\n    tag_269:\n        /* \"#utility.yul\":12782:12790   */\n      dup4\n        /* \"#utility.yul\":12778:12815   */\n      add\n        /* \"#utility.yul\":12765:12776   */\n      dup3\n        /* \"#utility.yul\":12736:12816   */\n      tag_125\n      jump\t// in\n    tag_268:\n        /* \"#utility.yul\":12395:12826   */\n      pop\n      pop\n        /* \"#utility.yul\":12380:12826   */\n    tag_264:\n        /* \"#utility.yul\":12290:12833   */\n      pop\n      pop\n      pop\n      jump\t// out\n        /* \"#utility.yul\":12839:12956   */\n    tag_127:\n        /* \"#utility.yul\":12893:12901   */\n      0x00\n        /* \"#utility.yul\":12943:12948   */\n      dup3\n        /* \"#utility.yul\":12937:12941   */\n      dup3\n        /* \"#utility.yul\":12933:12949   */\n      shr\n        /* \"#utility.yul\":12912:12949   */\n      swap1\n      pop\n        /* \"#utility.yul\":12839:12956   */\n      swap3\n      swap2\n      pop\n      pop\n      jump\t// out\n        /* \"#utility.yul\":12962:13131   */\n    tag_128:\n        /* \"#utility.yul\":13006:13012   */\n      0x00\n        /* \"#utility.yul\":13039:13090   */\n      tag_272\n        /* \"#utility.yul\":13087:13088   */\n      0x00\n        /* \"#utility.yul\":13083:13089   */\n      not\n        /* \"#utility.yul\":13075:13080   */\n      dup5\n        /* \"#utility.yul\":13072:13073   */\n      0x08\n        /* \"#utility.yul\":13068:13081   */\n      mul\n        /* \"#utility.yul\":13039:13090   */\n      tag_127\n      jump\t// in\n    tag_272:\n        /* \"#utility.yul\":13035:13091   */\n      not\n        /* \"#utility.yul\":13120:13124   */\n      dup1\n        /* \"#utility.yul\":13114:13118   */\n      dup4\n        /* \"#utility.yul\":13110:13125   */\n      and\n        /* \"#utility.yul\":13100:13125   */\n      swap2\n      pop\n        /* \"#utility.yul\":13013:13131   */\n      pop\n        /* \"#utility.yul\":12962:13131   */\n      swap3\n      swap2\n      pop\n      pop\n      jump\t// out\n        /* \"#utility.yul\":13136:13431   */\n    tag_129:\n        /* \"#utility.yul\":13212:13216   */\n      0x00\n        /* \"#utility.yul\":13358:13387   */\n      tag_274\n        /* \"#utility.yul\":13383:13386   */\n      dup4\n        /* \"#utility.yul\":13377:13381   */\n      dup4\n        /* \"#utility.yul\":13358:13387   */\n      tag_128\n      jump\t// in\n    tag_274:\n        /* \"#utility.yul\":13350:13387   */\n      swap2\n      pop\n        /* \"#utility.yul\":13420:13423   */\n      dup3\n        /* \"#utility.yul\":13417:13418   */\n      0x02\n        /* \"#utility.yul\":13413:13424   */\n      mul\n        /* \"#utility.yul\":13407:13411   */\n      dup3\n        /* \"#utility.yul\":13404:13425   */\n      or\n        /* \"#utility.yul\":13396:13425   */\n      swap1\n      pop\n        /* \"#utility.yul\":13136:13431   */\n      swap3\n      swap2\n      pop\n      pop\n      jump\t// out\n        /* \"#utility.yul\":13436:14831   */\n    tag_74:\n        /* \"#utility.yul\":13553:13590   */\n      tag_276\n        /* \"#utility.yul\":13586:13589   */\n      dup3\n        /* \"#utility.yul\":13553:13590   */\n      tag_80\n      jump\t// in\n    tag_276:\n        /* \"#utility.yul\":13655:13673   */\n      0xffffffffffffffff\n        /* \"#utility.yul\":13647:13653   */\n      dup2\n        /* \"#utility.yul\":13644:13674   */\n      gt\n        /* \"#utility.yul\":13641:13697   */\n      iszero\n      tag_277\n      jumpi\n        /* \"#utility.yul\":13677:13695   */\n      tag_278\n      tag_95\n      jump\t// in\n    tag_278:\n        /* \"#utility.yul\":13641:13697   */\n    tag_277:\n        /* \"#utility.yul\":13721:13759   */\n      tag_279\n        /* \"#utility.yul\":13753:13757   */\n      dup3\n        /* \"#utility.yul\":13747:13758   */\n      sload\n        /* \"#utility.yul\":13721:13759   */\n      tag_32\n      jump\t// in\n    tag_279:\n        /* \"#utility.yul\":13806:13873   */\n      tag_280\n        /* \"#utility.yul\":13866:13872   */\n      dup3\n        /* \"#utility.yul\":13858:13864   */\n      dup3\n        /* \"#utility.yul\":13852:13856   */\n      dup6\n        /* \"#utility.yul\":13806:13873   */\n      tag_126\n      jump\t// in\n    tag_280:\n        /* \"#utility.yul\":13900:13901   */\n      0x00\n        /* \"#utility.yul\":13924:13928   */\n      0x20\n        /* \"#utility.yul\":13911:13928   */\n      swap1\n      pop\n        /* \"#utility.yul\":13956:13958   */\n      0x1f\n        /* \"#utility.yul\":13948:13954   */\n      dup4\n        /* \"#utility.yul\":13945:13959   */\n      gt\n        /* \"#utility.yul\":13973:13974   */\n      0x01\n        /* \"#utility.yul\":13968:14586   */\n      dup2\n      eq\n      tag_282\n      jumpi\n        /* \"#utility.yul\":14630:14631   */\n      0x00\n        /* \"#utility.yul\":14647:14653   */\n      dup5\n        /* \"#utility.yul\":14644:14721   */\n      iszero\n      tag_283\n      jumpi\n        /* \"#utility.yul\":14696:14705   */\n      dup3\n        /* \"#utility.yul\":14691:14694   */\n      dup8\n        /* \"#utility.yul\":14687:14706   */\n      add\n        /* \"#utility.yul\":14681:14707   */\n      mload\n        /* \"#utility.yul\":14672:14707   */\n      swap1\n      pop\n        /* \"#utility.yul\":14644:14721   */\n    tag_283:\n        /* \"#utility.yul\":14747:14814   */\n      tag_284\n        /* \"#utility.yul\":14807:14813   */\n      dup6\n        /* \"#utility.yul\":14800:14805   */\n      dup3\n        /* \"#utility.yul\":14747:14814   */\n      tag_129\n      jump\t// in\n    tag_284:\n        /* \"#utility.yul\":14741:14745   */\n      dup7\n        /* \"#utility.yul\":14734:14815   */\n      sstore\n        /* \"#utility.yul\":14603:14825   */\n      pop\n        /* \"#utility.yul\":13938:14825   */\n      jump(tag_281)\n        /* \"#utility.yul\":13968:14586   */\n    tag_282:\n        /* \"#utility.yul\":14020:14024   */\n      0x1f\n        /* \"#utility.yul\":14016:14025   */\n      not\n        /* \"#utility.yul\":14008:14014   */\n      dup5\n        /* \"#utility.yul\":14004:14026   */\n      and\n        /* \"#utility.yul\":14054:14091   */\n      tag_285\n        /* \"#utility.yul\":14086:14090   */\n      dup7\n        /* \"#utility.yul\":14054:14091   */\n      tag_115\n      jump\t// in\n    tag_285:\n        /* \"#utility.yul\":14113:14114   */\n      0x00\n        /* \"#utility.yul\":14127:14335   */\n    tag_286:\n        /* \"#utility.yul\":14141:14148   */\n      dup3\n        /* \"#utility.yul\":14138:14139   */\n      dup2\n        /* \"#utility.yul\":14135:14149   */\n      lt\n        /* \"#utility.yul\":14127:14335   */\n      iszero\n      tag_288\n      jumpi\n        /* \"#utility.yul\":14220:14229   */\n      dup5\n        /* \"#utility.yul\":14215:14218   */\n      dup10\n        /* \"#utility.yul\":14211:14230   */\n      add\n        /* \"#utility.yul\":14205:14231   */\n      mload\n        /* \"#utility.yul\":14197:14203   */\n      dup3\n        /* \"#utility.yul\":14190:14232   */\n      sstore\n        /* \"#utility.yul\":14271:14272   */\n      0x01\n        /* \"#utility.yul\":14263:14269   */\n      dup3\n        /* \"#utility.yul\":14259:14273   */\n      add\n        /* \"#utility.yul\":14249:14273   */\n      swap2\n      pop\n        /* \"#utility.yul\":14318:14320   */\n      0x20\n        /* \"#utility.yul\":14307:14316   */\n      dup6\n        /* \"#utility.yul\":14303:14321   */\n      add\n        /* \"#utility.yul\":14290:14321   */\n      swap5\n      pop\n        /* \"#utility.yul\":14164:14168   */\n      0x20\n        /* \"#utility.yul\":14161:14162   */\n      dup2\n        /* \"#utility.yul\":14157:14169   */\n      add\n        /* \"#utility.yul\":14152:14169   */\n      swap1\n      pop\n        /* \"#utility.yul\":14127:14335   */\n      jump(tag_286)\n    tag_288:\n        /* \"#utility.yul\":14363:14369   */\n      dup7\n        /* \"#utility.yul\":14354:14361   */\n      dup4\n        /* \"#utility.yul\":14351:14370   */\n      lt\n        /* \"#utility.yul\":14348:14527   */\n      iszero\n      tag_289\n      jumpi\n        /* \"#utility.yul\":14421:14430   */\n      dup5\n        /* \"#utility.yul\":14416:14419   */\n      dup10\n        /* \"#utility.yul\":14412:14431   */\n      add\n        /* \"#utility.yul\":14406:14432   */\n      mload\n        /* \"#utility.yul\":14464:14512   */\n      tag_290\n        /* \"#utility.yul\":14506:14510   */\n      0x1f\n        /* \"#utility.yul\":14498:14504   */\n      dup10\n        /* \"#utility.yul\":14494:14511   */\n      and\n        /* \"#utility.yul\":14483:14492   */\n      dup3\n        /* \"#utility.yul\":14464:14512   */\n      tag_128\n      jump\t// in\n    tag_290:\n        /* \"#utility.yul\":14456:14462   */\n      dup4\n        /* \"#utility.yul\":14449:14513   */\n      sstore\n        /* \"#utility.yul\":14371:14527   */\n      pop\n        /* \"#utility.yul\":14348:14527   */\n    tag_289:\n        /* \"#utility.yul\":14573:14574   */\n      0x01\n        /* \"#utility.yul\":14569:14570   */\n      0x02\n        /* \"#utility.yul\":14561:14567   */\n      dup9\n        /* \"#utility.yul\":14557:14571   */\n      mul\n        /* \"#utility.yul\":14553:14575   */\n      add\n        /* \"#utility.yul\":14547:14551   */\n      dup9\n        /* \"#utility.yul\":14540:14576   */\n      sstore\n        /* \"#utility.yul\":13975:14586   */\n      pop\n      pop\n      pop\n        /* \"#utility.yul\":13938:14825   */\n    tag_281:\n      pop\n        /* \"#utility.yul\":13528:14831   */\n      pop\n      pop\n      pop\n        /* \"#utility.yul\":13436:14831   */\n      pop\n      pop\n      jump\t// out\n        /* \"#utility.yul\":14837:15017   */\n    tag_130:\n        /* \"#utility.yul\":14885:14962   */\n      0x4e487b7100000000000000000000000000000000000000000000000000000000\n        /* \"#utility.yul\":14882:14883   */\n      0x00\n        /* \"#utility.yul\":14875:14963   */\n      mstore\n        /* \"#utility.yul\":14982:14986   */\n      0x11\n        /* \"#utility.yul\":14979:14980   */\n      0x04\n        /* \"#utility.yul\":14972:14987   */\n      mstore\n        /* \"#utility.yul\":15006:15010   */\n      0x24\n        /* \"#utility.yul\":15003:15004   */\n      0x00\n        /* \"#utility.yul\":14996:15011   */\n      revert\n        /* \"#utility.yul\":15023:15433   */\n    tag_79:\n        /* \"#utility.yul\":15063:15070   */\n      0x00\n        /* \"#utility.yul\":15086:15106   */\n      tag_293\n        /* \"#utility.yul\":15104:15105   */\n      dup3\n        /* \"#utility.yul\":15086:15106   */\n      tag_106\n      jump\t// in\n    tag_293:\n        /* \"#utility.yul\":15081:15106   */\n      swap2\n      pop\n        /* \"#utility.yul\":15120:15140   */\n      tag_294\n        /* \"#utility.yul\":15138:15139   */\n      dup4\n        /* \"#utility.yul\":15120:15140   */\n      tag_106\n      jump\t// in\n    tag_294:\n        /* \"#utility.yul\":15115:15140   */\n      swap3\n      pop\n        /* \"#utility.yul\":15175:15176   */\n      dup3\n        /* \"#utility.yul\":15172:15173   */\n      dup3\n        /* \"#utility.yul\":15168:15177   */\n      mul\n        /* \"#utility.yul\":15197:15227   */\n      tag_295\n        /* \"#utility.yul\":15215:15226   */\n      dup2\n        /* \"#utility.yul\":15197:15227   */\n      tag_106\n      jump\t// in\n    tag_295:\n        /* \"#utility.yul\":15186:15227   */\n      swap2\n      pop\n        /* \"#utility.yul\":15376:15377   */\n      dup3\n        /* \"#utility.yul\":15367:15374   */\n      dup3\n        /* \"#utility.yul\":15363:15378   */\n      div\n        /* \"#utility.yul\":15360:15361   */\n      dup5\n        /* \"#utility.yul\":15357:15379   */\n      eq\n        /* \"#utility.yul\":15337:15338   */\n      dup4\n        /* \"#utility.yul\":15330:15339   */\n      iszero\n        /* \"#utility.yul\":15310:15393   */\n      or\n        /* \"#utility.yul\":15287:15426   */\n      tag_296\n      jumpi\n        /* \"#utility.yul\":15406:15424   */\n      tag_297\n      tag_130\n      jump\t// in\n    tag_297:\n        /* \"#utility.yul\":15287:15426   */\n    tag_296:\n        /* \"#utility.yul\":15071:15433   */\n      pop\n        /* \"#utility.yul\":15023:15433   */\n      swap3\n      swap2\n      pop\n      pop\n      jump\t// out\n\n    auxdata: 0xa26469706673582212203d1df019e798c80801263659bd17f45481c96fdabbcafc354764d274e3a3d8ed64736f6c634300081c0033\n}\n",
				"bytecode": {
					"linkReferences": {},
					"object": "6080604052348015600e575f5ffd5b50610f5d8061001c5f395ff3fe608060405260043610610049575f3560e01c80634132db8f1461004d5780636e10a8bb1461007b578063a0a1a7d714610085578063bb425001146100b3578063d1f3bf1d146100db575b5f5ffd5b348015610058575f5ffd5b50610061610117565b6040516100729594939291906107d5565b60405180910390f35b61008361030f565b005b348015610090575f5ffd5b50610099610470565b6040516100aa9594939291906107d5565b60405180910390f35b3480156100be575f5ffd5b506100d960048036038101906100d491906109cc565b610651565b005b3480156100e6575f5ffd5b5061010160048036038101906100fc9190610aca565b6106ee565b60405161010e9190610b04565b60405180910390f35b60608060605f5f5f5f015f6001015f6002015f6003015f9054906101000a900461ffff165f60030160029054906101000a900473ffffffffffffffffffffffffffffffffffffffff1684805461016c90610b4a565b80601f016020809104026020016040519081016040528092919081815260200182805461019890610b4a565b80156101e35780601f106101ba576101008083540402835291602001916101e3565b820191905f5260205f20905b8154815290600101906020018083116101c657829003601f168201915b505050505094508380546101f690610b4a565b80601f016020809104026020016040519081016040528092919081815260200182805461022290610b4a565b801561026d5780601f106102445761010080835404028352916020019161026d565b820191905f5260205f20905b81548152906001019060200180831161025057829003601f168201915b5050505050935082805461028090610b4a565b80601f01602080910402602001604051908101604052809291908181526020018280546102ac90610b4a565b80156102f75780601f106102ce576101008083540402835291602001916102f7565b820191905f5260205f20905b8154815290600101906020018083116102da57829003601f168201915b50505050509250945094509450945094509091929394565b5f61032e5f6003015f9054906101000a900461ffff1661ffff166106ee565b905080341015610373576040517f08c379a000000000000000000000000000000000000000000000000000000000815260040161036a90610bc4565b60405180910390fd5b5f73ffffffffffffffffffffffffffffffffffffffff165f60030160029054906101000a900473ffffffffffffffffffffffffffffffffffffffff1673ffffffffffffffffffffffffffffffffffffffff1603610405576040517f08c379a00000000000000000000000000000000000000000000000000000000081526004016103fc90610c2c565b60405180910390fd5b5f60030160029054906101000a900473ffffffffffffffffffffffffffffffffffffffff1673ffffffffffffffffffffffffffffffffffffffff166108fc8290811502906040515f60405180830381858888f1935050505015801561046c573d5f5f3e3d5ffd5b5050565b5f805f01805461047f90610b4a565b80601f01602080910402602001604051908101604052809291908181526020018280546104ab90610b4a565b80156104f65780601f106104cd576101008083540402835291602001916104f6565b820191905f5260205f20905b8154815290600101906020018083116104d957829003601f168201915b50505050509080600101805461050b90610b4a565b80601f016020809104026020016040519081016040528092919081815260200182805461053790610b4a565b80156105825780601f1061055957610100808354040283529160200191610582565b820191905f5260205f20905b81548152906001019060200180831161056557829003601f168201915b50505050509080600201805461059790610b4a565b80601f01602080910402602001604051908101604052809291908181526020018280546105c390610b4a565b801561060e5780601f106105e55761010080835404028352916020019161060e565b820191905f5260205f20905b8154815290600101906020018083116105f157829003601f168201915b505050505090806003015f9054906101000a900461ffff16908060030160029054906101000a900473ffffffffffffffffffffffffffffffffffffffff16905085565b845f5f0190816106619190610dea565b50835f60010190816106739190610dea565b50825f60020190816106859190610dea565b50815f6003015f6101000a81548161ffff021916908361ffff160217905550805f60030160026101000a81548173ffffffffffffffffffffffffffffffffffffffff021916908373ffffffffffffffffffffffffffffffffffffffff1602179055505050505050565b5f670de0b6b3a7640000826107039190610ee6565b9050919050565b5f81519050919050565b5f82825260208201905092915050565b8281835e5f83830152505050565b5f601f19601f8301169050919050565b5f61074c8261070a565b6107568185610714565b9350610766818560208601610724565b61076f81610732565b840191505092915050565b5f61ffff82169050919050565b6107908161077a565b82525050565b5f73ffffffffffffffffffffffffffffffffffffffff82169050919050565b5f6107bf82610796565b9050919050565b6107cf816107b5565b82525050565b5f60a0820190508181035f8301526107ed8188610742565b905081810360208301526108018187610742565b905081810360408301526108158186610742565b90506108246060830185610787565b61083160808301846107c6565b9695505050505050565b5f604051905090565b5f5ffd5b5f5ffd5b5f5ffd5b5f5ffd5b7f4e487b71000000000000000000000000000000000000000000000000000000005f52604160045260245ffd5b61088a82610732565b810181811067ffffffffffffffff821117156108a9576108a8610854565b5b80604052505050565b5f6108bb61083b565b90506108c78282610881565b919050565b5f67ffffffffffffffff8211156108e6576108e5610854565b5b6108ef82610732565b9050602081019050919050565b828183375f83830152505050565b5f61091c610917846108cc565b6108b2565b90508281526020810184848401111561093857610937610850565b5b6109438482856108fc565b509392505050565b5f82601f83011261095f5761095e61084c565b5b813561096f84826020860161090a565b91505092915050565b6109818161077a565b811461098b575f5ffd5b50565b5f8135905061099c81610978565b92915050565b6109ab816107b5565b81146109b5575f5ffd5b50565b5f813590506109c6816109a2565b92915050565b5f5f5f5f5f60a086880312156109e5576109e4610844565b5b5f86013567ffffffffffffffff811115610a0257610a01610848565b5b610a0e8882890161094b565b955050602086013567ffffffffffffffff811115610a2f57610a2e610848565b5b610a3b8882890161094b565b945050604086013567ffffffffffffffff811115610a5c57610a5b610848565b5b610a688882890161094b565b9350506060610a798882890161098e565b9250506080610a8a888289016109b8565b9150509295509295909350565b5f819050919050565b610aa981610a97565b8114610ab3575f5ffd5b50565b5f81359050610ac481610aa0565b92915050565b5f60208284031215610adf57610ade610844565b5b5f610aec84828501610ab6565b91505092915050565b610afe81610a97565b82525050565b5f602082019050610b175f830184610af5565b92915050565b7f4e487b71000000000000000000000000000000000000000000000000000000005f52602260045260245ffd5b5f6002820490506001821680610b6157607f821691505b602082108103610b7457610b73610b1d565b5b50919050565b7f496e73756666696369656e74207061796d656e7420616d6f756e7400000000005f82015250565b5f610bae601b83610714565b9150610bb982610b7a565b602082019050919050565b5f6020820190508181035f830152610bdb81610ba2565b9050919050565b7f456d706c6f7965652077616c6c6574206e6f74207365740000000000000000005f82015250565b5f610c16601783610714565b9150610c2182610be2565b602082019050919050565b5f6020820190508181035f830152610c4381610c0a565b9050919050565b5f819050815f5260205f209050919050565b5f6020601f8301049050919050565b5f82821b905092915050565b5f60088302610ca67fffffffffffffffffffffffffffffffffffffffffffffffffffffffffffffffff82610c6b565b610cb08683610c6b565b95508019841693508086168417925050509392505050565b5f819050919050565b5f610ceb610ce6610ce184610a97565b610cc8565b610a97565b9050919050565b5f819050919050565b610d0483610cd1565b610d18610d1082610cf2565b848454610c77565b825550505050565b5f5f905090565b610d2f610d20565b610d3a818484610cfb565b505050565b5b81811015610d5d57610d525f82610d27565b600181019050610d40565b5050565b601f821115610da257610d7381610c4a565b610d7c84610c5c565b81016020851015610d8b578190505b610d9f610d9785610c5c565b830182610d3f565b50505b505050565b5f82821c905092915050565b5f610dc25f1984600802610da7565b1980831691505092915050565b5f610dda8383610db3565b9150826002028217905092915050565b610df38261070a565b67ffffffffffffffff811115610e0c57610e0b610854565b5b610e168254610b4a565b610e21828285610d61565b5f60209050601f831160018114610e52575f8415610e40578287015190505b610e4a8582610dcf565b865550610eb1565b601f198416610e6086610c4a565b5f5b82811015610e8757848901518255600182019150602085019450602081019050610e62565b86831015610ea45784890151610ea0601f891682610db3565b8355505b6001600288020188555050505b505050505050565b7f4e487b71000000000000000000000000000000000000000000000000000000005f52601160045260245ffd5b5f610ef082610a97565b9150610efb83610a97565b9250828202610f0981610a97565b91508282048414831517610f2057610f1f610eb9565b5b509291505056fea26469706673582212203d1df019e798c80801263659bd17f45481c96fdabbcafc354764d274e3a3d8ed64736f6c634300081c0033",
					"opcodes": "PUSH1 0x80 PUSH1 0x40 MSTORE CALLVALUE DUP1 ISZERO PUSH1 0xE JUMPI PUSH0 PUSH0 REVERT JUMPDEST POP PUSH2 0xF5D DUP1 PUSH2 0x1C PUSH0 CODECOPY PUSH0 RETURN INVALID PUSH1 0x80 PUSH1 0x40 MSTORE PUSH1 0x4 CALLDATASIZE LT PUSH2 0x49 JUMPI PUSH0 CALLDATALOAD PUSH1 0xE0 SHR DUP1 PUSH4 0x4132DB8F EQ PUSH2 0x4D JUMPI DUP1 PUSH4 0x6E10A8BB EQ PUSH2 0x7B JUMPI DUP1 PUSH4 0xA0A1A7D7 EQ PUSH2 0x85 JUMPI DUP1 PUSH4 0xBB425001 EQ PUSH2 0xB3 JUMPI DUP1 PUSH4 0xD1F3BF1D EQ PUSH2 0xDB JUMPI JUMPDEST PUSH0 PUSH0 REVERT JUMPDEST CALLVALUE DUP1 ISZERO PUSH2 0x58 JUMPI PUSH0 PUSH0 REVERT JUMPDEST POP PUSH2 0x61 PUSH2 0x117 JUMP JUMPDEST PUSH1 0x40 MLOAD PUSH2 0x72 SWAP6 SWAP5 SWAP4 SWAP3 SWAP2 SWAP1 PUSH2 0x7D5 JUMP JUMPDEST PUSH1 0x40 MLOAD DUP1 SWAP2 SUB SWAP1 RETURN JUMPDEST PUSH2 0x83 PUSH2 0x30F JUMP JUMPDEST STOP JUMPDEST CALLVALUE DUP1 ISZERO PUSH2 0x90 JUMPI PUSH0 PUSH0 REVERT JUMPDEST POP PUSH2 0x99 PUSH2 0x470 JUMP JUMPDEST PUSH1 0x40 MLOAD PUSH2 0xAA SWAP6 SWAP5 SWAP4 SWAP3 SWAP2 SWAP1 PUSH2 0x7D5 JUMP JUMPDEST PUSH1 0x40 MLOAD DUP1 SWAP2 SUB SWAP1 RETURN JUMPDEST CALLVALUE DUP1 ISZERO PUSH2 0xBE JUMPI PUSH0 PUSH0 REVERT JUMPDEST POP PUSH2 0xD9 PUSH1 0x4 DUP1 CALLDATASIZE SUB DUP2 ADD SWAP1 PUSH2 0xD4 SWAP2 SWAP1 PUSH2 0x9CC JUMP JUMPDEST PUSH2 0x651 JUMP JUMPDEST STOP JUMPDEST CALLVALUE DUP1 ISZERO PUSH2 0xE6 JUMPI PUSH0 PUSH0 REVERT JUMPDEST POP PUSH2 0x101 PUSH1 0x4 DUP1 CALLDATASIZE SUB DUP2 ADD SWAP1 PUSH2 0xFC SWAP2 SWAP1 PUSH2 0xACA JUMP JUMPDEST PUSH2 0x6EE JUMP JUMPDEST PUSH1 0x40 MLOAD PUSH2 0x10E SWAP2 SWAP1 PUSH2 0xB04 JUMP JUMPDEST PUSH1 0x40 MLOAD DUP1 SWAP2 SUB SWAP1 RETURN JUMPDEST PUSH1 0x60 DUP1 PUSH1 0x60 PUSH0 PUSH0 PUSH0 PUSH0 ADD PUSH0 PUSH1 0x1 ADD PUSH0 PUSH1 0x2 ADD PUSH0 PUSH1 0x3 ADD PUSH0 SWAP1 SLOAD SWAP1 PUSH2 0x100 EXP SWAP1 DIV PUSH2 0xFFFF AND PUSH0 PUSH1 0x3 ADD PUSH1 0x2 SWAP1 SLOAD SWAP1 PUSH2 0x100 EXP SWAP1 DIV PUSH20 0xFFFFFFFFFFFFFFFFFFFFFFFFFFFFFFFFFFFFFFFF AND DUP5 DUP1 SLOAD PUSH2 0x16C SWAP1 PUSH2 0xB4A JUMP JUMPDEST DUP1 PUSH1 0x1F ADD PUSH1 0x20 DUP1 SWAP2 DIV MUL PUSH1 0x20 ADD PUSH1 0x40 MLOAD SWAP1 DUP2 ADD PUSH1 0x40 MSTORE DUP1 SWAP3 SWAP2 SWAP1 DUP2 DUP2 MSTORE PUSH1 0x20 ADD DUP3 DUP1 SLOAD PUSH2 0x198 SWAP1 PUSH2 0xB4A JUMP JUMPDEST DUP1 ISZERO PUSH2 0x1E3 JUMPI DUP1 PUSH1 0x1F LT PUSH2 0x1BA JUMPI PUSH2 0x100 DUP1 DUP4 SLOAD DIV MUL DUP4 MSTORE SWAP2 PUSH1 0x20 ADD SWAP2 PUSH2 0x1E3 JUMP JUMPDEST DUP3 ADD SWAP2 SWAP1 PUSH0 MSTORE PUSH1 0x20 PUSH0 KECCAK256 SWAP1 JUMPDEST DUP2 SLOAD DUP2 MSTORE SWAP1 PUSH1 0x1 ADD SWAP1 PUSH1 0x20 ADD DUP1 DUP4 GT PUSH2 0x1C6 JUMPI DUP3 SWAP1 SUB PUSH1 0x1F AND DUP3 ADD SWAP2 JUMPDEST POP POP POP POP POP SWAP5 POP DUP4 DUP1 SLOAD PUSH2 0x1F6 SWAP1 PUSH2 0xB4A JUMP JUMPDEST DUP1 PUSH1 0x1F ADD PUSH1 0x20 DUP1 SWAP2 DIV MUL PUSH1 0x20 ADD PUSH1 0x40 MLOAD SWAP1 DUP2 ADD PUSH1 0x40 MSTORE DUP1 SWAP3 SWAP2 SWAP1 DUP2 DUP2 MSTORE PUSH1 0x20 ADD DUP3 DUP1 SLOAD PUSH2 0x222 SWAP1 PUSH2 0xB4A JUMP JUMPDEST DUP1 ISZERO PUSH2 0x26D JUMPI DUP1 PUSH1 0x1F LT PUSH2 0x244 JUMPI PUSH2 0x100 DUP1 DUP4 SLOAD DIV MUL DUP4 MSTORE SWAP2 PUSH1 0x20 ADD SWAP2 PUSH2 0x26D JUMP JUMPDEST DUP3 ADD SWAP2 SWAP1 PUSH0 MSTORE PUSH1 0x20 PUSH0 KECCAK256 SWAP1 JUMPDEST DUP2 SLOAD DUP2 MSTORE SWAP1 PUSH1 0x1 ADD SWAP1 PUSH1 0x20 ADD DUP1 DUP4 GT PUSH2 0x250 JUMPI DUP3 SWAP1 SUB PUSH1 0x1F AND DUP3 ADD SWAP2 JUMPDEST POP POP POP POP POP SWAP4 POP DUP3 DUP1 SLOAD PUSH2 0x280 SWAP1 PUSH2 0xB4A JUMP JUMPDEST DUP1 PUSH1 0x1F ADD PUSH1 0x20 DUP1 SWAP2 DIV MUL PUSH1 0x20 ADD PUSH1 0x40 MLOAD SWAP1 DUP2 ADD PUSH1 0x40 MSTORE DUP1 SWAP3 SWAP2 SWAP1 DUP2 DUP2 MSTORE PUSH1 0x20 ADD DUP3 DUP1 SLOAD PUSH2 0x2AC SWAP1 PUSH2 0xB4A JUMP JUMPDEST DUP1 ISZERO PUSH2 0x2F7 JUMPI DUP1 PUSH1 0x1F LT PUSH2 0x2CE JUMPI PUSH2 0x100 DUP1 DUP4 SLOAD DIV MUL DUP4 MSTORE SWAP2 PUSH1 0x20 ADD SWAP2 PUSH2 0x2F7 JUMP JUMPDEST DUP3 ADD SWAP2 SWAP1 PUSH0 MSTORE PUSH1 0x20 PUSH0 KECCAK256 SWAP1 JUMPDEST DUP2 SLOAD DUP2 MSTORE SWAP1 PUSH1 0x1 ADD SWAP1 PUSH1 0x20 ADD DUP1 DUP4 GT PUSH2 0x2DA JUMPI DUP3 SWAP1 SUB PUSH1 0x1F AND DUP3 ADD SWAP2 JUMPDEST POP POP POP POP POP SWAP3 POP SWAP5 POP SWAP5 POP SWAP5 POP SWAP5 POP SWAP5 POP SWAP1 SWAP2 SWAP3 SWAP4 SWAP5 JUMP JUMPDEST PUSH0 PUSH2 0x32E PUSH0 PUSH1 0x3 ADD PUSH0 SWAP1 SLOAD SWAP1 PUSH2 0x100 EXP SWAP1 DIV PUSH2 0xFFFF AND PUSH2 0xFFFF AND PUSH2 0x6EE JUMP JUMPDEST SWAP1 POP DUP1 CALLVALUE LT ISZERO PUSH2 0x373 JUMPI PUSH1 0x40 MLOAD PUSH32 0x8C379A000000000000000000000000000000000000000000000000000000000 DUP2 MSTORE PUSH1 0x4 ADD PUSH2 0x36A SWAP1 PUSH2 0xBC4 JUMP JUMPDEST PUSH1 0x40 MLOAD DUP1 SWAP2 SUB SWAP1 REVERT JUMPDEST PUSH0 PUSH20 0xFFFFFFFFFFFFFFFFFFFFFFFFFFFFFFFFFFFFFFFF AND PUSH0 PUSH1 0x3 ADD PUSH1 0x2 SWAP1 SLOAD SWAP1 PUSH2 0x100 EXP SWAP1 DIV PUSH20 0xFFFFFFFFFFFFFFFFFFFFFFFFFFFFFFFFFFFFFFFF AND PUSH20 0xFFFFFFFFFFFFFFFFFFFFFFFFFFFFFFFFFFFFFFFF AND SUB PUSH2 0x405 JUMPI PUSH1 0x40 MLOAD PUSH32 0x8C379A000000000000000000000000000000000000000000000000000000000 DUP2 MSTORE PUSH1 0x4 ADD PUSH2 0x3FC SWAP1 PUSH2 0xC2C JUMP JUMPDEST PUSH1 0x40 MLOAD DUP1 SWAP2 SUB SWAP1 REVERT JUMPDEST PUSH0 PUSH1 0x3 ADD PUSH1 0x2 SWAP1 SLOAD SWAP1 PUSH2 0x100 EXP SWAP1 DIV PUSH20 0xFFFFFFFFFFFFFFFFFFFFFFFFFFFFFFFFFFFFFFFF AND PUSH20 0xFFFFFFFFFFFFFFFFFFFFFFFFFFFFFFFFFFFFFFFF AND PUSH2 0x8FC DUP3 SWAP1 DUP2 ISZERO MUL SWAP1 PUSH1 0x40 MLOAD PUSH0 PUSH1 0x40 MLOAD DUP1 DUP4 SUB DUP2 DUP6 DUP9 DUP9 CALL SWAP4 POP POP POP POP ISZERO DUP1 ISZERO PUSH2 0x46C JUMPI RETURNDATASIZE PUSH0 PUSH0 RETURNDATACOPY RETURNDATASIZE PUSH0 REVERT JUMPDEST POP POP JUMP JUMPDEST PUSH0 DUP1 PUSH0 ADD DUP1 SLOAD PUSH2 0x47F SWAP1 PUSH2 0xB4A JUMP JUMPDEST DUP1 PUSH1 0x1F ADD PUSH1 0x20 DUP1 SWAP2 DIV MUL PUSH1 0x20 ADD PUSH1 0x40 MLOAD SWAP1 DUP2 ADD PUSH1 0x40 MSTORE DUP1 SWAP3 SWAP2 SWAP1 DUP2 DUP2 MSTORE PUSH1 0x20 ADD DUP3 DUP1 SLOAD PUSH2 0x4AB SWAP1 PUSH2 0xB4A JUMP JUMPDEST DUP1 ISZERO PUSH2 0x4F6 JUMPI DUP1 PUSH1 0x1F LT PUSH2 0x4CD JUMPI PUSH2 0x100 DUP1 DUP4 SLOAD DIV MUL DUP4 MSTORE SWAP2 PUSH1 0x20 ADD SWAP2 PUSH2 0x4F6 JUMP JUMPDEST DUP3 ADD SWAP2 SWAP1 PUSH0 MSTORE PUSH1 0x20 PUSH0 KECCAK256 SWAP1 JUMPDEST DUP2 SLOAD DUP2 MSTORE SWAP1 PUSH1 0x1 ADD SWAP1 PUSH1 0x20 ADD DUP1 DUP4 GT PUSH2 0x4D9 JUMPI DUP3 SWAP1 SUB PUSH1 0x1F AND DUP3 ADD SWAP2 JUMPDEST POP POP POP POP POP SWAP1 DUP1 PUSH1 0x1 ADD DUP1 SLOAD PUSH2 0x50B SWAP1 PUSH2 0xB4A JUMP JUMPDEST DUP1 PUSH1 0x1F ADD PUSH1 0x20 DUP1 SWAP2 DIV MUL PUSH1 0x20 ADD PUSH1 0x40 MLOAD SWAP1 DUP2 ADD PUSH1 0x40 MSTORE DUP1 SWAP3 SWAP2 SWAP1 DUP2 DUP2 MSTORE PUSH1 0x20 ADD DUP3 DUP1 SLOAD PUSH2 0x537 SWAP1 PUSH2 0xB4A JUMP JUMPDEST DUP1 ISZERO PUSH2 0x582 JUMPI DUP1 PUSH1 0x1F LT PUSH2 0x559 JUMPI PUSH2 0x100 DUP1 DUP4 SLOAD DIV MUL DUP4 MSTORE SWAP2 PUSH1 0x20 ADD SWAP2 PUSH2 0x582 JUMP JUMPDEST DUP3 ADD SWAP2 SWAP1 PUSH0 MSTORE PUSH1 0x20 PUSH0 KECCAK256 SWAP1 JUMPDEST DUP2 SLOAD DUP2 MSTORE SWAP1 PUSH1 0x1 ADD SWAP1 PUSH1 0x20 ADD DUP1 DUP4 GT PUSH2 0x565 JUMPI DUP3 SWAP1 SUB PUSH1 0x1F AND DUP3 ADD SWAP2 JUMPDEST POP POP POP POP POP SWAP1 DUP1 PUSH1 0x2 ADD DUP1 SLOAD PUSH2 0x597 SWAP1 PUSH2 0xB4A JUMP JUMPDEST DUP1 PUSH1 0x1F ADD PUSH1 0x20 DUP1 SWAP2 DIV MUL PUSH1 0x20 ADD PUSH1 0x40 MLOAD SWAP1 DUP2 ADD PUSH1 0x40 MSTORE DUP1 SWAP3 SWAP2 SWAP1 DUP2 DUP2 MSTORE PUSH1 0x20 ADD DUP3 DUP1 SLOAD PUSH2 0x5C3 SWAP1 PUSH2 0xB4A JUMP JUMPDEST DUP1 ISZERO PUSH2 0x60E JUMPI DUP1 PUSH1 0x1F LT PUSH2 0x5E5 JUMPI PUSH2 0x100 DUP1 DUP4 SLOAD DIV MUL DUP4 MSTORE SWAP2 PUSH1 0x20 ADD SWAP2 PUSH2 0x60E JUMP JUMPDEST DUP3 ADD SWAP2 SWAP1 PUSH0 MSTORE PUSH1 0x20 PUSH0 KECCAK256 SWAP1 JUMPDEST DUP2 SLOAD DUP2 MSTORE SWAP1 PUSH1 0x1 ADD SWAP1 PUSH1 0x20 ADD DUP1 DUP4 GT PUSH2 0x5F1 JUMPI DUP3 SWAP1 SUB PUSH1 0x1F AND DUP3 ADD SWAP2 JUMPDEST POP POP POP POP POP SWAP1 DUP1 PUSH1 0x3 ADD PUSH0 SWAP1 SLOAD SWAP1 PUSH2 0x100 EXP SWAP1 DIV PUSH2 0xFFFF AND SWAP1 DUP1 PUSH1 0x3 ADD PUSH1 0x2 SWAP1 SLOAD SWAP1 PUSH2 0x100 EXP SWAP1 DIV PUSH20 0xFFFFFFFFFFFFFFFFFFFFFFFFFFFFFFFFFFFFFFFF AND SWAP1 POP DUP6 JUMP JUMPDEST DUP5 PUSH0 PUSH0 ADD SWAP1 DUP2 PUSH2 0x661 SWAP2 SWAP1 PUSH2 0xDEA JUMP JUMPDEST POP DUP4 PUSH0 PUSH1 0x1 ADD SWAP1 DUP2 PUSH2 0x673 SWAP2 SWAP1 PUSH2 0xDEA JUMP JUMPDEST POP DUP3 PUSH0 PUSH1 0x2 ADD SWAP1 DUP2 PUSH2 0x685 SWAP2 SWAP1 PUSH2 0xDEA JUMP JUMPDEST POP DUP2 PUSH0 PUSH1 0x3 ADD PUSH0 PUSH2 0x100 EXP DUP2 SLOAD DUP2 PUSH2 0xFFFF MUL NOT AND SWAP1 DUP4 PUSH2 0xFFFF AND MUL OR SWAP1 SSTORE POP DUP1 PUSH0 PUSH1 0x3 ADD PUSH1 0x2 PUSH2 0x100 EXP DUP2 SLOAD DUP2 PUSH20 0xFFFFFFFFFFFFFFFFFFFFFFFFFFFFFFFFFFFFFFFF MUL NOT AND SWAP1 DUP4 PUSH20 0xFFFFFFFFFFFFFFFFFFFFFFFFFFFFFFFFFFFFFFFF AND MUL OR SWAP1 SSTORE POP POP POP POP POP POP JUMP JUMPDEST PUSH0 PUSH8 0xDE0B6B3A7640000 DUP3 PUSH2 0x703 SWAP2 SWAP1 PUSH2 0xEE6 JUMP JUMPDEST SWAP1 POP SWAP2 SWAP1 POP JUMP JUMPDEST PUSH0 DUP2 MLOAD SWAP1 POP SWAP2 SWAP1 POP JUMP JUMPDEST PUSH0 DUP3 DUP3 MSTORE PUSH1 0x20 DUP3 ADD SWAP1 POP SWAP3 SWAP2 POP POP JUMP JUMPDEST DUP3 DUP2 DUP4 MCOPY PUSH0 DUP4 DUP4 ADD MSTORE POP POP POP JUMP JUMPDEST PUSH0 PUSH1 0x1F NOT PUSH1 0x1F DUP4 ADD AND SWAP1 POP SWAP2 SWAP1 POP JUMP JUMPDEST PUSH0 PUSH2 0x74C DUP3 PUSH2 0x70A JUMP JUMPDEST PUSH2 0x756 DUP2 DUP6 PUSH2 0x714 JUMP JUMPDEST SWAP4 POP PUSH2 0x766 DUP2 DUP6 PUSH1 0x20 DUP7 ADD PUSH2 0x724 JUMP JUMPDEST PUSH2 0x76F DUP2 PUSH2 0x732 JUMP JUMPDEST DUP5 ADD SWAP2 POP POP SWAP3 SWAP2 POP POP JUMP JUMPDEST PUSH0 PUSH2 0xFFFF DUP3 AND SWAP1 POP SWAP2 SWAP1 POP JUMP JUMPDEST PUSH2 0x790 DUP2 PUSH2 0x77A JUMP JUMPDEST DUP3 MSTORE POP POP JUMP JUMPDEST PUSH0 PUSH20 0xFFFFFFFFFFFFFFFFFFFFFFFFFFFFFFFFFFFFFFFF DUP3 AND SWAP1 POP SWAP2 SWAP1 POP JUMP JUMPDEST PUSH0 PUSH2 0x7BF DUP3 PUSH2 0x796 JUMP JUMPDEST SWAP1 POP SWAP2 SWAP1 POP JUMP JUMPDEST PUSH2 0x7CF DUP2 PUSH2 0x7B5 JUMP JUMPDEST DUP3 MSTORE POP POP JUMP JUMPDEST PUSH0 PUSH1 0xA0 DUP3 ADD SWAP1 POP DUP2 DUP2 SUB PUSH0 DUP4 ADD MSTORE PUSH2 0x7ED DUP2 DUP9 PUSH2 0x742 JUMP JUMPDEST SWAP1 POP DUP2 DUP2 SUB PUSH1 0x20 DUP4 ADD MSTORE PUSH2 0x801 DUP2 DUP8 PUSH2 0x742 JUMP JUMPDEST SWAP1 POP DUP2 DUP2 SUB PUSH1 0x40 DUP4 ADD MSTORE PUSH2 0x815 DUP2 DUP7 PUSH2 0x742 JUMP JUMPDEST SWAP1 POP PUSH2 0x824 PUSH1 0x60 DUP4 ADD DUP6 PUSH2 0x787 JUMP JUMPDEST PUSH2 0x831 PUSH1 0x80 DUP4 ADD DUP5 PUSH2 0x7C6 JUMP JUMPDEST SWAP7 SWAP6 POP POP POP POP POP POP JUMP JUMPDEST PUSH0 PUSH1 0x40 MLOAD SWAP1 POP SWAP1 JUMP JUMPDEST PUSH0 PUSH0 REVERT JUMPDEST PUSH0 PUSH0 REVERT JUMPDEST PUSH0 PUSH0 REVERT JUMPDEST PUSH0 PUSH0 REVERT JUMPDEST PUSH32 0x4E487B7100000000000000000000000000000000000000000000000000000000 PUSH0 MSTORE PUSH1 0x41 PUSH1 0x4 MSTORE PUSH1 0x24 PUSH0 REVERT JUMPDEST PUSH2 0x88A DUP3 PUSH2 0x732 JUMP JUMPDEST DUP2 ADD DUP2 DUP2 LT PUSH8 0xFFFFFFFFFFFFFFFF DUP3 GT OR ISZERO PUSH2 0x8A9 JUMPI PUSH2 0x8A8 PUSH2 0x854 JUMP JUMPDEST JUMPDEST DUP1 PUSH1 0x40 MSTORE POP POP POP JUMP JUMPDEST PUSH0 PUSH2 0x8BB PUSH2 0x83B JUMP JUMPDEST SWAP1 POP PUSH2 0x8C7 DUP3 DUP3 PUSH2 0x881 JUMP JUMPDEST SWAP2 SWAP1 POP JUMP JUMPDEST PUSH0 PUSH8 0xFFFFFFFFFFFFFFFF DUP3 GT ISZERO PUSH2 0x8E6 JUMPI PUSH2 0x8E5 PUSH2 0x854 JUMP JUMPDEST JUMPDEST PUSH2 0x8EF DUP3 PUSH2 0x732 JUMP JUMPDEST SWAP1 POP PUSH1 0x20 DUP2 ADD SWAP1 POP SWAP2 SWAP1 POP JUMP JUMPDEST DUP3 DUP2 DUP4 CALLDATACOPY PUSH0 DUP4 DUP4 ADD MSTORE POP POP POP JUMP JUMPDEST PUSH0 PUSH2 0x91C PUSH2 0x917 DUP5 PUSH2 0x8CC JUMP JUMPDEST PUSH2 0x8B2 JUMP JUMPDEST SWAP1 POP DUP3 DUP2 MSTORE PUSH1 0x20 DUP2 ADD DUP5 DUP5 DUP5 ADD GT ISZERO PUSH2 0x938 JUMPI PUSH2 0x937 PUSH2 0x850 JUMP JUMPDEST JUMPDEST PUSH2 0x943 DUP5 DUP3 DUP6 PUSH2 0x8FC JUMP JUMPDEST POP SWAP4 SWAP3 POP POP POP JUMP JUMPDEST PUSH0 DUP3 PUSH1 0x1F DUP4 ADD SLT PUSH2 0x95F JUMPI PUSH2 0x95E PUSH2 0x84C JUMP JUMPDEST JUMPDEST DUP2 CALLDATALOAD PUSH2 0x96F DUP5 DUP3 PUSH1 0x20 DUP7 ADD PUSH2 0x90A JUMP JUMPDEST SWAP2 POP POP SWAP3 SWAP2 POP POP JUMP JUMPDEST PUSH2 0x981 DUP2 PUSH2 0x77A JUMP JUMPDEST DUP2 EQ PUSH2 0x98B JUMPI PUSH0 PUSH0 REVERT JUMPDEST POP JUMP JUMPDEST PUSH0 DUP2 CALLDATALOAD SWAP1 POP PUSH2 0x99C DUP2 PUSH2 0x978 JUMP JUMPDEST SWAP3 SWAP2 POP POP JUMP JUMPDEST PUSH2 0x9AB DUP2 PUSH2 0x7B5 JUMP JUMPDEST DUP2 EQ PUSH2 0x9B5 JUMPI PUSH0 PUSH0 REVERT JUMPDEST POP JUMP JUMPDEST PUSH0 DUP2 CALLDATALOAD SWAP1 POP PUSH2 0x9C6 DUP2 PUSH2 0x9A2 JUMP JUMPDEST SWAP3 SWAP2 POP POP JUMP JUMPDEST PUSH0 PUSH0 PUSH0 PUSH0 PUSH0 PUSH1 0xA0 DUP7 DUP9 SUB SLT ISZERO PUSH2 0x9E5 JUMPI PUSH2 0x9E4 PUSH2 0x844 JUMP JUMPDEST JUMPDEST PUSH0 DUP7 ADD CALLDATALOAD PUSH8 0xFFFFFFFFFFFFFFFF DUP2 GT ISZERO PUSH2 0xA02 JUMPI PUSH2 0xA01 PUSH2 0x848 JUMP JUMPDEST JUMPDEST PUSH2 0xA0E DUP9 DUP3 DUP10 ADD PUSH2 0x94B JUMP JUMPDEST SWAP6 POP POP PUSH1 0x20 DUP7 ADD CALLDATALOAD PUSH8 0xFFFFFFFFFFFFFFFF DUP2 GT ISZERO PUSH2 0xA2F JUMPI PUSH2 0xA2E PUSH2 0x848 JUMP JUMPDEST JUMPDEST PUSH2 0xA3B DUP9 DUP3 DUP10 ADD PUSH2 0x94B JUMP JUMPDEST SWAP5 POP POP PUSH1 0x40 DUP7 ADD CALLDATALOAD PUSH8 0xFFFFFFFFFFFFFFFF DUP2 GT ISZERO PUSH2 0xA5C JUMPI PUSH2 0xA5B PUSH2 0x848 JUMP JUMPDEST JUMPDEST PUSH2 0xA68 DUP9 DUP3 DUP10 ADD PUSH2 0x94B JUMP JUMPDEST SWAP4 POP POP PUSH1 0x60 PUSH2 0xA79 DUP9 DUP3 DUP10 ADD PUSH2 0x98E JUMP JUMPDEST SWAP3 POP POP PUSH1 0x80 PUSH2 0xA8A DUP9 DUP3 DUP10 ADD PUSH2 0x9B8 JUMP JUMPDEST SWAP2 POP POP SWAP3 SWAP6 POP SWAP3 SWAP6 SWAP1 SWAP4 POP JUMP JUMPDEST PUSH0 DUP2 SWAP1 POP SWAP2 SWAP1 POP JUMP JUMPDEST PUSH2 0xAA9 DUP2 PUSH2 0xA97 JUMP JUMPDEST DUP2 EQ PUSH2 0xAB3 JUMPI PUSH0 PUSH0 REVERT JUMPDEST POP JUMP JUMPDEST PUSH0 DUP2 CALLDATALOAD SWAP1 POP PUSH2 0xAC4 DUP2 PUSH2 0xAA0 JUMP JUMPDEST SWAP3 SWAP2 POP POP JUMP JUMPDEST PUSH0 PUSH1 0x20 DUP3 DUP5 SUB SLT ISZERO PUSH2 0xADF JUMPI PUSH2 0xADE PUSH2 0x844 JUMP JUMPDEST JUMPDEST PUSH0 PUSH2 0xAEC DUP5 DUP3 DUP6 ADD PUSH2 0xAB6 JUMP JUMPDEST SWAP2 POP POP SWAP3 SWAP2 POP POP JUMP JUMPDEST PUSH2 0xAFE DUP2 PUSH2 0xA97 JUMP JUMPDEST DUP3 MSTORE POP POP JUMP JUMPDEST PUSH0 PUSH1 0x20 DUP3 ADD SWAP1 POP PUSH2 0xB17 PUSH0 DUP4 ADD DUP5 PUSH2 0xAF5 JUMP JUMPDEST SWAP3 SWAP2 POP POP JUMP JUMPDEST PUSH32 0x4E487B7100000000000000000000000000000000000000000000000000000000 PUSH0 MSTORE PUSH1 0x22 PUSH1 0x4 MSTORE PUSH1 0x24 PUSH0 REVERT JUMPDEST PUSH0 PUSH1 0x2 DUP3 DIV SWAP1 POP PUSH1 0x1 DUP3 AND DUP1 PUSH2 0xB61 JUMPI PUSH1 0x7F DUP3 AND SWAP2 POP JUMPDEST PUSH1 0x20 DUP3 LT DUP2 SUB PUSH2 0xB74 JUMPI PUSH2 0xB73 PUSH2 0xB1D JUMP JUMPDEST JUMPDEST POP SWAP2 SWAP1 POP JUMP JUMPDEST PUSH32 0x496E73756666696369656E74207061796D656E7420616D6F756E740000000000 PUSH0 DUP3 ADD MSTORE POP JUMP JUMPDEST PUSH0 PUSH2 0xBAE PUSH1 0x1B DUP4 PUSH2 0x714 JUMP JUMPDEST SWAP2 POP PUSH2 0xBB9 DUP3 PUSH2 0xB7A JUMP JUMPDEST PUSH1 0x20 DUP3 ADD SWAP1 POP SWAP2 SWAP1 POP JUMP JUMPDEST PUSH0 PUSH1 0x20 DUP3 ADD SWAP1 POP DUP2 DUP2 SUB PUSH0 DUP4 ADD MSTORE PUSH2 0xBDB DUP2 PUSH2 0xBA2 JUMP JUMPDEST SWAP1 POP SWAP2 SWAP1 POP JUMP JUMPDEST PUSH32 0x456D706C6F7965652077616C6C6574206E6F7420736574000000000000000000 PUSH0 DUP3 ADD MSTORE POP JUMP JUMPDEST PUSH0 PUSH2 0xC16 PUSH1 0x17 DUP4 PUSH2 0x714 JUMP JUMPDEST SWAP2 POP PUSH2 0xC21 DUP3 PUSH2 0xBE2 JUMP JUMPDEST PUSH1 0x20 DUP3 ADD SWAP1 POP SWAP2 SWAP1 POP JUMP JUMPDEST PUSH0 PUSH1 0x20 DUP3 ADD SWAP1 POP DUP2 DUP2 SUB PUSH0 DUP4 ADD MSTORE PUSH2 0xC43 DUP2 PUSH2 0xC0A JUMP JUMPDEST SWAP1 POP SWAP2 SWAP1 POP JUMP JUMPDEST PUSH0 DUP2 SWAP1 POP DUP2 PUSH0 MSTORE PUSH1 0x20 PUSH0 KECCAK256 SWAP1 POP SWAP2 SWAP1 POP JUMP JUMPDEST PUSH0 PUSH1 0x20 PUSH1 0x1F DUP4 ADD DIV SWAP1 POP SWAP2 SWAP1 POP JUMP JUMPDEST PUSH0 DUP3 DUP3 SHL SWAP1 POP SWAP3 SWAP2 POP POP JUMP JUMPDEST PUSH0 PUSH1 0x8 DUP4 MUL PUSH2 0xCA6 PUSH32 0xFFFFFFFFFFFFFFFFFFFFFFFFFFFFFFFFFFFFFFFFFFFFFFFFFFFFFFFFFFFFFFFF DUP3 PUSH2 0xC6B JUMP JUMPDEST PUSH2 0xCB0 DUP7 DUP4 PUSH2 0xC6B JUMP JUMPDEST SWAP6 POP DUP1 NOT DUP5 AND SWAP4 POP DUP1 DUP7 AND DUP5 OR SWAP3 POP POP POP SWAP4 SWAP3 POP POP POP JUMP JUMPDEST PUSH0 DUP2 SWAP1 POP SWAP2 SWAP1 POP JUMP JUMPDEST PUSH0 PUSH2 0xCEB PUSH2 0xCE6 PUSH2 0xCE1 DUP5 PUSH2 0xA97 JUMP JUMPDEST PUSH2 0xCC8 JUMP JUMPDEST PUSH2 0xA97 JUMP JUMPDEST SWAP1 POP SWAP2 SWAP1 POP JUMP JUMPDEST PUSH0 DUP2 SWAP1 POP SWAP2 SWAP1 POP JUMP JUMPDEST PUSH2 0xD04 DUP4 PUSH2 0xCD1 JUMP JUMPDEST PUSH2 0xD18 PUSH2 0xD10 DUP3 PUSH2 0xCF2 JUMP JUMPDEST DUP5 DUP5 SLOAD PUSH2 0xC77 JUMP JUMPDEST DUP3 SSTORE POP POP POP POP JUMP JUMPDEST PUSH0 PUSH0 SWAP1 POP SWAP1 JUMP JUMPDEST PUSH2 0xD2F PUSH2 0xD20 JUMP JUMPDEST PUSH2 0xD3A DUP2 DUP5 DUP5 PUSH2 0xCFB JUMP JUMPDEST POP POP POP JUMP JUMPDEST JUMPDEST DUP2 DUP2 LT ISZERO PUSH2 0xD5D JUMPI PUSH2 0xD52 PUSH0 DUP3 PUSH2 0xD27 JUMP JUMPDEST PUSH1 0x1 DUP2 ADD SWAP1 POP PUSH2 0xD40 JUMP JUMPDEST POP POP JUMP JUMPDEST PUSH1 0x1F DUP3 GT ISZERO PUSH2 0xDA2 JUMPI PUSH2 0xD73 DUP2 PUSH2 0xC4A JUMP JUMPDEST PUSH2 0xD7C DUP5 PUSH2 0xC5C JUMP JUMPDEST DUP2 ADD PUSH1 0x20 DUP6 LT ISZERO PUSH2 0xD8B JUMPI DUP2 SWAP1 POP JUMPDEST PUSH2 0xD9F PUSH2 0xD97 DUP6 PUSH2 0xC5C JUMP JUMPDEST DUP4 ADD DUP3 PUSH2 0xD3F JUMP JUMPDEST POP POP JUMPDEST POP POP POP JUMP JUMPDEST PUSH0 DUP3 DUP3 SHR SWAP1 POP SWAP3 SWAP2 POP POP JUMP JUMPDEST PUSH0 PUSH2 0xDC2 PUSH0 NOT DUP5 PUSH1 0x8 MUL PUSH2 0xDA7 JUMP JUMPDEST NOT DUP1 DUP4 AND SWAP2 POP POP SWAP3 SWAP2 POP POP JUMP JUMPDEST PUSH0 PUSH2 0xDDA DUP4 DUP4 PUSH2 0xDB3 JUMP JUMPDEST SWAP2 POP DUP3 PUSH1 0x2 MUL DUP3 OR SWAP1 POP SWAP3 SWAP2 POP POP JUMP JUMPDEST PUSH2 0xDF3 DUP3 PUSH2 0x70A JUMP JUMPDEST PUSH8 0xFFFFFFFFFFFFFFFF DUP2 GT ISZERO PUSH2 0xE0C JUMPI PUSH2 0xE0B PUSH2 0x854 JUMP JUMPDEST JUMPDEST PUSH2 0xE16 DUP3 SLOAD PUSH2 0xB4A JUMP JUMPDEST PUSH2 0xE21 DUP3 DUP3 DUP6 PUSH2 0xD61 JUMP JUMPDEST PUSH0 PUSH1 0x20 SWAP1 POP PUSH1 0x1F DUP4 GT PUSH1 0x1 DUP2 EQ PUSH2 0xE52 JUMPI PUSH0 DUP5 ISZERO PUSH2 0xE40 JUMPI DUP3 DUP8 ADD MLOAD SWAP1 POP JUMPDEST PUSH2 0xE4A DUP6 DUP3 PUSH2 0xDCF JUMP JUMPDEST DUP7 SSTORE POP PUSH2 0xEB1 JUMP JUMPDEST PUSH1 0x1F NOT DUP5 AND PUSH2 0xE60 DUP7 PUSH2 0xC4A JUMP JUMPDEST PUSH0 JUMPDEST DUP3 DUP2 LT ISZERO PUSH2 0xE87 JUMPI DUP5 DUP10 ADD MLOAD DUP3 SSTORE PUSH1 0x1 DUP3 ADD SWAP2 POP PUSH1 0x20 DUP6 ADD SWAP5 POP PUSH1 0x20 DUP2 ADD SWAP1 POP PUSH2 0xE62 JUMP JUMPDEST DUP7 DUP4 LT ISZERO PUSH2 0xEA4 JUMPI DUP5 DUP10 ADD MLOAD PUSH2 0xEA0 PUSH1 0x1F DUP10 AND DUP3 PUSH2 0xDB3 JUMP JUMPDEST DUP4 SSTORE POP JUMPDEST PUSH1 0x1 PUSH1 0x2 DUP9 MUL ADD DUP9 SSTORE POP POP POP JUMPDEST POP POP POP POP POP POP JUMP JUMPDEST PUSH32 0x4E487B7100000000000000000000000000000000000000000000000000000000 PUSH0 MSTORE PUSH1 0x11 PUSH1 0x4 MSTORE PUSH1 0x24 PUSH0 REVERT JUMPDEST PUSH0 PUSH2 0xEF0 DUP3 PUSH2 0xA97 JUMP JUMPDEST SWAP2 POP PUSH2 0xEFB DUP4 PUSH2 0xA97 JUMP JUMPDEST SWAP3 POP DUP3 DUP3 MUL PUSH2 0xF09 DUP2 PUSH2 0xA97 JUMP JUMPDEST SWAP2 POP DUP3 DUP3 DIV DUP5 EQ DUP4 ISZERO OR PUSH2 0xF20 JUMPI PUSH2 0xF1F PUSH2 0xEB9 JUMP JUMPDEST JUMPDEST POP SWAP3 SWAP2 POP POP JUMP INVALID LOG2 PUSH5 0x6970667358 0x22 SLT KECCAK256 RETURNDATASIZE SAR CREATE NOT 0xE7 SWAP9 0xC8 ADDMOD ADD 0x26 CALLDATASIZE MSIZE 0xBD OR DELEGATECALL SLOAD DUP2 0xC9 PUSH16 0xDABBCAFC354764D274E3A3D8ED64736F PUSH13 0x634300081C0033000000000000 "
				},
				"gasEstimates": {
					"creation": {
						"codeDepositCost": "786600",
						"executionCost": "816",
						"totalCost": "787416"
					},
					"external": {
						"employee()": "infinite",
						"ethTowei(uint256)": "infinite",
						"getEmployee()": "infinite",
						"payemp()": "infinite",
						"setEmployee(string,string,string,uint16,address)": "infinite"
					}
				},
				"methodIdentifiers": {
					"employee()": "a0a1a7d7",
					"ethTowei(uint256)": "d1f3bf1d",
					"getEmployee()": "4132db8f",
					"payemp()": "6e10a8bb",
					"setEmployee(string,string,string,uint16,address)": "bb425001"
				}
			},
			"storageLayout": {
				"storage": [
					{
						"astId": 15,
						"contract": "Activities-D1/Activity3.sol:Activity3",
						"label": "employee",
						"offset": 0,
						"slot": "0",
						"type": "t_struct(emp)12_storage"
					}
				],
				"types": {
					"t_address_payable": {
						"encoding": "inplace",
						"label": "address payable",
						"numberOfBytes": "20"
					},
					"t_string_storage": {
						"encoding": "bytes",
						"label": "string",
						"numberOfBytes": "32"
					},
					"t_struct(emp)12_storage": {
						"encoding": "inplace",
						"label": "struct Activity3.emp",
						"members": [
							{
								"astId": 3,
								"contract": "Activities-D1/Activity3.sol:Activity3",
								"label": "name",
								"offset": 0,
								"slot": "0",
								"type": "t_string_storage"
							},
							{
								"astId": 5,
								"contract": "Activities-D1/Activity3.sol:Activity3",
								"label": "department",
								"offset": 0,
								"slot": "1",
								"type": "t_string_storage"
							},
							{
								"astId": 7,
								"contract": "Activities-D1/Activity3.sol:Activity3",
								"label": "designation",
								"offset": 0,
								"slot": "2",
								"type": "t_string_storage"
							},
							{
								"astId": 9,
								"contract": "Activities-D1/Activity3.sol:Activity3",
								"label": "salary",
								"offset": 0,
								"slot": "3",
								"type": "t_uint16"
							},
							{
								"astId": 11,
								"contract": "Activities-D1/Activity3.sol:Activity3",
								"label": "paymentadd",
								"offset": 2,
								"slot": "3",
								"type": "t_address_payable"
							}
						],
						"numberOfBytes": "128"
					},
					"t_uint16": {
						"encoding": "inplace",
						"label": "uint16",
						"numberOfBytes": "2"
					}
				}
			},
			"userdoc": {
				"kind": "user",
				"methods": {},
				"version": 1
			}
		}
	}
}