{
	"Activities-D1/Activity1.sol": {
		"Activity1": {
			"abi": [
				{
					"inputs": [],
					"name": "Largestnum",
					"outputs": [
						{
							"internalType": "uint16",
							"name": "",
							"type": "uint16"
						}
					],
					"stateMutability": "view",
					"type": "function"
				},
				{
					"inputs": [],
					"name": "checkdigit",
					"outputs": [
						{
							"internalType": "string",
							"name": "",
							"type": "string"
						}
					],
					"stateMutability": "view",
					"type": "function"
				},
				{
					"inputs": [
						{
							"internalType": "uint16",
							"name": "num",
							"type": "uint16"
						}
					],
					"name": "setDigit",
					"outputs": [],
					"stateMutability": "nonpayable",
					"type": "function"
				},
				{
					"inputs": [
						{
							"internalType": "uint16",
							"name": "num1",
							"type": "uint16"
						},
						{
							"internalType": "uint16",
							"name": "num2",
							"type": "uint16"
						},
						{
							"internalType": "uint16",
							"name": "num3",
							"type": "uint16"
						}
					],
					"name": "setNumbers",
					"outputs": [],
					"stateMutability": "nonpayable",
					"type": "function"
				},
				{
					"inputs": [
						{
							"internalType": "int16",
							"name": "number",
							"type": "int16"
						}
					],
					"name": "setnumber",
					"outputs": [],
					"stateMutability": "nonpayable",
					"type": "function"
				},
				{
					"inputs": [],
					"name": "signchecking",
					"outputs": [
						{
							"internalType": "string",
							"name": "",
							"type": "string"
						}
					],
					"stateMutability": "view",
					"type": "function"
				}
			],
			"devdoc": {
				"kind": "dev",
				"methods": {},
				"version": 1
			},
			"evm": {
				"assembly": "    /* \"Activities-D1/Activity1.sol\":55:1728  contract Activity1 {... */\n  mstore(0x40, 0x80)\n  callvalue\n  dup1\n  iszero\n  tag_1\n  jumpi\n  revert(0x00, 0x00)\ntag_1:\n  pop\n  dataSize(sub_0)\n  dup1\n  dataOffset(sub_0)\n  0x00\n  codecopy\n  0x00\n  return\nstop\n\nsub_0: assembly {\n        /* \"Activities-D1/Activity1.sol\":55:1728  contract Activity1 {... */\n      mstore(0x40, 0x80)\n      callvalue\n      dup1\n      iszero\n      tag_1\n      jumpi\n      revert(0x00, 0x00)\n    tag_1:\n      pop\n      jumpi(tag_2, lt(calldatasize, 0x04))\n      shr(0xe0, calldataload(0x00))\n      dup1\n      0x043aaec4\n      eq\n      tag_3\n      jumpi\n      dup1\n      0x27813320\n      eq\n      tag_4\n      jumpi\n      dup1\n      0x4e2aff65\n      eq\n      tag_5\n      jumpi\n      dup1\n      0x5d9df475\n      eq\n      tag_6\n      jumpi\n      dup1\n      0x99e47c5e\n      eq\n      tag_7\n      jumpi\n      dup1\n      0xe4ce8121\n      eq\n      tag_8\n      jumpi\n    tag_2:\n      revert(0x00, 0x00)\n        /* \"Activities-D1/Activity1.sol\":360:660  function Largestnum() public view returns(uint16){... */\n    tag_3:\n      tag_9\n      tag_10\n      jump\t// in\n    tag_9:\n      mload(0x40)\n      tag_11\n      swap2\n      swap1\n      tag_12\n      jump\t// in\n    tag_11:\n      mload(0x40)\n      dup1\n      swap2\n      sub\n      swap1\n      return\n        /* \"Activities-D1/Activity1.sol\":1271:1345  function setnumber(int16 number)public{... */\n    tag_4:\n      tag_13\n      0x04\n      dup1\n      calldatasize\n      sub\n      dup2\n      add\n      swap1\n      tag_14\n      swap2\n      swap1\n      tag_15\n      jump\t// in\n    tag_14:\n      tag_16\n      jump\t// in\n    tag_13:\n      stop\n        /* \"Activities-D1/Activity1.sol\":747:1262  function checkdigit() public view returns(string memory){... */\n    tag_5:\n      tag_17\n      tag_18\n      jump\t// in\n    tag_17:\n      mload(0x40)\n      tag_19\n      swap2\n      swap1\n      tag_20\n      jump\t// in\n    tag_19:\n      mload(0x40)\n      dup1\n      swap2\n      sub\n      swap1\n      return\n        /* \"Activities-D1/Activity1.sol\":1358:1718  function signchecking()public view returns(string memory){... */\n    tag_6:\n      tag_21\n      tag_22\n      jump\t// in\n    tag_21:\n      mload(0x40)\n      tag_23\n      swap2\n      swap1\n      tag_20\n      jump\t// in\n    tag_23:\n      mload(0x40)\n      dup1\n      swap2\n      sub\n      swap1\n      return\n        /* \"Activities-D1/Activity1.sol\":180:351  function setNumbers(uint16 num1,uint16 num2,uint16 num3) public... */\n    tag_7:\n      tag_24\n      0x04\n      dup1\n      calldatasize\n      sub\n      dup2\n      add\n      swap1\n      tag_25\n      swap2\n      swap1\n      tag_26\n      jump\t// in\n    tag_25:\n      tag_27\n      jump\t// in\n    tag_24:\n      stop\n        /* \"Activities-D1/Activity1.sol\":669:738  function setDigit(uint16 num)public{... */\n    tag_8:\n      tag_28\n      0x04\n      dup1\n      calldatasize\n      sub\n      dup2\n      add\n      swap1\n      tag_29\n      swap2\n      swap1\n      tag_30\n      jump\t// in\n    tag_29:\n      tag_31\n      jump\t// in\n    tag_28:\n      stop\n        /* \"Activities-D1/Activity1.sol\":360:660  function Largestnum() public view returns(uint16){... */\n    tag_10:\n        /* \"Activities-D1/Activity1.sol\":402:408  uint16 */\n      0x00\n        /* \"Activities-D1/Activity1.sol\":423:435  uint16 large */\n      0x00\n        /* \"Activities-D1/Activity1.sol\":437:444  number1 */\n      0x00\n      0x00\n      swap1\n      sload\n      swap1\n      0x0100\n      exp\n      swap1\n      div\n      0xffff\n      and\n        /* \"Activities-D1/Activity1.sol\":423:444  uint16 large= number1 */\n      swap1\n      pop\n        /* \"Activities-D1/Activity1.sol\":468:475  number2 */\n      0x00\n      0x02\n      swap1\n      sload\n      swap1\n      0x0100\n      exp\n      swap1\n      div\n      0xffff\n      and\n        /* \"Activities-D1/Activity1.sol\":461:475  large< number2 */\n      0xffff\n      and\n        /* \"Activities-D1/Activity1.sol\":461:466  large */\n      dup2\n        /* \"Activities-D1/Activity1.sol\":461:475  large< number2 */\n      0xffff\n      and\n      lt\n        /* \"Activities-D1/Activity1.sol\":458:534  if(large< number2){... */\n      iszero\n      tag_33\n      jumpi\n        /* \"Activities-D1/Activity1.sol\":504:511  number2 */\n      0x00\n      0x02\n      swap1\n      sload\n      swap1\n      0x0100\n      exp\n      swap1\n      div\n      0xffff\n      and\n        /* \"Activities-D1/Activity1.sol\":498:511  large=number2 */\n      swap1\n      pop\n        /* \"Activities-D1/Activity1.sol\":458:534  if(large< number2){... */\n    tag_33:\n        /* \"Activities-D1/Activity1.sol\":556:563  number3 */\n      0x00\n      0x04\n      swap1\n      sload\n      swap1\n      0x0100\n      exp\n      swap1\n      div\n      0xffff\n      and\n        /* \"Activities-D1/Activity1.sol\":550:563  large<number3 */\n      0xffff\n      and\n        /* \"Activities-D1/Activity1.sol\":550:555  large */\n      dup2\n        /* \"Activities-D1/Activity1.sol\":550:563  large<number3 */\n      0xffff\n      and\n      lt\n        /* \"Activities-D1/Activity1.sol\":547:624  if(large<number3){  ... */\n      iszero\n      tag_34\n      jumpi\n        /* \"Activities-D1/Activity1.sol\":594:601  number3 */\n      0x00\n      0x04\n      swap1\n      sload\n      swap1\n      0x0100\n      exp\n      swap1\n      div\n      0xffff\n      and\n        /* \"Activities-D1/Activity1.sol\":588:601  large=number3 */\n      swap1\n      pop\n        /* \"Activities-D1/Activity1.sol\":547:624  if(large<number3){  ... */\n    tag_34:\n        /* \"Activities-D1/Activity1.sol\":644:649  large */\n      dup1\n        /* \"Activities-D1/Activity1.sol\":637:649  return large */\n      swap2\n      pop\n      pop\n        /* \"Activities-D1/Activity1.sol\":360:660  function Largestnum() public view returns(uint16){... */\n      swap1\n      jump\t// out\n        /* \"Activities-D1/Activity1.sol\":1271:1345  function setnumber(int16 number)public{... */\n    tag_16:\n        /* \"Activities-D1/Activity1.sol\":1328:1334  number */\n      dup1\n        /* \"Activities-D1/Activity1.sol\":1323:1327  sign */\n      0x00\n      0x08\n        /* \"Activities-D1/Activity1.sol\":1323:1334  sign=number */\n      0x0100\n      exp\n      dup2\n      sload\n      dup2\n      0xffff\n      mul\n      not\n      and\n      swap1\n      dup4\n      0x01\n      signextend\n      0xffff\n      and\n      mul\n      or\n      swap1\n      sstore\n      pop\n        /* \"Activities-D1/Activity1.sol\":1271:1345  function setnumber(int16 number)public{... */\n      pop\n      jump\t// out\n        /* \"Activities-D1/Activity1.sol\":747:1262  function checkdigit() public view returns(string memory){... */\n    tag_18:\n        /* \"Activities-D1/Activity1.sol\":789:802  string memory */\n      0x60\n        /* \"Activities-D1/Activity1.sol\":832:833  0 */\n      0x00\n        /* \"Activities-D1/Activity1.sol\":825:830  digit */\n      0x00\n      0x06\n      swap1\n      sload\n      swap1\n      0x0100\n      exp\n      swap1\n      div\n      0xffff\n      and\n        /* \"Activities-D1/Activity1.sol\":825:833  digit==0 */\n      0xffff\n      and\n      sub\n        /* \"Activities-D1/Activity1.sol\":821:847  if (digit==0)return \"zero\" */\n      tag_37\n      jumpi\n        /* \"Activities-D1/Activity1.sol\":834:847  return \"zero\" */\n      mload(0x40)\n      dup1\n      0x40\n      add\n      0x40\n      mstore\n      dup1\n      0x04\n      dup2\n      mstore\n      0x20\n      add\n      0x7a65726f00000000000000000000000000000000000000000000000000000000\n      dup2\n      mstore\n      pop\n      swap1\n      pop\n      jump(tag_36)\n        /* \"Activities-D1/Activity1.sol\":821:847  if (digit==0)return \"zero\" */\n    tag_37:\n        /* \"Activities-D1/Activity1.sol\":872:873  1 */\n      0x01\n        /* \"Activities-D1/Activity1.sol\":865:870  digit */\n      0x00\n      0x06\n      swap1\n      sload\n      swap1\n      0x0100\n      exp\n      swap1\n      div\n      0xffff\n      and\n        /* \"Activities-D1/Activity1.sol\":865:873  digit==1 */\n      0xffff\n      and\n      sub\n        /* \"Activities-D1/Activity1.sol\":861:887  if (digit==1) return \"one\" */\n      tag_38\n      jumpi\n        /* \"Activities-D1/Activity1.sol\":875:887  return \"one\" */\n      mload(0x40)\n      dup1\n      0x40\n      add\n      0x40\n      mstore\n      dup1\n      0x03\n      dup2\n      mstore\n      0x20\n      add\n      0x6f6e650000000000000000000000000000000000000000000000000000000000\n      dup2\n      mstore\n      pop\n      swap1\n      pop\n      jump(tag_36)\n        /* \"Activities-D1/Activity1.sol\":861:887  if (digit==1) return \"one\" */\n    tag_38:\n        /* \"Activities-D1/Activity1.sol\":911:912  2 */\n      0x02\n        /* \"Activities-D1/Activity1.sol\":904:909  digit */\n      0x00\n      0x06\n      swap1\n      sload\n      swap1\n      0x0100\n      exp\n      swap1\n      div\n      0xffff\n      and\n        /* \"Activities-D1/Activity1.sol\":904:912  digit==2 */\n      0xffff\n      and\n      sub\n        /* \"Activities-D1/Activity1.sol\":901:926  if(digit==2) return \"two\" */\n      tag_39\n      jumpi\n        /* \"Activities-D1/Activity1.sol\":914:926  return \"two\" */\n      mload(0x40)\n      dup1\n      0x40\n      add\n      0x40\n      mstore\n      dup1\n      0x03\n      dup2\n      mstore\n      0x20\n      add\n      0x74776f0000000000000000000000000000000000000000000000000000000000\n      dup2\n      mstore\n      pop\n      swap1\n      pop\n      jump(tag_36)\n        /* \"Activities-D1/Activity1.sol\":901:926  if(digit==2) return \"two\" */\n    tag_39:\n        /* \"Activities-D1/Activity1.sol\":950:951  3 */\n      0x03\n        /* \"Activities-D1/Activity1.sol\":943:948  digit */\n      0x00\n      0x06\n      swap1\n      sload\n      swap1\n      0x0100\n      exp\n      swap1\n      div\n      0xffff\n      and\n        /* \"Activities-D1/Activity1.sol\":943:951  digit==3 */\n      0xffff\n      and\n      sub\n        /* \"Activities-D1/Activity1.sol\":940:967  if(digit==3) return \"three\" */\n      tag_40\n      jumpi\n        /* \"Activities-D1/Activity1.sol\":953:967  return \"three\" */\n      mload(0x40)\n      dup1\n      0x40\n      add\n      0x40\n      mstore\n      dup1\n      0x05\n      dup2\n      mstore\n      0x20\n      add\n      0x7468726565000000000000000000000000000000000000000000000000000000\n      dup2\n      mstore\n      pop\n      swap1\n      pop\n      jump(tag_36)\n        /* \"Activities-D1/Activity1.sol\":940:967  if(digit==3) return \"three\" */\n    tag_40:\n        /* \"Activities-D1/Activity1.sol\":991:992  4 */\n      0x04\n        /* \"Activities-D1/Activity1.sol\":984:989  digit */\n      0x00\n      0x06\n      swap1\n      sload\n      swap1\n      0x0100\n      exp\n      swap1\n      div\n      0xffff\n      and\n        /* \"Activities-D1/Activity1.sol\":984:992  digit==4 */\n      0xffff\n      and\n      sub\n        /* \"Activities-D1/Activity1.sol\":981:1007  if(digit==4) return \"four\" */\n      tag_41\n      jumpi\n        /* \"Activities-D1/Activity1.sol\":994:1007  return \"four\" */\n      mload(0x40)\n      dup1\n      0x40\n      add\n      0x40\n      mstore\n      dup1\n      0x04\n      dup2\n      mstore\n      0x20\n      add\n      0x666f757200000000000000000000000000000000000000000000000000000000\n      dup2\n      mstore\n      pop\n      swap1\n      pop\n      jump(tag_36)\n        /* \"Activities-D1/Activity1.sol\":981:1007  if(digit==4) return \"four\" */\n    tag_41:\n        /* \"Activities-D1/Activity1.sol\":1031:1032  5 */\n      0x05\n        /* \"Activities-D1/Activity1.sol\":1024:1029  digit */\n      0x00\n      0x06\n      swap1\n      sload\n      swap1\n      0x0100\n      exp\n      swap1\n      div\n      0xffff\n      and\n        /* \"Activities-D1/Activity1.sol\":1024:1032  digit==5 */\n      0xffff\n      and\n      sub\n        /* \"Activities-D1/Activity1.sol\":1021:1047  if(digit==5) return \"five\" */\n      tag_42\n      jumpi\n        /* \"Activities-D1/Activity1.sol\":1034:1047  return \"five\" */\n      mload(0x40)\n      dup1\n      0x40\n      add\n      0x40\n      mstore\n      dup1\n      0x04\n      dup2\n      mstore\n      0x20\n      add\n      0x6669766500000000000000000000000000000000000000000000000000000000\n      dup2\n      mstore\n      pop\n      swap1\n      pop\n      jump(tag_36)\n        /* \"Activities-D1/Activity1.sol\":1021:1047  if(digit==5) return \"five\" */\n    tag_42:\n        /* \"Activities-D1/Activity1.sol\":1071:1072  6 */\n      0x06\n        /* \"Activities-D1/Activity1.sol\":1064:1069  digit */\n      0x00\n      0x06\n      swap1\n      sload\n      swap1\n      0x0100\n      exp\n      swap1\n      div\n      0xffff\n      and\n        /* \"Activities-D1/Activity1.sol\":1064:1072  digit==6 */\n      0xffff\n      and\n      sub\n        /* \"Activities-D1/Activity1.sol\":1061:1087  if(digit==6)  return \"six\" */\n      tag_43\n      jumpi\n        /* \"Activities-D1/Activity1.sol\":1075:1087  return \"six\" */\n      mload(0x40)\n      dup1\n      0x40\n      add\n      0x40\n      mstore\n      dup1\n      0x03\n      dup2\n      mstore\n      0x20\n      add\n      0x7369780000000000000000000000000000000000000000000000000000000000\n      dup2\n      mstore\n      pop\n      swap1\n      pop\n      jump(tag_36)\n        /* \"Activities-D1/Activity1.sol\":1061:1087  if(digit==6)  return \"six\" */\n    tag_43:\n        /* \"Activities-D1/Activity1.sol\":1111:1112  7 */\n      0x07\n        /* \"Activities-D1/Activity1.sol\":1104:1109  digit */\n      0x00\n      0x06\n      swap1\n      sload\n      swap1\n      0x0100\n      exp\n      swap1\n      div\n      0xffff\n      and\n        /* \"Activities-D1/Activity1.sol\":1104:1112  digit==7 */\n      0xffff\n      and\n      sub\n        /* \"Activities-D1/Activity1.sol\":1101:1129  if(digit==7)  return \"seven\" */\n      tag_44\n      jumpi\n        /* \"Activities-D1/Activity1.sol\":1115:1129  return \"seven\" */\n      mload(0x40)\n      dup1\n      0x40\n      add\n      0x40\n      mstore\n      dup1\n      0x05\n      dup2\n      mstore\n      0x20\n      add\n      0x736576656e000000000000000000000000000000000000000000000000000000\n      dup2\n      mstore\n      pop\n      swap1\n      pop\n      jump(tag_36)\n        /* \"Activities-D1/Activity1.sol\":1101:1129  if(digit==7)  return \"seven\" */\n    tag_44:\n        /* \"Activities-D1/Activity1.sol\":1153:1154  8 */\n      0x08\n        /* \"Activities-D1/Activity1.sol\":1146:1151  digit */\n      0x00\n      0x06\n      swap1\n      sload\n      swap1\n      0x0100\n      exp\n      swap1\n      div\n      0xffff\n      and\n        /* \"Activities-D1/Activity1.sol\":1146:1154  digit==8 */\n      0xffff\n      and\n      sub\n        /* \"Activities-D1/Activity1.sol\":1143:1171  if(digit==8)  return \"eight\" */\n      tag_45\n      jumpi\n        /* \"Activities-D1/Activity1.sol\":1157:1171  return \"eight\" */\n      mload(0x40)\n      dup1\n      0x40\n      add\n      0x40\n      mstore\n      dup1\n      0x05\n      dup2\n      mstore\n      0x20\n      add\n      0x6569676874000000000000000000000000000000000000000000000000000000\n      dup2\n      mstore\n      pop\n      swap1\n      pop\n      jump(tag_36)\n        /* \"Activities-D1/Activity1.sol\":1143:1171  if(digit==8)  return \"eight\" */\n    tag_45:\n        /* \"Activities-D1/Activity1.sol\":1195:1196  9 */\n      0x09\n        /* \"Activities-D1/Activity1.sol\":1188:1193  digit */\n      0x00\n      0x06\n      swap1\n      sload\n      swap1\n      0x0100\n      exp\n      swap1\n      div\n      0xffff\n      and\n        /* \"Activities-D1/Activity1.sol\":1188:1196  digit==9 */\n      0xffff\n      and\n      sub\n        /* \"Activities-D1/Activity1.sol\":1185:1212  if(digit==9)  return \"nine\" */\n      tag_46\n      jumpi\n        /* \"Activities-D1/Activity1.sol\":1199:1212  return \"nine\" */\n      mload(0x40)\n      dup1\n      0x40\n      add\n      0x40\n      mstore\n      dup1\n      0x04\n      dup2\n      mstore\n      0x20\n      add\n      0x6e696e6500000000000000000000000000000000000000000000000000000000\n      dup2\n      mstore\n      pop\n      swap1\n      pop\n      jump(tag_36)\n        /* \"Activities-D1/Activity1.sol\":1185:1212  if(digit==9)  return \"nine\" */\n    tag_46:\n        /* \"Activities-D1/Activity1.sol\":1225:1247  return \"invalid input\" */\n      mload(0x40)\n      dup1\n      0x40\n      add\n      0x40\n      mstore\n      dup1\n      0x0d\n      dup2\n      mstore\n      0x20\n      add\n      0x696e76616c696420696e70757400000000000000000000000000000000000000\n      dup2\n      mstore\n      pop\n      swap1\n      pop\n        /* \"Activities-D1/Activity1.sol\":747:1262  function checkdigit() public view returns(string memory){... */\n    tag_36:\n      swap1\n      jump\t// out\n        /* \"Activities-D1/Activity1.sol\":1358:1718  function signchecking()public view returns(string memory){... */\n    tag_22:\n        /* \"Activities-D1/Activity1.sol\":1401:1414  string memory */\n      0x60\n        /* \"Activities-D1/Activity1.sol\":1438:1439  0 */\n      0x00\n        /* \"Activities-D1/Activity1.sol\":1432:1436  sign */\n      0x00\n      0x08\n      swap1\n      sload\n      swap1\n      0x0100\n      exp\n      swap1\n      div\n      0x01\n      signextend\n        /* \"Activities-D1/Activity1.sol\":1432:1439  sign==0 */\n      0x01\n      signextend\n      sub\n        /* \"Activities-D1/Activity1.sol\":1429:1671  if(sign==0)... */\n      tag_48\n      jumpi\n        /* \"Activities-D1/Activity1.sol\":1467:1480  return \"zero\" */\n      mload(0x40)\n      dup1\n      0x40\n      add\n      0x40\n      mstore\n      dup1\n      0x04\n      dup2\n      mstore\n      0x20\n      add\n      0x7a65726f00000000000000000000000000000000000000000000000000000000\n      dup2\n      mstore\n      pop\n      swap1\n      pop\n      jump(tag_47)\n        /* \"Activities-D1/Activity1.sol\":1429:1671  if(sign==0)... */\n    tag_48:\n        /* \"Activities-D1/Activity1.sol\":1520:1521  0 */\n      0x00\n        /* \"Activities-D1/Activity1.sol\":1515:1519  sign */\n      0x00\n      0x08\n      swap1\n      sload\n      swap1\n      0x0100\n      exp\n      swap1\n      div\n      0x01\n      signextend\n        /* \"Activities-D1/Activity1.sol\":1515:1521  sign>0 */\n      0x01\n      signextend\n      sgt\n        /* \"Activities-D1/Activity1.sol\":1512:1671  if(sign>0)... */\n      iszero\n      tag_50\n      jumpi\n        /* \"Activities-D1/Activity1.sol\":1549:1566  return \"positive\" */\n      mload(0x40)\n      dup1\n      0x40\n      add\n      0x40\n      mstore\n      dup1\n      0x08\n      dup2\n      mstore\n      0x20\n      add\n      0x706f736974697665000000000000000000000000000000000000000000000000\n      dup2\n      mstore\n      pop\n      swap1\n      pop\n      jump(tag_47)\n        /* \"Activities-D1/Activity1.sol\":1512:1671  if(sign>0)... */\n    tag_50:\n        /* \"Activities-D1/Activity1.sol\":1606:1607  0 */\n      0x00\n        /* \"Activities-D1/Activity1.sol\":1601:1605  sign */\n      0x00\n      0x08\n      swap1\n      sload\n      swap1\n      0x0100\n      exp\n      swap1\n      div\n      0x01\n      signextend\n        /* \"Activities-D1/Activity1.sol\":1601:1607  sign<0 */\n      0x01\n      signextend\n      slt\n        /* \"Activities-D1/Activity1.sol\":1598:1671  if(sign<0)... */\n      iszero\n      tag_52\n      jumpi\n        /* \"Activities-D1/Activity1.sol\":1639:1656  return \"negative\" */\n      mload(0x40)\n      dup1\n      0x40\n      add\n      0x40\n      mstore\n      dup1\n      0x08\n      dup2\n      mstore\n      0x20\n      add\n      0x6e65676174697665000000000000000000000000000000000000000000000000\n      dup2\n      mstore\n      pop\n      swap1\n      pop\n      jump(tag_47)\n        /* \"Activities-D1/Activity1.sol\":1598:1671  if(sign<0)... */\n    tag_52:\n        /* \"Activities-D1/Activity1.sol\":1685:1707  return \"invalid input\" */\n      mload(0x40)\n      dup1\n      0x40\n      add\n      0x40\n      mstore\n      dup1\n      0x0d\n      dup2\n      mstore\n      0x20\n      add\n      0x696e76616c696420696e70757400000000000000000000000000000000000000\n      dup2\n      mstore\n      pop\n      swap1\n      pop\n        /* \"Activities-D1/Activity1.sol\":1358:1718  function signchecking()public view returns(string memory){... */\n    tag_47:\n      swap1\n      jump\t// out\n        /* \"Activities-D1/Activity1.sol\":180:351  function setNumbers(uint16 num1,uint16 num2,uint16 num3) public... */\n    tag_27:\n        /* \"Activities-D1/Activity1.sol\":278:282  num1 */\n      dup3\n        /* \"Activities-D1/Activity1.sol\":269:276  number1 */\n      0x00\n      0x00\n        /* \"Activities-D1/Activity1.sol\":269:282  number1= num1 */\n      0x0100\n      exp\n      dup2\n      sload\n      dup2\n      0xffff\n      mul\n      not\n      and\n      swap1\n      dup4\n      0xffff\n      and\n      mul\n      or\n      swap1\n      sstore\n      pop\n        /* \"Activities-D1/Activity1.sol\":305:309  num2 */\n      dup2\n        /* \"Activities-D1/Activity1.sol\":296:303  number2 */\n      0x00\n      0x02\n        /* \"Activities-D1/Activity1.sol\":296:309  number2= num2 */\n      0x0100\n      exp\n      dup2\n      sload\n      dup2\n      0xffff\n      mul\n      not\n      and\n      swap1\n      dup4\n      0xffff\n      and\n      mul\n      or\n      swap1\n      sstore\n      pop\n        /* \"Activities-D1/Activity1.sol\":332:336  num3 */\n      dup1\n        /* \"Activities-D1/Activity1.sol\":323:330  number3 */\n      0x00\n      0x04\n        /* \"Activities-D1/Activity1.sol\":323:336  number3= num3 */\n      0x0100\n      exp\n      dup2\n      sload\n      dup2\n      0xffff\n      mul\n      not\n      and\n      swap1\n      dup4\n      0xffff\n      and\n      mul\n      or\n      swap1\n      sstore\n      pop\n        /* \"Activities-D1/Activity1.sol\":180:351  function setNumbers(uint16 num1,uint16 num2,uint16 num3) public... */\n      pop\n      pop\n      pop\n      jump\t// out\n        /* \"Activities-D1/Activity1.sol\":669:738  function setDigit(uint16 num)public{... */\n    tag_31:\n        /* \"Activities-D1/Activity1.sol\":724:727  num */\n      dup1\n        /* \"Activities-D1/Activity1.sol\":718:723  digit */\n      0x00\n      0x06\n        /* \"Activities-D1/Activity1.sol\":718:727  digit=num */\n      0x0100\n      exp\n      dup2\n      sload\n      dup2\n      0xffff\n      mul\n      not\n      and\n      swap1\n      dup4\n      0xffff\n      and\n      mul\n      or\n      swap1\n      sstore\n      pop\n        /* \"Activities-D1/Activity1.sol\":669:738  function setDigit(uint16 num)public{... */\n      pop\n      jump\t// out\n        /* \"#utility.yul\":7:96   */\n    tag_55:\n        /* \"#utility.yul\":43:50   */\n      0x00\n        /* \"#utility.yul\":83:89   */\n      0xffff\n        /* \"#utility.yul\":76:81   */\n      dup3\n        /* \"#utility.yul\":72:90   */\n      and\n        /* \"#utility.yul\":61:90   */\n      swap1\n      pop\n        /* \"#utility.yul\":7:96   */\n      swap2\n      swap1\n      pop\n      jump\t// out\n        /* \"#utility.yul\":102:217   */\n    tag_56:\n        /* \"#utility.yul\":187:210   */\n      tag_73\n        /* \"#utility.yul\":204:209   */\n      dup2\n        /* \"#utility.yul\":187:210   */\n      tag_55\n      jump\t// in\n    tag_73:\n        /* \"#utility.yul\":182:185   */\n      dup3\n        /* \"#utility.yul\":175:211   */\n      mstore\n        /* \"#utility.yul\":102:217   */\n      pop\n      pop\n      jump\t// out\n        /* \"#utility.yul\":223:441   */\n    tag_12:\n        /* \"#utility.yul\":314:318   */\n      0x00\n        /* \"#utility.yul\":352:354   */\n      0x20\n        /* \"#utility.yul\":341:350   */\n      dup3\n        /* \"#utility.yul\":337:355   */\n      add\n        /* \"#utility.yul\":329:355   */\n      swap1\n      pop\n        /* \"#utility.yul\":365:434   */\n      tag_75\n        /* \"#utility.yul\":431:432   */\n      0x00\n        /* \"#utility.yul\":420:429   */\n      dup4\n        /* \"#utility.yul\":416:433   */\n      add\n        /* \"#utility.yul\":407:413   */\n      dup5\n        /* \"#utility.yul\":365:434   */\n      tag_56\n      jump\t// in\n    tag_75:\n        /* \"#utility.yul\":223:441   */\n      swap3\n      swap2\n      pop\n      pop\n      jump\t// out\n        /* \"#utility.yul\":528:645   */\n    tag_58:\n        /* \"#utility.yul\":637:638   */\n      0x00\n        /* \"#utility.yul\":634:635   */\n      0x00\n        /* \"#utility.yul\":627:639   */\n      revert\n        /* \"#utility.yul\":774:864   */\n    tag_60:\n        /* \"#utility.yul\":809:816   */\n      0x00\n        /* \"#utility.yul\":852:857   */\n      dup2\n        /* \"#utility.yul\":849:850   */\n      0x01\n        /* \"#utility.yul\":838:858   */\n      signextend\n        /* \"#utility.yul\":827:858   */\n      swap1\n      pop\n        /* \"#utility.yul\":774:864   */\n      swap2\n      swap1\n      pop\n      jump\t// out\n        /* \"#utility.yul\":870:988   */\n    tag_61:\n        /* \"#utility.yul\":941:963   */\n      tag_81\n        /* \"#utility.yul\":957:962   */\n      dup2\n        /* \"#utility.yul\":941:963   */\n      tag_60\n      jump\t// in\n    tag_81:\n        /* \"#utility.yul\":934:939   */\n      dup2\n        /* \"#utility.yul\":931:964   */\n      eq\n        /* \"#utility.yul\":921:982   */\n      tag_82\n      jumpi\n        /* \"#utility.yul\":978:979   */\n      0x00\n        /* \"#utility.yul\":975:976   */\n      0x00\n        /* \"#utility.yul\":968:980   */\n      revert\n        /* \"#utility.yul\":921:982   */\n    tag_82:\n        /* \"#utility.yul\":870:988   */\n      pop\n      jump\t// out\n        /* \"#utility.yul\":994:1129   */\n    tag_62:\n        /* \"#utility.yul\":1038:1043   */\n      0x00\n        /* \"#utility.yul\":1076:1082   */\n      dup2\n        /* \"#utility.yul\":1063:1083   */\n      calldataload\n        /* \"#utility.yul\":1054:1083   */\n      swap1\n      pop\n        /* \"#utility.yul\":1092:1123   */\n      tag_84\n        /* \"#utility.yul\":1117:1122   */\n      dup2\n        /* \"#utility.yul\":1092:1123   */\n      tag_61\n      jump\t// in\n    tag_84:\n        /* \"#utility.yul\":994:1129   */\n      swap3\n      swap2\n      pop\n      pop\n      jump\t// out\n        /* \"#utility.yul\":1135:1460   */\n    tag_15:\n        /* \"#utility.yul\":1192:1198   */\n      0x00\n        /* \"#utility.yul\":1241:1243   */\n      0x20\n        /* \"#utility.yul\":1229:1238   */\n      dup3\n        /* \"#utility.yul\":1220:1227   */\n      dup5\n        /* \"#utility.yul\":1216:1239   */\n      sub\n        /* \"#utility.yul\":1212:1244   */\n      slt\n        /* \"#utility.yul\":1209:1328   */\n      iszero\n      tag_86\n      jumpi\n        /* \"#utility.yul\":1247:1326   */\n      tag_87\n      tag_58\n      jump\t// in\n    tag_87:\n        /* \"#utility.yul\":1209:1328   */\n    tag_86:\n        /* \"#utility.yul\":1367:1368   */\n      0x00\n        /* \"#utility.yul\":1392:1443   */\n      tag_88\n        /* \"#utility.yul\":1435:1442   */\n      dup5\n        /* \"#utility.yul\":1426:1432   */\n      dup3\n        /* \"#utility.yul\":1415:1424   */\n      dup6\n        /* \"#utility.yul\":1411:1433   */\n      add\n        /* \"#utility.yul\":1392:1443   */\n      tag_62\n      jump\t// in\n    tag_88:\n        /* \"#utility.yul\":1382:1443   */\n      swap2\n      pop\n        /* \"#utility.yul\":1338:1453   */\n      pop\n        /* \"#utility.yul\":1135:1460   */\n      swap3\n      swap2\n      pop\n      pop\n      jump\t// out\n        /* \"#utility.yul\":1466:1565   */\n    tag_63:\n        /* \"#utility.yul\":1518:1524   */\n      0x00\n        /* \"#utility.yul\":1552:1557   */\n      dup2\n        /* \"#utility.yul\":1546:1558   */\n      mload\n        /* \"#utility.yul\":1536:1558   */\n      swap1\n      pop\n        /* \"#utility.yul\":1466:1565   */\n      swap2\n      swap1\n      pop\n      jump\t// out\n        /* \"#utility.yul\":1571:1740   */\n    tag_64:\n        /* \"#utility.yul\":1655:1666   */\n      0x00\n        /* \"#utility.yul\":1689:1695   */\n      dup3\n        /* \"#utility.yul\":1684:1687   */\n      dup3\n        /* \"#utility.yul\":1677:1696   */\n      mstore\n        /* \"#utility.yul\":1729:1733   */\n      0x20\n        /* \"#utility.yul\":1724:1727   */\n      dup3\n        /* \"#utility.yul\":1720:1734   */\n      add\n        /* \"#utility.yul\":1705:1734   */\n      swap1\n      pop\n        /* \"#utility.yul\":1571:1740   */\n      swap3\n      swap2\n      pop\n      pop\n      jump\t// out\n        /* \"#utility.yul\":1746:1885   */\n    tag_65:\n        /* \"#utility.yul\":1835:1841   */\n      dup3\n        /* \"#utility.yul\":1830:1833   */\n      dup2\n        /* \"#utility.yul\":1825:1828   */\n      dup4\n        /* \"#utility.yul\":1819:1842   */\n      mcopy\n        /* \"#utility.yul\":1876:1877   */\n      0x00\n        /* \"#utility.yul\":1867:1873   */\n      dup4\n        /* \"#utility.yul\":1862:1865   */\n      dup4\n        /* \"#utility.yul\":1858:1874   */\n      add\n        /* \"#utility.yul\":1851:1878   */\n      mstore\n        /* \"#utility.yul\":1746:1885   */\n      pop\n      pop\n      pop\n      jump\t// out\n        /* \"#utility.yul\":1891:1993   */\n    tag_66:\n        /* \"#utility.yul\":1932:1938   */\n      0x00\n        /* \"#utility.yul\":1983:1985   */\n      0x1f\n        /* \"#utility.yul\":1979:1986   */\n      not\n        /* \"#utility.yul\":1974:1976   */\n      0x1f\n        /* \"#utility.yul\":1967:1972   */\n      dup4\n        /* \"#utility.yul\":1963:1977   */\n      add\n        /* \"#utility.yul\":1959:1987   */\n      and\n        /* \"#utility.yul\":1949:1987   */\n      swap1\n      pop\n        /* \"#utility.yul\":1891:1993   */\n      swap2\n      swap1\n      pop\n      jump\t// out\n        /* \"#utility.yul\":1999:2376   */\n    tag_67:\n        /* \"#utility.yul\":2087:2090   */\n      0x00\n        /* \"#utility.yul\":2115:2154   */\n      tag_94\n        /* \"#utility.yul\":2148:2153   */\n      dup3\n        /* \"#utility.yul\":2115:2154   */\n      tag_63\n      jump\t// in\n    tag_94:\n        /* \"#utility.yul\":2170:2241   */\n      tag_95\n        /* \"#utility.yul\":2234:2240   */\n      dup2\n        /* \"#utility.yul\":2229:2232   */\n      dup6\n        /* \"#utility.yul\":2170:2241   */\n      tag_64\n      jump\t// in\n    tag_95:\n        /* \"#utility.yul\":2163:2241   */\n      swap4\n      pop\n        /* \"#utility.yul\":2250:2315   */\n      tag_96\n        /* \"#utility.yul\":2308:2314   */\n      dup2\n        /* \"#utility.yul\":2303:2306   */\n      dup6\n        /* \"#utility.yul\":2296:2300   */\n      0x20\n        /* \"#utility.yul\":2289:2294   */\n      dup7\n        /* \"#utility.yul\":2285:2301   */\n      add\n        /* \"#utility.yul\":2250:2315   */\n      tag_65\n      jump\t// in\n    tag_96:\n        /* \"#utility.yul\":2340:2369   */\n      tag_97\n        /* \"#utility.yul\":2362:2368   */\n      dup2\n        /* \"#utility.yul\":2340:2369   */\n      tag_66\n      jump\t// in\n    tag_97:\n        /* \"#utility.yul\":2335:2338   */\n      dup5\n        /* \"#utility.yul\":2331:2370   */\n      add\n        /* \"#utility.yul\":2324:2370   */\n      swap2\n      pop\n        /* \"#utility.yul\":2091:2376   */\n      pop\n        /* \"#utility.yul\":1999:2376   */\n      swap3\n      swap2\n      pop\n      pop\n      jump\t// out\n        /* \"#utility.yul\":2382:2695   */\n    tag_20:\n        /* \"#utility.yul\":2495:2499   */\n      0x00\n        /* \"#utility.yul\":2533:2535   */\n      0x20\n        /* \"#utility.yul\":2522:2531   */\n      dup3\n        /* \"#utility.yul\":2518:2536   */\n      add\n        /* \"#utility.yul\":2510:2536   */\n      swap1\n      pop\n        /* \"#utility.yul\":2582:2591   */\n      dup2\n        /* \"#utility.yul\":2576:2580   */\n      dup2\n        /* \"#utility.yul\":2572:2592   */\n      sub\n        /* \"#utility.yul\":2568:2569   */\n      0x00\n        /* \"#utility.yul\":2557:2566   */\n      dup4\n        /* \"#utility.yul\":2553:2570   */\n      add\n        /* \"#utility.yul\":2546:2593   */\n      mstore\n        /* \"#utility.yul\":2610:2688   */\n      tag_99\n        /* \"#utility.yul\":2683:2687   */\n      dup2\n        /* \"#utility.yul\":2674:2680   */\n      dup5\n        /* \"#utility.yul\":2610:2688   */\n      tag_67\n      jump\t// in\n    tag_99:\n        /* \"#utility.yul\":2602:2688   */\n      swap1\n      pop\n        /* \"#utility.yul\":2382:2695   */\n      swap3\n      swap2\n      pop\n      pop\n      jump\t// out\n        /* \"#utility.yul\":2701:2821   */\n    tag_68:\n        /* \"#utility.yul\":2773:2796   */\n      tag_101\n        /* \"#utility.yul\":2790:2795   */\n      dup2\n        /* \"#utility.yul\":2773:2796   */\n      tag_55\n      jump\t// in\n    tag_101:\n        /* \"#utility.yul\":2766:2771   */\n      dup2\n        /* \"#utility.yul\":2763:2797   */\n      eq\n        /* \"#utility.yul\":2753:2815   */\n      tag_102\n      jumpi\n        /* \"#utility.yul\":2811:2812   */\n      0x00\n        /* \"#utility.yul\":2808:2809   */\n      0x00\n        /* \"#utility.yul\":2801:2813   */\n      revert\n        /* \"#utility.yul\":2753:2815   */\n    tag_102:\n        /* \"#utility.yul\":2701:2821   */\n      pop\n      jump\t// out\n        /* \"#utility.yul\":2827:2964   */\n    tag_69:\n        /* \"#utility.yul\":2872:2877   */\n      0x00\n        /* \"#utility.yul\":2910:2916   */\n      dup2\n        /* \"#utility.yul\":2897:2917   */\n      calldataload\n        /* \"#utility.yul\":2888:2917   */\n      swap1\n      pop\n        /* \"#utility.yul\":2926:2958   */\n      tag_104\n        /* \"#utility.yul\":2952:2957   */\n      dup2\n        /* \"#utility.yul\":2926:2958   */\n      tag_68\n      jump\t// in\n    tag_104:\n        /* \"#utility.yul\":2827:2964   */\n      swap3\n      swap2\n      pop\n      pop\n      jump\t// out\n        /* \"#utility.yul\":2970:3583   */\n    tag_26:\n        /* \"#utility.yul\":3044:3050   */\n      0x00\n        /* \"#utility.yul\":3052:3058   */\n      0x00\n        /* \"#utility.yul\":3060:3066   */\n      0x00\n        /* \"#utility.yul\":3109:3111   */\n      0x60\n        /* \"#utility.yul\":3097:3106   */\n      dup5\n        /* \"#utility.yul\":3088:3095   */\n      dup7\n        /* \"#utility.yul\":3084:3107   */\n      sub\n        /* \"#utility.yul\":3080:3112   */\n      slt\n        /* \"#utility.yul\":3077:3196   */\n      iszero\n      tag_106\n      jumpi\n        /* \"#utility.yul\":3115:3194   */\n      tag_107\n      tag_58\n      jump\t// in\n    tag_107:\n        /* \"#utility.yul\":3077:3196   */\n    tag_106:\n        /* \"#utility.yul\":3235:3236   */\n      0x00\n        /* \"#utility.yul\":3260:3312   */\n      tag_108\n        /* \"#utility.yul\":3304:3311   */\n      dup7\n        /* \"#utility.yul\":3295:3301   */\n      dup3\n        /* \"#utility.yul\":3284:3293   */\n      dup8\n        /* \"#utility.yul\":3280:3302   */\n      add\n        /* \"#utility.yul\":3260:3312   */\n      tag_69\n      jump\t// in\n    tag_108:\n        /* \"#utility.yul\":3250:3312   */\n      swap4\n      pop\n        /* \"#utility.yul\":3206:3322   */\n      pop\n        /* \"#utility.yul\":3361:3363   */\n      0x20\n        /* \"#utility.yul\":3387:3439   */\n      tag_109\n        /* \"#utility.yul\":3431:3438   */\n      dup7\n        /* \"#utility.yul\":3422:3428   */\n      dup3\n        /* \"#utility.yul\":3411:3420   */\n      dup8\n        /* \"#utility.yul\":3407:3429   */\n      add\n        /* \"#utility.yul\":3387:3439   */\n      tag_69\n      jump\t// in\n    tag_109:\n        /* \"#utility.yul\":3377:3439   */\n      swap3\n      pop\n        /* \"#utility.yul\":3332:3449   */\n      pop\n        /* \"#utility.yul\":3488:3490   */\n      0x40\n        /* \"#utility.yul\":3514:3566   */\n      tag_110\n        /* \"#utility.yul\":3558:3565   */\n      dup7\n        /* \"#utility.yul\":3549:3555   */\n      dup3\n        /* \"#utility.yul\":3538:3547   */\n      dup8\n        /* \"#utility.yul\":3534:3556   */\n      add\n        /* \"#utility.yul\":3514:3566   */\n      tag_69\n      jump\t// in\n    tag_110:\n        /* \"#utility.yul\":3504:3566   */\n      swap2\n      pop\n        /* \"#utility.yul\":3459:3576   */\n      pop\n        /* \"#utility.yul\":2970:3583   */\n      swap3\n      pop\n      swap3\n      pop\n      swap3\n      jump\t// out\n        /* \"#utility.yul\":3589:3916   */\n    tag_30:\n        /* \"#utility.yul\":3647:3653   */\n      0x00\n        /* \"#utility.yul\":3696:3698   */\n      0x20\n        /* \"#utility.yul\":3684:3693   */\n      dup3\n        /* \"#utility.yul\":3675:3682   */\n      dup5\n        /* \"#utility.yul\":3671:3694   */\n      sub\n        /* \"#utility.yul\":3667:3699   */\n      slt\n        /* \"#utility.yul\":3664:3783   */\n      iszero\n      tag_112\n      jumpi\n        /* \"#utility.yul\":3702:3781   */\n      tag_113\n      tag_58\n      jump\t// in\n    tag_113:\n        /* \"#utility.yul\":3664:3783   */\n    tag_112:\n        /* \"#utility.yul\":3822:3823   */\n      0x00\n        /* \"#utility.yul\":3847:3899   */\n      tag_114\n        /* \"#utility.yul\":3891:3898   */\n      dup5\n        /* \"#utility.yul\":3882:3888   */\n      dup3\n        /* \"#utility.yul\":3871:3880   */\n      dup6\n        /* \"#utility.yul\":3867:3889   */\n      add\n        /* \"#utility.yul\":3847:3899   */\n      tag_69\n      jump\t// in\n    tag_114:\n        /* \"#utility.yul\":3837:3899   */\n      swap2\n      pop\n        /* \"#utility.yul\":3793:3909   */\n      pop\n        /* \"#utility.yul\":3589:3916   */\n      swap3\n      swap2\n      pop\n      pop\n      jump\t// out\n\n    auxdata: 0xa264697066735822122038652ec66d73af2218f2f5a39d35490a4cc829f7fa39e2275fb4d98cc674351264736f6c634300081c0033\n}\n",
				"bytecode": {
					"linkReferences": {},
					"object": "6080604052348015600e575f5ffd5b5061091a8061001c5f395ff3fe608060405234801561000f575f5ffd5b5060043610610060575f3560e01c8063043aaec41461006457806327813320146100825780634e2aff651461009e5780635d9df475146100bc57806399e47c5e146100da578063e4ce8121146100f6575b5f5ffd5b61006c610112565b6040516100799190610731565b60405180910390f35b61009c60048036038101906100979190610784565b610190565b005b6100a66101b2565b6040516100b3919061081f565b60405180910390f35b6100c461055f565b6040516100d1919061081f565b60405180910390f35b6100f460048036038101906100ef9190610869565b61069e565b005b610110600480360381019061010b91906108b9565b6106f6565b005b5f5f5f5f9054906101000a900461ffff1690505f60029054906101000a900461ffff1661ffff168161ffff161015610157575f60029054906101000a900461ffff1690505b5f60049054906101000a900461ffff1661ffff168161ffff161015610189575f60049054906101000a900461ffff1690505b8091505090565b805f60086101000a81548161ffff021916908360010b61ffff16021790555050565b60605f5f60069054906101000a900461ffff1661ffff160361020b576040518060400160405280600481526020017f7a65726f00000000000000000000000000000000000000000000000000000000815250905061055c565b60015f60069054906101000a900461ffff1661ffff1603610263576040518060400160405280600381526020017f6f6e650000000000000000000000000000000000000000000000000000000000815250905061055c565b60025f60069054906101000a900461ffff1661ffff16036102bb576040518060400160405280600381526020017f74776f0000000000000000000000000000000000000000000000000000000000815250905061055c565b60035f60069054906101000a900461ffff1661ffff1603610313576040518060400160405280600581526020017f7468726565000000000000000000000000000000000000000000000000000000815250905061055c565b60045f60069054906101000a900461ffff1661ffff160361036b576040518060400160405280600481526020017f666f757200000000000000000000000000000000000000000000000000000000815250905061055c565b60055f60069054906101000a900461ffff1661ffff16036103c3576040518060400160405280600481526020017f6669766500000000000000000000000000000000000000000000000000000000815250905061055c565b60065f60069054906101000a900461ffff1661ffff160361041b576040518060400160405280600381526020017f7369780000000000000000000000000000000000000000000000000000000000815250905061055c565b60075f60069054906101000a900461ffff1661ffff1603610473576040518060400160405280600581526020017f736576656e000000000000000000000000000000000000000000000000000000815250905061055c565b60085f60069054906101000a900461ffff1661ffff16036104cb576040518060400160405280600581526020017f6569676874000000000000000000000000000000000000000000000000000000815250905061055c565b60095f60069054906101000a900461ffff1661ffff1603610523576040518060400160405280600481526020017f6e696e6500000000000000000000000000000000000000000000000000000000815250905061055c565b6040518060400160405280600d81526020017f696e76616c696420696e7075740000000000000000000000000000000000000081525090505b90565b60605f5f60089054906101000a900460010b60010b036105b6576040518060400160405280600481526020017f7a65726f00000000000000000000000000000000000000000000000000000000815250905061069b565b5f5f60089054906101000a900460010b60010b131561060c576040518060400160405280600881526020017f706f736974697665000000000000000000000000000000000000000000000000815250905061069b565b5f5f60089054906101000a900460010b60010b1215610662576040518060400160405280600881526020017f6e65676174697665000000000000000000000000000000000000000000000000815250905061069b565b6040518060400160405280600d81526020017f696e76616c696420696e7075740000000000000000000000000000000000000081525090505b90565b825f5f6101000a81548161ffff021916908361ffff160217905550815f60026101000a81548161ffff021916908361ffff160217905550805f60046101000a81548161ffff021916908361ffff160217905550505050565b805f60066101000a81548161ffff021916908361ffff16021790555050565b5f61ffff82169050919050565b61072b81610715565b82525050565b5f6020820190506107445f830184610722565b92915050565b5f5ffd5b5f8160010b9050919050565b6107638161074e565b811461076d575f5ffd5b50565b5f8135905061077e8161075a565b92915050565b5f602082840312156107995761079861074a565b5b5f6107a684828501610770565b91505092915050565b5f81519050919050565b5f82825260208201905092915050565b8281835e5f83830152505050565b5f601f19601f8301169050919050565b5f6107f1826107af565b6107fb81856107b9565b935061080b8185602086016107c9565b610814816107d7565b840191505092915050565b5f6020820190508181035f83015261083781846107e7565b905092915050565b61084881610715565b8114610852575f5ffd5b50565b5f813590506108638161083f565b92915050565b5f5f5f606084860312156108805761087f61074a565b5b5f61088d86828701610855565b935050602061089e86828701610855565b92505060406108af86828701610855565b9150509250925092565b5f602082840312156108ce576108cd61074a565b5b5f6108db84828501610855565b9150509291505056fea264697066735822122038652ec66d73af2218f2f5a39d35490a4cc829f7fa39e2275fb4d98cc674351264736f6c634300081c0033",
					"opcodes": "PUSH1 0x80 PUSH1 0x40 MSTORE CALLVALUE DUP1 ISZERO PUSH1 0xE JUMPI PUSH0 PUSH0 REVERT JUMPDEST POP PUSH2 0x91A DUP1 PUSH2 0x1C PUSH0 CODECOPY PUSH0 RETURN INVALID PUSH1 0x80 PUSH1 0x40 MSTORE CALLVALUE DUP1 ISZERO PUSH2 0xF JUMPI PUSH0 PUSH0 REVERT JUMPDEST POP PUSH1 0x4 CALLDATASIZE LT PUSH2 0x60 JUMPI PUSH0 CALLDATALOAD PUSH1 0xE0 SHR DUP1 PUSH4 0x43AAEC4 EQ PUSH2 0x64 JUMPI DUP1 PUSH4 0x27813320 EQ PUSH2 0x82 JUMPI DUP1 PUSH4 0x4E2AFF65 EQ PUSH2 0x9E JUMPI DUP1 PUSH4 0x5D9DF475 EQ PUSH2 0xBC JUMPI DUP1 PUSH4 0x99E47C5E EQ PUSH2 0xDA JUMPI DUP1 PUSH4 0xE4CE8121 EQ PUSH2 0xF6 JUMPI JUMPDEST PUSH0 PUSH0 REVERT JUMPDEST PUSH2 0x6C PUSH2 0x112 JUMP JUMPDEST PUSH1 0x40 MLOAD PUSH2 0x79 SWAP2 SWAP1 PUSH2 0x731 JUMP JUMPDEST PUSH1 0x40 MLOAD DUP1 SWAP2 SUB SWAP1 RETURN JUMPDEST PUSH2 0x9C PUSH1 0x4 DUP1 CALLDATASIZE SUB DUP2 ADD SWAP1 PUSH2 0x97 SWAP2 SWAP1 PUSH2 0x784 JUMP JUMPDEST PUSH2 0x190 JUMP JUMPDEST STOP JUMPDEST PUSH2 0xA6 PUSH2 0x1B2 JUMP JUMPDEST PUSH1 0x40 MLOAD PUSH2 0xB3 SWAP2 SWAP1 PUSH2 0x81F JUMP JUMPDEST PUSH1 0x40 MLOAD DUP1 SWAP2 SUB SWAP1 RETURN JUMPDEST PUSH2 0xC4 PUSH2 0x55F JUMP JUMPDEST PUSH1 0x40 MLOAD PUSH2 0xD1 SWAP2 SWAP1 PUSH2 0x81F JUMP JUMPDEST PUSH1 0x40 MLOAD DUP1 SWAP2 SUB SWAP1 RETURN JUMPDEST PUSH2 0xF4 PUSH1 0x4 DUP1 CALLDATASIZE SUB DUP2 ADD SWAP1 PUSH2 0xEF SWAP2 SWAP1 PUSH2 0x869 JUMP JUMPDEST PUSH2 0x69E JUMP JUMPDEST STOP JUMPDEST PUSH2 0x110 PUSH1 0x4 DUP1 CALLDATASIZE SUB DUP2 ADD SWAP1 PUSH2 0x10B SWAP2 SWAP1 PUSH2 0x8B9 JUMP JUMPDEST PUSH2 0x6F6 JUMP JUMPDEST STOP JUMPDEST PUSH0 PUSH0 PUSH0 PUSH0 SWAP1 SLOAD SWAP1 PUSH2 0x100 EXP SWAP1 DIV PUSH2 0xFFFF AND SWAP1 POP PUSH0 PUSH1 0x2 SWAP1 SLOAD SWAP1 PUSH2 0x100 EXP SWAP1 DIV PUSH2 0xFFFF AND PUSH2 0xFFFF AND DUP2 PUSH2 0xFFFF AND LT ISZERO PUSH2 0x157 JUMPI PUSH0 PUSH1 0x2 SWAP1 SLOAD SWAP1 PUSH2 0x100 EXP SWAP1 DIV PUSH2 0xFFFF AND SWAP1 POP JUMPDEST PUSH0 PUSH1 0x4 SWAP1 SLOAD SWAP1 PUSH2 0x100 EXP SWAP1 DIV PUSH2 0xFFFF AND PUSH2 0xFFFF AND DUP2 PUSH2 0xFFFF AND LT ISZERO PUSH2 0x189 JUMPI PUSH0 PUSH1 0x4 SWAP1 SLOAD SWAP1 PUSH2 0x100 EXP SWAP1 DIV PUSH2 0xFFFF AND SWAP1 POP JUMPDEST DUP1 SWAP2 POP POP SWAP1 JUMP JUMPDEST DUP1 PUSH0 PUSH1 0x8 PUSH2 0x100 EXP DUP2 SLOAD DUP2 PUSH2 0xFFFF MUL NOT AND SWAP1 DUP4 PUSH1 0x1 SIGNEXTEND PUSH2 0xFFFF AND MUL OR SWAP1 SSTORE POP POP JUMP JUMPDEST PUSH1 0x60 PUSH0 PUSH0 PUSH1 0x6 SWAP1 SLOAD SWAP1 PUSH2 0x100 EXP SWAP1 DIV PUSH2 0xFFFF AND PUSH2 0xFFFF AND SUB PUSH2 0x20B JUMPI PUSH1 0x40 MLOAD DUP1 PUSH1 0x40 ADD PUSH1 0x40 MSTORE DUP1 PUSH1 0x4 DUP2 MSTORE PUSH1 0x20 ADD PUSH32 0x7A65726F00000000000000000000000000000000000000000000000000000000 DUP2 MSTORE POP SWAP1 POP PUSH2 0x55C JUMP JUMPDEST PUSH1 0x1 PUSH0 PUSH1 0x6 SWAP1 SLOAD SWAP1 PUSH2 0x100 EXP SWAP1 DIV PUSH2 0xFFFF AND PUSH2 0xFFFF AND SUB PUSH2 0x263 JUMPI PUSH1 0x40 MLOAD DUP1 PUSH1 0x40 ADD PUSH1 0x40 MSTORE DUP1 PUSH1 0x3 DUP2 MSTORE PUSH1 0x20 ADD PUSH32 0x6F6E650000000000000000000000000000000000000000000000000000000000 DUP2 MSTORE POP SWAP1 POP PUSH2 0x55C JUMP JUMPDEST PUSH1 0x2 PUSH0 PUSH1 0x6 SWAP1 SLOAD SWAP1 PUSH2 0x100 EXP SWAP1 DIV PUSH2 0xFFFF AND PUSH2 0xFFFF AND SUB PUSH2 0x2BB JUMPI PUSH1 0x40 MLOAD DUP1 PUSH1 0x40 ADD PUSH1 0x40 MSTORE DUP1 PUSH1 0x3 DUP2 MSTORE PUSH1 0x20 ADD PUSH32 0x74776F0000000000000000000000000000000000000000000000000000000000 DUP2 MSTORE POP SWAP1 POP PUSH2 0x55C JUMP JUMPDEST PUSH1 0x3 PUSH0 PUSH1 0x6 SWAP1 SLOAD SWAP1 PUSH2 0x100 EXP SWAP1 DIV PUSH2 0xFFFF AND PUSH2 0xFFFF AND SUB PUSH2 0x313 JUMPI PUSH1 0x40 MLOAD DUP1 PUSH1 0x40 ADD PUSH1 0x40 MSTORE DUP1 PUSH1 0x5 DUP2 MSTORE PUSH1 0x20 ADD PUSH32 0x7468726565000000000000000000000000000000000000000000000000000000 DUP2 MSTORE POP SWAP1 POP PUSH2 0x55C JUMP JUMPDEST PUSH1 0x4 PUSH0 PUSH1 0x6 SWAP1 SLOAD SWAP1 PUSH2 0x100 EXP SWAP1 DIV PUSH2 0xFFFF AND PUSH2 0xFFFF AND SUB PUSH2 0x36B JUMPI PUSH1 0x40 MLOAD DUP1 PUSH1 0x40 ADD PUSH1 0x40 MSTORE DUP1 PUSH1 0x4 DUP2 MSTORE PUSH1 0x20 ADD PUSH32 0x666F757200000000000000000000000000000000000000000000000000000000 DUP2 MSTORE POP SWAP1 POP PUSH2 0x55C JUMP JUMPDEST PUSH1 0x5 PUSH0 PUSH1 0x6 SWAP1 SLOAD SWAP1 PUSH2 0x100 EXP SWAP1 DIV PUSH2 0xFFFF AND PUSH2 0xFFFF AND SUB PUSH2 0x3C3 JUMPI PUSH1 0x40 MLOAD DUP1 PUSH1 0x40 ADD PUSH1 0x40 MSTORE DUP1 PUSH1 0x4 DUP2 MSTORE PUSH1 0x20 ADD PUSH32 0x6669766500000000000000000000000000000000000000000000000000000000 DUP2 MSTORE POP SWAP1 POP PUSH2 0x55C JUMP JUMPDEST PUSH1 0x6 PUSH0 PUSH1 0x6 SWAP1 SLOAD SWAP1 PUSH2 0x100 EXP SWAP1 DIV PUSH2 0xFFFF AND PUSH2 0xFFFF AND SUB PUSH2 0x41B JUMPI PUSH1 0x40 MLOAD DUP1 PUSH1 0x40 ADD PUSH1 0x40 MSTORE DUP1 PUSH1 0x3 DUP2 MSTORE PUSH1 0x20 ADD PUSH32 0x7369780000000000000000000000000000000000000000000000000000000000 DUP2 MSTORE POP SWAP1 POP PUSH2 0x55C JUMP JUMPDEST PUSH1 0x7 PUSH0 PUSH1 0x6 SWAP1 SLOAD SWAP1 PUSH2 0x100 EXP SWAP1 DIV PUSH2 0xFFFF AND PUSH2 0xFFFF AND SUB PUSH2 0x473 JUMPI PUSH1 0x40 MLOAD DUP1 PUSH1 0x40 ADD PUSH1 0x40 MSTORE DUP1 PUSH1 0x5 DUP2 MSTORE PUSH1 0x20 ADD PUSH32 0x736576656E000000000000000000000000000000000000000000000000000000 DUP2 MSTORE POP SWAP1 POP PUSH2 0x55C JUMP JUMPDEST PUSH1 0x8 PUSH0 PUSH1 0x6 SWAP1 SLOAD SWAP1 PUSH2 0x100 EXP SWAP1 DIV PUSH2 0xFFFF AND PUSH2 0xFFFF AND SUB PUSH2 0x4CB JUMPI PUSH1 0x40 MLOAD DUP1 PUSH1 0x40 ADD PUSH1 0x40 MSTORE DUP1 PUSH1 0x5 DUP2 MSTORE PUSH1 0x20 ADD PUSH32 0x6569676874000000000000000000000000000000000000000000000000000000 DUP2 MSTORE POP SWAP1 POP PUSH2 0x55C JUMP JUMPDEST PUSH1 0x9 PUSH0 PUSH1 0x6 SWAP1 SLOAD SWAP1 PUSH2 0x100 EXP SWAP1 DIV PUSH2 0xFFFF AND PUSH2 0xFFFF AND SUB PUSH2 0x523 JUMPI PUSH1 0x40 MLOAD DUP1 PUSH1 0x40 ADD PUSH1 0x40 MSTORE DUP1 PUSH1 0x4 DUP2 MSTORE PUSH1 0x20 ADD PUSH32 0x6E696E6500000000000000000000000000000000000000000000000000000000 DUP2 MSTORE POP SWAP1 POP PUSH2 0x55C JUMP JUMPDEST PUSH1 0x40 MLOAD DUP1 PUSH1 0x40 ADD PUSH1 0x40 MSTORE DUP1 PUSH1 0xD DUP2 MSTORE PUSH1 0x20 ADD PUSH32 0x696E76616C696420696E70757400000000000000000000000000000000000000 DUP2 MSTORE POP SWAP1 POP JUMPDEST SWAP1 JUMP JUMPDEST PUSH1 0x60 PUSH0 PUSH0 PUSH1 0x8 SWAP1 SLOAD SWAP1 PUSH2 0x100 EXP SWAP1 DIV PUSH1 0x1 SIGNEXTEND PUSH1 0x1 SIGNEXTEND SUB PUSH2 0x5B6 JUMPI PUSH1 0x40 MLOAD DUP1 PUSH1 0x40 ADD PUSH1 0x40 MSTORE DUP1 PUSH1 0x4 DUP2 MSTORE PUSH1 0x20 ADD PUSH32 0x7A65726F00000000000000000000000000000000000000000000000000000000 DUP2 MSTORE POP SWAP1 POP PUSH2 0x69B JUMP JUMPDEST PUSH0 PUSH0 PUSH1 0x8 SWAP1 SLOAD SWAP1 PUSH2 0x100 EXP SWAP1 DIV PUSH1 0x1 SIGNEXTEND PUSH1 0x1 SIGNEXTEND SGT ISZERO PUSH2 0x60C JUMPI PUSH1 0x40 MLOAD DUP1 PUSH1 0x40 ADD PUSH1 0x40 MSTORE DUP1 PUSH1 0x8 DUP2 MSTORE PUSH1 0x20 ADD PUSH32 0x706F736974697665000000000000000000000000000000000000000000000000 DUP2 MSTORE POP SWAP1 POP PUSH2 0x69B JUMP JUMPDEST PUSH0 PUSH0 PUSH1 0x8 SWAP1 SLOAD SWAP1 PUSH2 0x100 EXP SWAP1 DIV PUSH1 0x1 SIGNEXTEND PUSH1 0x1 SIGNEXTEND SLT ISZERO PUSH2 0x662 JUMPI PUSH1 0x40 MLOAD DUP1 PUSH1 0x40 ADD PUSH1 0x40 MSTORE DUP1 PUSH1 0x8 DUP2 MSTORE PUSH1 0x20 ADD PUSH32 0x6E65676174697665000000000000000000000000000000000000000000000000 DUP2 MSTORE POP SWAP1 POP PUSH2 0x69B JUMP JUMPDEST PUSH1 0x40 MLOAD DUP1 PUSH1 0x40 ADD PUSH1 0x40 MSTORE DUP1 PUSH1 0xD DUP2 MSTORE PUSH1 0x20 ADD PUSH32 0x696E76616C696420696E70757400000000000000000000000000000000000000 DUP2 MSTORE POP SWAP1 POP JUMPDEST SWAP1 JUMP JUMPDEST DUP3 PUSH0 PUSH0 PUSH2 0x100 EXP DUP2 SLOAD DUP2 PUSH2 0xFFFF MUL NOT AND SWAP1 DUP4 PUSH2 0xFFFF AND MUL OR SWAP1 SSTORE POP DUP2 PUSH0 PUSH1 0x2 PUSH2 0x100 EXP DUP2 SLOAD DUP2 PUSH2 0xFFFF MUL NOT AND SWAP1 DUP4 PUSH2 0xFFFF AND MUL OR SWAP1 SSTORE POP DUP1 PUSH0 PUSH1 0x4 PUSH2 0x100 EXP DUP2 SLOAD DUP2 PUSH2 0xFFFF MUL NOT AND SWAP1 DUP4 PUSH2 0xFFFF AND MUL OR SWAP1 SSTORE POP POP POP POP JUMP JUMPDEST DUP1 PUSH0 PUSH1 0x6 PUSH2 0x100 EXP DUP2 SLOAD DUP2 PUSH2 0xFFFF MUL NOT AND SWAP1 DUP4 PUSH2 0xFFFF AND MUL OR SWAP1 SSTORE POP POP JUMP JUMPDEST PUSH0 PUSH2 0xFFFF DUP3 AND SWAP1 POP SWAP2 SWAP1 POP JUMP JUMPDEST PUSH2 0x72B DUP2 PUSH2 0x715 JUMP JUMPDEST DUP3 MSTORE POP POP JUMP JUMPDEST PUSH0 PUSH1 0x20 DUP3 ADD SWAP1 POP PUSH2 0x744 PUSH0 DUP4 ADD DUP5 PUSH2 0x722 JUMP JUMPDEST SWAP3 SWAP2 POP POP JUMP JUMPDEST PUSH0 PUSH0 REVERT JUMPDEST PUSH0 DUP2 PUSH1 0x1 SIGNEXTEND SWAP1 POP SWAP2 SWAP1 POP JUMP JUMPDEST PUSH2 0x763 DUP2 PUSH2 0x74E JUMP JUMPDEST DUP2 EQ PUSH2 0x76D JUMPI PUSH0 PUSH0 REVERT JUMPDEST POP JUMP JUMPDEST PUSH0 DUP2 CALLDATALOAD SWAP1 POP PUSH2 0x77E DUP2 PUSH2 0x75A JUMP JUMPDEST SWAP3 SWAP2 POP POP JUMP JUMPDEST PUSH0 PUSH1 0x20 DUP3 DUP5 SUB SLT ISZERO PUSH2 0x799 JUMPI PUSH2 0x798 PUSH2 0x74A JUMP JUMPDEST JUMPDEST PUSH0 PUSH2 0x7A6 DUP5 DUP3 DUP6 ADD PUSH2 0x770 JUMP JUMPDEST SWAP2 POP POP SWAP3 SWAP2 POP POP JUMP JUMPDEST PUSH0 DUP2 MLOAD SWAP1 POP SWAP2 SWAP1 POP JUMP JUMPDEST PUSH0 DUP3 DUP3 MSTORE PUSH1 0x20 DUP3 ADD SWAP1 POP SWAP3 SWAP2 POP POP JUMP JUMPDEST DUP3 DUP2 DUP4 MCOPY PUSH0 DUP4 DUP4 ADD MSTORE POP POP POP JUMP JUMPDEST PUSH0 PUSH1 0x1F NOT PUSH1 0x1F DUP4 ADD AND SWAP1 POP SWAP2 SWAP1 POP JUMP JUMPDEST PUSH0 PUSH2 0x7F1 DUP3 PUSH2 0x7AF JUMP JUMPDEST PUSH2 0x7FB DUP2 DUP6 PUSH2 0x7B9 JUMP JUMPDEST SWAP4 POP PUSH2 0x80B DUP2 DUP6 PUSH1 0x20 DUP7 ADD PUSH2 0x7C9 JUMP JUMPDEST PUSH2 0x814 DUP2 PUSH2 0x7D7 JUMP JUMPDEST DUP5 ADD SWAP2 POP POP SWAP3 SWAP2 POP POP JUMP JUMPDEST PUSH0 PUSH1 0x20 DUP3 ADD SWAP1 POP DUP2 DUP2 SUB PUSH0 DUP4 ADD MSTORE PUSH2 0x837 DUP2 DUP5 PUSH2 0x7E7 JUMP JUMPDEST SWAP1 POP SWAP3 SWAP2 POP POP JUMP JUMPDEST PUSH2 0x848 DUP2 PUSH2 0x715 JUMP JUMPDEST DUP2 EQ PUSH2 0x852 JUMPI PUSH0 PUSH0 REVERT JUMPDEST POP JUMP JUMPDEST PUSH0 DUP2 CALLDATALOAD SWAP1 POP PUSH2 0x863 DUP2 PUSH2 0x83F JUMP JUMPDEST SWAP3 SWAP2 POP POP JUMP JUMPDEST PUSH0 PUSH0 PUSH0 PUSH1 0x60 DUP5 DUP7 SUB SLT ISZERO PUSH2 0x880 JUMPI PUSH2 0x87F PUSH2 0x74A JUMP JUMPDEST JUMPDEST PUSH0 PUSH2 0x88D DUP7 DUP3 DUP8 ADD PUSH2 0x855 JUMP JUMPDEST SWAP4 POP POP PUSH1 0x20 PUSH2 0x89E DUP7 DUP3 DUP8 ADD PUSH2 0x855 JUMP JUMPDEST SWAP3 POP POP PUSH1 0x40 PUSH2 0x8AF DUP7 DUP3 DUP8 ADD PUSH2 0x855 JUMP JUMPDEST SWAP2 POP POP SWAP3 POP SWAP3 POP SWAP3 JUMP JUMPDEST PUSH0 PUSH1 0x20 DUP3 DUP5 SUB SLT ISZERO PUSH2 0x8CE JUMPI PUSH2 0x8CD PUSH2 0x74A JUMP JUMPDEST JUMPDEST PUSH0 PUSH2 0x8DB DUP5 DUP3 DUP6 ADD PUSH2 0x855 JUMP JUMPDEST SWAP2 POP POP SWAP3 SWAP2 POP POP JUMP INVALID LOG2 PUSH5 0x6970667358 0x22 SLT KECCAK256 CODESIZE PUSH6 0x2EC66D73AF22 XOR CALLCODE CREATE2 LOG3 SWAP14 CALLDATALOAD BLOBHASH EXP 0x4C 0xC8 0x29 0xF7 STATICCALL CODECOPY 0xE2 0x27 PUSH0 0xB4 0xD9 DUP13 0xC6 PUSH21 0x351264736F6C634300081C00330000000000000000 "
				},
				"gasEstimates": {
					"creation": {
						"codeDepositCost": "466000",
						"executionCost": "497",
						"totalCost": "466497"
					},
					"external": {
						"Largestnum()": "11294",
						"checkdigit()": "infinite",
						"setDigit(uint16)": "24811",
						"setNumbers(uint16,uint16,uint16)": "infinite",
						"setnumber(int16)": "24733",
						"signchecking()": "infinite"
					}
				},
				"methodIdentifiers": {
					"Largestnum()": "043aaec4",
					"checkdigit()": "4e2aff65",
					"setDigit(uint16)": "e4ce8121",
					"setNumbers(uint16,uint16,uint16)": "99e47c5e",
					"setnumber(int16)": "27813320",
					"signchecking()": "5d9df475"
				}
			},
			"storageLayout": {
				"storage": [
					{
						"astId": 3,
						"contract": "Activities-D1/Activity1.sol:Activity1",
						"label": "number1",
						"offset": 0,
						"slot": "0",
						"type": "t_uint16"
					},
					{
						"astId": 5,
						"contract": "Activities-D1/Activity1.sol:Activity1",
						"label": "number2",
						"offset": 2,
						"slot": "0",
						"type": "t_uint16"
					},
					{
						"astId": 7,
						"contract": "Activities-D1/Activity1.sol:Activity1",
						"label": "number3",
						"offset": 4,
						"slot": "0",
						"type": "t_uint16"
					},
					{
						"astId": 9,
						"contract": "Activities-D1/Activity1.sol:Activity1",
						"label": "digit",
						"offset": 6,
						"slot": "0",
						"type": "t_uint16"
					},
					{
						"astId": 11,
						"contract": "Activities-D1/Activity1.sol:Activity1",
						"label": "sign",
						"offset": 8,
						"slot": "0",
						"type": "t_int16"
					}
				],
				"types": {
					"t_int16": {
						"encoding": "inplace",
						"label": "int16",
						"numberOfBytes": "2"
					},
					"t_uint16": {
						"encoding": "inplace",
						"label": "uint16",
						"numberOfBytes": "2"
					}
				}
			},
			"userdoc": {
				"kind": "user",
				"methods": {},
				"version": 1
			}
		}
	}
}